{
  "abi": [
    {
      "inputs": [
        {
          "internalType": "uint256",
          "name": "_initialSupply",
          "type": "uint256"
        }
      ],
      "stateMutability": "nonpayable",
      "type": "constructor"
    },
    {
      "anonymous": false,
      "inputs": [
        {
          "indexed": true,
          "internalType": "address",
          "name": "owner",
          "type": "address"
        },
        {
          "indexed": true,
          "internalType": "address",
          "name": "spender",
          "type": "address"
        },
        {
          "indexed": false,
          "internalType": "uint256",
          "name": "value",
          "type": "uint256"
        }
      ],
      "name": "Approval",
      "type": "event"
    },
    {
      "anonymous": false,
      "inputs": [
        {
          "indexed": true,
          "internalType": "address",
          "name": "from",
          "type": "address"
        },
        {
          "indexed": true,
          "internalType": "address",
          "name": "to",
          "type": "address"
        },
        {
          "indexed": false,
          "internalType": "uint256",
          "name": "value",
          "type": "uint256"
        }
      ],
      "name": "Transfer",
      "type": "event"
    },
    {
      "inputs": [
        {
          "internalType": "address",
          "name": "owner",
          "type": "address"
        },
        {
          "internalType": "address",
          "name": "spender",
          "type": "address"
        }
      ],
      "name": "allowance",
      "outputs": [
        {
          "internalType": "uint256",
          "name": "",
          "type": "uint256"
        }
      ],
      "stateMutability": "view",
      "type": "function"
    },
    {
      "inputs": [
        {
          "internalType": "address",
          "name": "spender",
          "type": "address"
        },
        {
          "internalType": "uint256",
          "name": "amount",
          "type": "uint256"
        }
      ],
      "name": "approve",
      "outputs": [
        {
          "internalType": "bool",
          "name": "",
          "type": "bool"
        }
      ],
      "stateMutability": "nonpayable",
      "type": "function"
    },
    {
      "inputs": [
        {
          "internalType": "address",
          "name": "account",
          "type": "address"
        }
      ],
      "name": "balanceOf",
      "outputs": [
        {
          "internalType": "uint256",
          "name": "",
          "type": "uint256"
        }
      ],
      "stateMutability": "view",
      "type": "function"
    },
    {
      "inputs": [],
      "name": "buyTokens",
      "outputs": [],
      "stateMutability": "payable",
      "type": "function"
    },
    {
      "inputs": [],
      "name": "decimals",
      "outputs": [
        {
          "internalType": "uint8",
          "name": "",
          "type": "uint8"
        }
      ],
      "stateMutability": "view",
      "type": "function"
    },
    {
      "inputs": [
        {
          "internalType": "address",
          "name": "spender",
          "type": "address"
        },
        {
          "internalType": "uint256",
          "name": "subtractedValue",
          "type": "uint256"
        }
      ],
      "name": "decreaseAllowance",
      "outputs": [
        {
          "internalType": "bool",
          "name": "",
          "type": "bool"
        }
      ],
      "stateMutability": "nonpayable",
      "type": "function"
    },
    {
      "inputs": [
        {
          "internalType": "address",
          "name": "spender",
          "type": "address"
        },
        {
          "internalType": "uint256",
          "name": "addedValue",
          "type": "uint256"
        }
      ],
      "name": "increaseAllowance",
      "outputs": [
        {
          "internalType": "bool",
          "name": "",
          "type": "bool"
        }
      ],
      "stateMutability": "nonpayable",
      "type": "function"
    },
    {
      "inputs": [],
      "name": "initialSupply",
      "outputs": [
        {
          "internalType": "uint256",
          "name": "",
          "type": "uint256"
        }
      ],
      "stateMutability": "view",
      "type": "function"
    },
    {
      "inputs": [
        {
          "internalType": "uint256",
          "name": "amount",
          "type": "uint256"
        }
      ],
      "name": "mintTokens",
      "outputs": [],
      "stateMutability": "nonpayable",
      "type": "function"
    },
    {
      "inputs": [],
      "name": "name",
      "outputs": [
        {
          "internalType": "string",
          "name": "",
          "type": "string"
        }
      ],
      "stateMutability": "view",
      "type": "function"
    },
    {
      "inputs": [],
      "name": "owner",
      "outputs": [
        {
          "internalType": "address",
          "name": "",
          "type": "address"
        }
      ],
      "stateMutability": "view",
      "type": "function"
    },
    {
      "inputs": [],
      "name": "symbol",
      "outputs": [
        {
          "internalType": "string",
          "name": "",
          "type": "string"
        }
      ],
      "stateMutability": "view",
      "type": "function"
    },
    {
      "inputs": [],
      "name": "totalSupply",
      "outputs": [
        {
          "internalType": "uint256",
          "name": "",
          "type": "uint256"
        }
      ],
      "stateMutability": "view",
      "type": "function"
    },
    {
      "inputs": [
        {
          "internalType": "address",
          "name": "to",
          "type": "address"
        },
        {
          "internalType": "uint256",
          "name": "amount",
          "type": "uint256"
        }
      ],
      "name": "transfer",
      "outputs": [
        {
          "internalType": "bool",
          "name": "",
          "type": "bool"
        }
      ],
      "stateMutability": "nonpayable",
      "type": "function"
    },
    {
      "inputs": [
        {
          "internalType": "address",
          "name": "from",
          "type": "address"
        },
        {
          "internalType": "address",
          "name": "to",
          "type": "address"
        },
        {
          "internalType": "uint256",
          "name": "amount",
          "type": "uint256"
        }
      ],
      "name": "transferFrom",
      "outputs": [
        {
          "internalType": "bool",
          "name": "",
          "type": "bool"
        }
      ],
      "stateMutability": "nonpayable",
      "type": "function"
    }
  ],
  "devdoc": {
    "kind": "dev",
    "methods": {
      "allowance(address,address)": {
        "details": "See {IERC20-allowance}."
      },
      "approve(address,uint256)": {
        "details": "See {IERC20-approve}. NOTE: If `amount` is the maximum `uint256`, the allowance is not updated on `transferFrom`. This is semantically equivalent to an infinite approval. Requirements: - `spender` cannot be the zero address."
      },
      "balanceOf(address)": {
        "details": "See {IERC20-balanceOf}."
      },
      "decimals()": {
        "details": "Returns the number of decimals used to get its user representation. For example, if `decimals` equals `2`, a balance of `505` tokens should be displayed to a user as `5.05` (`505 / 10 ** 2`). Tokens usually opt for a value of 18, imitating the relationship between Ether and Wei. This is the default value returned by this function, unless it's overridden. NOTE: This information is only used for _display_ purposes: it in no way affects any of the arithmetic of the contract, including {IERC20-balanceOf} and {IERC20-transfer}."
      },
      "decreaseAllowance(address,uint256)": {
        "details": "Atomically decreases the allowance granted to `spender` by the caller. This is an alternative to {approve} that can be used as a mitigation for problems described in {IERC20-approve}. Emits an {Approval} event indicating the updated allowance. Requirements: - `spender` cannot be the zero address. - `spender` must have allowance for the caller of at least `subtractedValue`."
      },
      "increaseAllowance(address,uint256)": {
        "details": "Atomically increases the allowance granted to `spender` by the caller. This is an alternative to {approve} that can be used as a mitigation for problems described in {IERC20-approve}. Emits an {Approval} event indicating the updated allowance. Requirements: - `spender` cannot be the zero address."
      },
      "name()": {
        "details": "Returns the name of the token."
      },
      "symbol()": {
        "details": "Returns the symbol of the token, usually a shorter version of the name."
      },
      "totalSupply()": {
        "details": "See {IERC20-totalSupply}."
      },
      "transfer(address,uint256)": {
        "details": "See {IERC20-transfer}. Requirements: - `to` cannot be the zero address. - the caller must have a balance of at least `amount`."
      },
      "transferFrom(address,address,uint256)": {
        "details": "See {IERC20-transferFrom}. Emits an {Approval} event indicating the updated allowance. This is not required by the EIP. See the note at the beginning of {ERC20}. NOTE: Does not update the allowance if the current allowance is the maximum `uint256`. Requirements: - `from` and `to` cannot be the zero address. - `from` must have a balance of at least `amount`. - the caller must have allowance for ``from``'s tokens of at least `amount`."
      }
    },
    "version": 1
  },
  "evm": {
    "assembly": "    /* \"durakToken.sol\":114:789  contract durakToken is ERC20 {... */\n  mstore(0x40, 0x80)\n    /* \"durakToken.sol\":210:407  constructor(uint256 _initialSupply) ERC20(\"Durak Token\", \"DURAK\") {... */\n  callvalue\n  dup1\n  iszero\n  tag_1\n  jumpi\n  0x00\n  dup1\n  revert\ntag_1:\n  pop\n  mload(0x40)\n  sub(codesize, bytecodeSize)\n  dup1\n  bytecodeSize\n  dup4\n  codecopy\n  dup2\n  add\n  0x40\n  dup2\n  swap1\n  mstore\n  tag_2\n  swap2\n  tag_3\n  jump\t// in\ntag_2:\n    /* \"@openzeppelin/contracts/token/ERC20/ERC20.sol\":1980:2093   */\n  mload(0x40)\n  dup1\n  0x40\n  add\n  0x40\n  mstore\n  dup1\n  0x0b\n  dup2\n  mstore\n  0x20\n  add\n  shl(0xa9, 0x223ab930b5902a37b5b2b7)\n  dup2\n  mstore\n  pop\n  mload(0x40)\n  dup1\n  0x40\n  add\n  0x40\n  mstore\n  dup1\n  0x05\n  dup2\n  mstore\n  0x20\n  add\n  shl(0xd8, 0x445552414b)\n  dup2\n  mstore\n  pop\n    /* \"@openzeppelin/contracts/token/ERC20/ERC20.sol\":2054:2059   */\n  dup2\n    /* \"@openzeppelin/contracts/token/ERC20/ERC20.sol\":2046:2051   */\n  0x03\n    /* \"@openzeppelin/contracts/token/ERC20/ERC20.sol\":2046:2059   */\n  swap1\n  dup2\n  tag_7\n  swap2\n  swap1\n  tag_8\n  jump\t// in\ntag_7:\n  pop\n    /* \"@openzeppelin/contracts/token/ERC20/ERC20.sol\":2069:2076   */\n  0x04\n    /* \"@openzeppelin/contracts/token/ERC20/ERC20.sol\":2069:2086   */\n  tag_9\n    /* \"@openzeppelin/contracts/token/ERC20/ERC20.sol\":2079:2086   */\n  dup3\n    /* \"@openzeppelin/contracts/token/ERC20/ERC20.sol\":2069:2076   */\n  dup3\n    /* \"@openzeppelin/contracts/token/ERC20/ERC20.sol\":2069:2086   */\n  tag_8\n  jump\t// in\ntag_9:\n  pop\n  pop\n    /* \"durakToken.sol\":286:291  owner */\n  0x05\n    /* \"durakToken.sol\":286:304  owner = msg.sender */\n  dup1\n  sload\n  not(sub(shl(0xa0, 0x01), 0x01))\n  and\n    /* \"durakToken.sol\":294:304  msg.sender */\n  caller\n    /* \"durakToken.sol\":286:304  owner = msg.sender */\n  or\n  swap1\n  sstore\n  pop\n    /* \"durakToken.sol\":352:362  decimals() */\n  tag_11\n    /* \"@openzeppelin/contracts/token/ERC20/ERC20.sol\":3186:3188   */\n  0x12\n  swap1\n    /* \"@openzeppelin/contracts/token/ERC20/ERC20.sol\":3104:3195   */\n  jump\n    /* \"durakToken.sol\":352:362  decimals() */\ntag_11:\n    /* \"durakToken.sol\":348:362  10**decimals() */\n  tag_13\n  swap1\n    /* \"durakToken.sol\":348:350  10 */\n  0x0a\n    /* \"durakToken.sol\":348:362  10**decimals() */\n  tag_14\n  jump\t// in\ntag_13:\n    /* \"durakToken.sol\":330:363  _initialSupply * (10**decimals()) */\n  tag_15\n  swap1\n    /* \"durakToken.sol\":330:344  _initialSupply */\n  dup3\n    /* \"durakToken.sol\":330:363  _initialSupply * (10**decimals()) */\n  tag_16\n  jump\t// in\ntag_15:\n    /* \"durakToken.sol\":314:327  initialSupply */\n  0x06\n    /* \"durakToken.sol\":314:363  initialSupply = _initialSupply * (10**decimals()) */\n  dup2\n  swap1\n  sstore\n    /* \"durakToken.sol\":379:384  owner */\n  sload(0x05)\n    /* \"durakToken.sol\":373:400  _mint(owner, initialSupply) */\n  tag_17\n  swap2\n  sub(shl(0xa0, 0x01), 0x01)\n    /* \"durakToken.sol\":379:384  owner */\n  swap1\n  swap2\n  and\n  swap1\n    /* \"durakToken.sol\":373:378  _mint */\n  tag_18\n    /* \"durakToken.sol\":373:400  _mint(owner, initialSupply) */\n  jump\t// in\ntag_17:\n    /* \"durakToken.sol\":210:407  constructor(uint256 _initialSupply) ERC20(\"Durak Token\", \"DURAK\") {... */\n  pop\n    /* \"durakToken.sol\":114:789  contract durakToken is ERC20 {... */\n  jump(tag_43)\n    /* \"@openzeppelin/contracts/token/ERC20/ERC20.sol\":8520:9055   */\ntag_18:\n  sub(shl(0xa0, 0x01), 0x01)\n    /* \"@openzeppelin/contracts/token/ERC20/ERC20.sol\":8603:8624   */\n  dup3\n  and\n    /* \"@openzeppelin/contracts/token/ERC20/ERC20.sol\":8595:8660   */\n  tag_22\n  jumpi\n  mload(0x40)\n  shl(0xe5, 0x461bcd)\n  dup2\n  mstore\n    /* \"#utility.yul\":4814:4816   */\n  0x20\n    /* \"@openzeppelin/contracts/token/ERC20/ERC20.sol\":8595:8660   */\n  0x04\n  dup3\n  add\n    /* \"#utility.yul\":4796:4817   */\n  mstore\n    /* \"#utility.yul\":4853:4855   */\n  0x1f\n    /* \"#utility.yul\":4833:4851   */\n  0x24\n  dup3\n  add\n    /* \"#utility.yul\":4826:4856   */\n  mstore\n    /* \"#utility.yul\":4892:4925   */\n  0x45524332303a206d696e7420746f20746865207a65726f206164647265737300\n    /* \"#utility.yul\":4872:4890   */\n  0x44\n  dup3\n  add\n    /* \"#utility.yul\":4865:4926   */\n  mstore\n    /* \"#utility.yul\":4943:4961   */\n  0x64\n  add\n    /* \"@openzeppelin/contracts/token/ERC20/ERC20.sol\":8595:8660   */\n  mload(0x40)\n  dup1\n  swap2\n  sub\n  swap1\n  revert\ntag_22:\n    /* \"@openzeppelin/contracts/token/ERC20/ERC20.sol\":8747:8753   */\n  dup1\n    /* \"@openzeppelin/contracts/token/ERC20/ERC20.sol\":8731:8743   */\n  0x02\n  0x00\n    /* \"@openzeppelin/contracts/token/ERC20/ERC20.sol\":8731:8753   */\n  dup3\n  dup3\n  sload\n  tag_27\n  swap2\n  swap1\n  tag_28\n  jump\t// in\ntag_27:\n  swap1\n  swap2\n  sstore\n  pop\n  pop\n  sub(shl(0xa0, 0x01), 0x01)\n    /* \"@openzeppelin/contracts/token/ERC20/ERC20.sol\":8899:8917   */\n  dup3\n  and\n    /* \"@openzeppelin/contracts/token/ERC20/ERC20.sol\":8899:8908   */\n  0x00\n    /* \"@openzeppelin/contracts/token/ERC20/ERC20.sol\":8899:8917   */\n  dup2\n  dup2\n  mstore\n  0x20\n  dup2\n  dup2\n  mstore\n  0x40\n  dup1\n  dup4\n  keccak256\n    /* \"@openzeppelin/contracts/token/ERC20/ERC20.sol\":8899:8927   */\n  dup1\n  sload\n  dup7\n  add\n  swap1\n  sstore\n    /* \"@openzeppelin/contracts/token/ERC20/ERC20.sol\":8952:8989   */\n  mload\n    /* \"#utility.yul\":5248:5273   */\n  dup5\n  dup2\n  mstore\n    /* \"@openzeppelin/contracts/token/ERC20/ERC20.sol\":8952:8989   */\n  0xddf252ad1be2c89b69c2b068fc378daa952ba7f163c4a11628f55a4df523b3ef\n  swap2\n    /* \"#utility.yul\":5221:5239   */\n  add\n    /* \"@openzeppelin/contracts/token/ERC20/ERC20.sol\":8952:8989   */\n  mload(0x40)\n  dup1\n  swap2\n  sub\n  swap1\n  log3\n    /* \"@openzeppelin/contracts/token/ERC20/ERC20.sol\":8520:9055   */\n  pop\n  pop\n  jump\t// out\n    /* \"@openzeppelin/contracts/token/ERC20/ERC20.sol\":12073:12164   */\ntag_26:\n  pop\n  pop\n  pop\n  jump\t// out\n    /* \"#utility.yul\":14:198   */\ntag_3:\n    /* \"#utility.yul\":84:90   */\n  0x00\n    /* \"#utility.yul\":137:139   */\n  0x20\n    /* \"#utility.yul\":125:134   */\n  dup3\n    /* \"#utility.yul\":116:123   */\n  dup5\n    /* \"#utility.yul\":112:135   */\n  sub\n    /* \"#utility.yul\":108:140   */\n  slt\n    /* \"#utility.yul\":105:157   */\n  iszero\n  tag_45\n  jumpi\n    /* \"#utility.yul\":153:154   */\n  0x00\n    /* \"#utility.yul\":150:151   */\n  dup1\n    /* \"#utility.yul\":143:155   */\n  revert\n    /* \"#utility.yul\":105:157   */\ntag_45:\n  pop\n    /* \"#utility.yul\":176:192   */\n  mload\n  swap2\n    /* \"#utility.yul\":14:198   */\n  swap1\n  pop\n  jump\t// out\n    /* \"#utility.yul\":203:330   */\ntag_35:\n    /* \"#utility.yul\":264:274   */\n  0x4e487b71\n    /* \"#utility.yul\":259:262   */\n  0xe0\n    /* \"#utility.yul\":255:275   */\n  shl\n    /* \"#utility.yul\":252:253   */\n  0x00\n    /* \"#utility.yul\":245:276   */\n  mstore\n    /* \"#utility.yul\":295:299   */\n  0x41\n    /* \"#utility.yul\":292:293   */\n  0x04\n    /* \"#utility.yul\":285:300   */\n  mstore\n    /* \"#utility.yul\":319:323   */\n  0x24\n    /* \"#utility.yul\":316:317   */\n  0x00\n    /* \"#utility.yul\":309:324   */\n  revert\n    /* \"#utility.yul\":335:715   */\ntag_36:\n    /* \"#utility.yul\":414:415   */\n  0x01\n    /* \"#utility.yul\":410:422   */\n  dup2\n  dup2\n  shr\n  swap1\n    /* \"#utility.yul\":457:469   */\n  dup3\n  and\n  dup1\n    /* \"#utility.yul\":478:539   */\n  tag_48\n  jumpi\n    /* \"#utility.yul\":532:536   */\n  0x7f\n    /* \"#utility.yul\":524:530   */\n  dup3\n    /* \"#utility.yul\":520:537   */\n  and\n    /* \"#utility.yul\":510:537   */\n  swap2\n  pop\n    /* \"#utility.yul\":478:539   */\ntag_48:\n    /* \"#utility.yul\":585:587   */\n  0x20\n    /* \"#utility.yul\":577:583   */\n  dup3\n    /* \"#utility.yul\":574:588   */\n  lt\n    /* \"#utility.yul\":554:572   */\n  dup2\n    /* \"#utility.yul\":551:589   */\n  sub\n    /* \"#utility.yul\":548:709   */\n  tag_49\n  jumpi\n    /* \"#utility.yul\":631:641   */\n  0x4e487b71\n    /* \"#utility.yul\":626:629   */\n  0xe0\n    /* \"#utility.yul\":622:642   */\n  shl\n    /* \"#utility.yul\":619:620   */\n  0x00\n    /* \"#utility.yul\":612:643   */\n  mstore\n    /* \"#utility.yul\":666:670   */\n  0x22\n    /* \"#utility.yul\":663:664   */\n  0x04\n    /* \"#utility.yul\":656:671   */\n  mstore\n    /* \"#utility.yul\":694:698   */\n  0x24\n    /* \"#utility.yul\":691:692   */\n  0x00\n    /* \"#utility.yul\":684:699   */\n  revert\n    /* \"#utility.yul\":548:709   */\ntag_49:\n  pop\n    /* \"#utility.yul\":335:715   */\n  swap2\n  swap1\n  pop\n  jump\t// out\n    /* \"#utility.yul\":846:1391   */\ntag_38:\n    /* \"#utility.yul\":948:950   */\n  0x1f\n    /* \"#utility.yul\":943:946   */\n  dup3\n    /* \"#utility.yul\":940:951   */\n  gt\n    /* \"#utility.yul\":937:1385   */\n  iszero\n  tag_26\n  jumpi\n    /* \"#utility.yul\":984:985   */\n  0x00\n    /* \"#utility.yul\":1009:1014   */\n  dup2\n    /* \"#utility.yul\":1005:1007   */\n  dup2\n    /* \"#utility.yul\":998:1015   */\n  mstore\n    /* \"#utility.yul\":1054:1058   */\n  0x20\n    /* \"#utility.yul\":1050:1052   */\n  dup2\n    /* \"#utility.yul\":1040:1059   */\n  keccak256\n    /* \"#utility.yul\":1124:1126   */\n  0x1f\n    /* \"#utility.yul\":1112:1122   */\n  dup6\n    /* \"#utility.yul\":1108:1127   */\n  add\n    /* \"#utility.yul\":1105:1106   */\n  0x05\n    /* \"#utility.yul\":1101:1128   */\n  shr\n    /* \"#utility.yul\":1095:1099   */\n  dup2\n    /* \"#utility.yul\":1091:1129   */\n  add\n    /* \"#utility.yul\":1160:1164   */\n  0x20\n    /* \"#utility.yul\":1148:1158   */\n  dup7\n    /* \"#utility.yul\":1145:1165   */\n  lt\n    /* \"#utility.yul\":1142:1189   */\n  iszero\n  tag_53\n  jumpi\n  pop\n    /* \"#utility.yul\":1183:1187   */\n  dup1\n    /* \"#utility.yul\":1142:1189   */\ntag_53:\n    /* \"#utility.yul\":1238:1240   */\n  0x1f\n    /* \"#utility.yul\":1233:1236   */\n  dup6\n    /* \"#utility.yul\":1229:1241   */\n  add\n    /* \"#utility.yul\":1226:1227   */\n  0x05\n    /* \"#utility.yul\":1222:1242   */\n  shr\n    /* \"#utility.yul\":1216:1220   */\n  dup3\n    /* \"#utility.yul\":1212:1243   */\n  add\n    /* \"#utility.yul\":1202:1243   */\n  swap2\n  pop\n    /* \"#utility.yul\":1293:1375   */\ntag_54:\n    /* \"#utility.yul\":1311:1313   */\n  dup2\n    /* \"#utility.yul\":1304:1309   */\n  dup2\n    /* \"#utility.yul\":1301:1314   */\n  lt\n    /* \"#utility.yul\":1293:1375   */\n  iszero\n  tag_56\n  jumpi\n    /* \"#utility.yul\":1356:1373   */\n  dup3\n  dup2\n  sstore\n    /* \"#utility.yul\":1337:1338   */\n  0x01\n    /* \"#utility.yul\":1326:1339   */\n  add\n    /* \"#utility.yul\":1293:1375   */\n  jump(tag_54)\ntag_56:\n    /* \"#utility.yul\":1297:1300   */\n  pop\n  pop\n  pop\n    /* \"#utility.yul\":846:1391   */\n  pop\n  pop\n  pop\n  jump\t// out\n    /* \"#utility.yul\":1567:2919   */\ntag_8:\n    /* \"#utility.yul\":1687:1697   */\n  dup2\n  mload\n  sub(shl(0x40, 0x01), 0x01)\n    /* \"#utility.yul\":1709:1739   */\n  dup2\n  gt\n    /* \"#utility.yul\":1706:1762   */\n  iszero\n  tag_60\n  jumpi\n    /* \"#utility.yul\":1742:1760   */\n  tag_60\n  tag_35\n  jump\t// in\ntag_60:\n    /* \"#utility.yul\":1771:1868   */\n  tag_61\n    /* \"#utility.yul\":1861:1867   */\n  dup2\n    /* \"#utility.yul\":1821:1859   */\n  tag_62\n    /* \"#utility.yul\":1853:1857   */\n  dup5\n    /* \"#utility.yul\":1847:1858   */\n  sload\n    /* \"#utility.yul\":1821:1859   */\n  tag_36\n  jump\t// in\ntag_62:\n    /* \"#utility.yul\":1815:1819   */\n  dup5\n    /* \"#utility.yul\":1771:1868   */\n  tag_38\n  jump\t// in\ntag_61:\n    /* \"#utility.yul\":1923:1927   */\n  0x20\n  dup1\n    /* \"#utility.yul\":1987:1989   */\n  0x1f\n    /* \"#utility.yul\":1976:1990   */\n  dup4\n  gt\n    /* \"#utility.yul\":2004:2005   */\n  0x01\n    /* \"#utility.yul\":1999:2662   */\n  dup2\n  eq\n  tag_64\n  jumpi\n    /* \"#utility.yul\":2706:2707   */\n  0x00\n    /* \"#utility.yul\":2723:2729   */\n  dup5\n    /* \"#utility.yul\":2720:2809   */\n  iszero\n  tag_65\n  jumpi\n  pop\n    /* \"#utility.yul\":2775:2794   */\n  dup6\n  dup4\n  add\n    /* \"#utility.yul\":2769:2795   */\n  mload\n    /* \"#utility.yul\":2720:2809   */\ntag_65:\n  not(0x00)\n    /* \"#utility.yul\":1524:1525   */\n  0x03\n    /* \"#utility.yul\":1520:1531   */\n  dup7\n  swap1\n  shl\n    /* \"#utility.yul\":1516:1540   */\n  shr\n    /* \"#utility.yul\":1512:1541   */\n  not\n    /* \"#utility.yul\":1502:1542   */\n  and\n    /* \"#utility.yul\":1548:1549   */\n  0x01\n    /* \"#utility.yul\":1544:1555   */\n  dup6\n  swap1\n  shl\n    /* \"#utility.yul\":1499:1556   */\n  or\n    /* \"#utility.yul\":2822:2903   */\n  dup6\n  sstore\n    /* \"#utility.yul\":1969:2913   */\n  jump(tag_56)\n    /* \"#utility.yul\":1999:2662   */\ntag_64:\n    /* \"#utility.yul\":793:794   */\n  0x00\n    /* \"#utility.yul\":786:800   */\n  dup6\n  dup2\n  mstore\n    /* \"#utility.yul\":830:834   */\n  0x20\n    /* \"#utility.yul\":817:835   */\n  dup2\n  keccak256\n  not(0x1f)\n    /* \"#utility.yul\":2035:2055   */\n  dup7\n  and\n  swap2\n    /* \"#utility.yul\":2153:2389   */\ntag_68:\n    /* \"#utility.yul\":2167:2174   */\n  dup3\n    /* \"#utility.yul\":2164:2165   */\n  dup2\n    /* \"#utility.yul\":2161:2175   */\n  lt\n    /* \"#utility.yul\":2153:2389   */\n  iszero\n  tag_70\n  jumpi\n    /* \"#utility.yul\":2256:2275   */\n  dup9\n  dup7\n  add\n    /* \"#utility.yul\":2250:2276   */\n  mload\n    /* \"#utility.yul\":2235:2277   */\n  dup3\n  sstore\n    /* \"#utility.yul\":2348:2375   */\n  swap5\n  dup5\n  add\n  swap5\n    /* \"#utility.yul\":2316:2317   */\n  0x01\n    /* \"#utility.yul\":2304:2318   */\n  swap1\n  swap2\n  add\n  swap1\n    /* \"#utility.yul\":2183:2202   */\n  dup5\n  add\n    /* \"#utility.yul\":2153:2389   */\n  jump(tag_68)\ntag_70:\n    /* \"#utility.yul\":2157:2160   */\n  pop\n    /* \"#utility.yul\":2417:2423   */\n  dup6\n    /* \"#utility.yul\":2408:2415   */\n  dup3\n    /* \"#utility.yul\":2405:2424   */\n  lt\n    /* \"#utility.yul\":2402:2603   */\n  iszero\n  tag_71\n  jumpi\n    /* \"#utility.yul\":2478:2497   */\n  dup8\n  dup6\n  add\n    /* \"#utility.yul\":2472:2498   */\n  mload\n  not(0x00)\n    /* \"#utility.yul\":2561:2562   */\n  0x03\n    /* \"#utility.yul\":2557:2571   */\n  dup9\n  swap1\n  shl\n    /* \"#utility.yul\":2573:2576   */\n  0xf8\n    /* \"#utility.yul\":2553:2577   */\n  and\n    /* \"#utility.yul\":2549:2586   */\n  shr\n    /* \"#utility.yul\":2545:2587   */\n  not\n    /* \"#utility.yul\":2530:2588   */\n  and\n    /* \"#utility.yul\":2515:2589   */\n  dup2\n  sstore\n    /* \"#utility.yul\":2402:2603   */\ntag_71:\n  pop\n  pop\n  pop\n  pop\n  pop\n    /* \"#utility.yul\":2649:2650   */\n  0x01\n    /* \"#utility.yul\":2633:2647   */\n  swap1\n  dup2\n  shl\n    /* \"#utility.yul\":2629:2651   */\n  add\n    /* \"#utility.yul\":2616:2652   */\n  swap1\n  sstore\n  pop\n    /* \"#utility.yul\":1567:2919   */\n  jump\t// out\n    /* \"#utility.yul\":2924:3051   */\ntag_40:\n    /* \"#utility.yul\":2985:2995   */\n  0x4e487b71\n    /* \"#utility.yul\":2980:2983   */\n  0xe0\n    /* \"#utility.yul\":2976:2996   */\n  shl\n    /* \"#utility.yul\":2973:2974   */\n  0x00\n    /* \"#utility.yul\":2966:2997   */\n  mstore\n    /* \"#utility.yul\":3016:3020   */\n  0x11\n    /* \"#utility.yul\":3013:3014   */\n  0x04\n    /* \"#utility.yul\":3006:3021   */\n  mstore\n    /* \"#utility.yul\":3040:3044   */\n  0x24\n    /* \"#utility.yul\":3037:3038   */\n  0x00\n    /* \"#utility.yul\":3030:3045   */\n  revert\n    /* \"#utility.yul\":3056:3478   */\ntag_41:\n    /* \"#utility.yul\":3145:3146   */\n  0x01\n    /* \"#utility.yul\":3188:3193   */\n  dup2\n    /* \"#utility.yul\":3145:3146   */\n  dup2\n    /* \"#utility.yul\":3202:3472   */\ntag_74:\n    /* \"#utility.yul\":3223:3230   */\n  dup1\n    /* \"#utility.yul\":3213:3221   */\n  dup6\n    /* \"#utility.yul\":3210:3231   */\n  gt\n    /* \"#utility.yul\":3202:3472   */\n  iszero\n  tag_76\n  jumpi\n    /* \"#utility.yul\":3282:3286   */\n  dup2\n    /* \"#utility.yul\":3278:3279   */\n  0x00\n    /* \"#utility.yul\":3274:3280   */\n  not\n    /* \"#utility.yul\":3270:3287   */\n  div\n    /* \"#utility.yul\":3264:3268   */\n  dup3\n    /* \"#utility.yul\":3261:3288   */\n  gt\n    /* \"#utility.yul\":3258:3311   */\n  iszero\n  tag_78\n  jumpi\n    /* \"#utility.yul\":3291:3309   */\n  tag_78\n  tag_40\n  jump\t// in\ntag_78:\n    /* \"#utility.yul\":3341:3348   */\n  dup1\n    /* \"#utility.yul\":3331:3339   */\n  dup6\n    /* \"#utility.yul\":3327:3349   */\n  and\n    /* \"#utility.yul\":3324:3379   */\n  iszero\n  tag_79\n  jumpi\n    /* \"#utility.yul\":3361:3377   */\n  swap2\n  dup2\n  mul\n  swap2\n    /* \"#utility.yul\":3324:3379   */\ntag_79:\n    /* \"#utility.yul\":3440:3462   */\n  swap4\n  dup5\n  shr\n  swap4\n    /* \"#utility.yul\":3400:3415   */\n  swap1\n  dup1\n  mul\n  swap1\n    /* \"#utility.yul\":3202:3472   */\n  jump(tag_74)\ntag_76:\n    /* \"#utility.yul\":3206:3209   */\n  pop\n    /* \"#utility.yul\":3056:3478   */\n  swap3\n  pop\n  swap3\n  swap1\n  pop\n  jump\t// out\n    /* \"#utility.yul\":3483:4289   */\ntag_42:\n    /* \"#utility.yul\":3532:3537   */\n  0x00\n    /* \"#utility.yul\":3562:3570   */\n  dup3\n    /* \"#utility.yul\":3552:3632   */\n  tag_81\n  jumpi\n  pop\n    /* \"#utility.yul\":3603:3604   */\n  0x01\n    /* \"#utility.yul\":3617:3622   */\n  jump(tag_80)\n    /* \"#utility.yul\":3552:3632   */\ntag_81:\n    /* \"#utility.yul\":3651:3655   */\n  dup2\n    /* \"#utility.yul\":3641:3717   */\n  tag_82\n  jumpi\n  pop\n    /* \"#utility.yul\":3688:3689   */\n  0x00\n    /* \"#utility.yul\":3702:3707   */\n  jump(tag_80)\n    /* \"#utility.yul\":3641:3717   */\ntag_82:\n    /* \"#utility.yul\":3733:3737   */\n  dup2\n    /* \"#utility.yul\":3751:3752   */\n  0x01\n    /* \"#utility.yul\":3746:3805   */\n  dup2\n  eq\n  tag_84\n  jumpi\n    /* \"#utility.yul\":3819:3820   */\n  0x02\n    /* \"#utility.yul\":3814:3944   */\n  dup2\n  eq\n  tag_85\n  jumpi\n    /* \"#utility.yul\":3726:3944   */\n  jump(tag_83)\n    /* \"#utility.yul\":3746:3805   */\ntag_84:\n    /* \"#utility.yul\":3776:3777   */\n  0x01\n    /* \"#utility.yul\":3767:3777   */\n  swap2\n  pop\n    /* \"#utility.yul\":3790:3795   */\n  pop\n  jump(tag_80)\n    /* \"#utility.yul\":3814:3944   */\ntag_85:\n    /* \"#utility.yul\":3851:3854   */\n  0xff\n    /* \"#utility.yul\":3841:3849   */\n  dup5\n    /* \"#utility.yul\":3838:3855   */\n  gt\n    /* \"#utility.yul\":3835:3878   */\n  iszero\n  tag_87\n  jumpi\n    /* \"#utility.yul\":3858:3876   */\n  tag_87\n  tag_40\n  jump\t// in\ntag_87:\n  pop\n  pop\n    /* \"#utility.yul\":3914:3915   */\n  0x01\n    /* \"#utility.yul\":3900:3916   */\n  dup3\n  shl\n    /* \"#utility.yul\":3929:3934   */\n  jump(tag_80)\n    /* \"#utility.yul\":3726:3944   */\ntag_83:\n  pop\n    /* \"#utility.yul\":4028:4030   */\n  0x20\n    /* \"#utility.yul\":4018:4026   */\n  dup4\n    /* \"#utility.yul\":4015:4031   */\n  lt\n    /* \"#utility.yul\":4009:4012   */\n  0x0133\n    /* \"#utility.yul\":4003:4007   */\n  dup4\n    /* \"#utility.yul\":4000:4013   */\n  lt\n    /* \"#utility.yul\":3996:4032   */\n  and\n    /* \"#utility.yul\":3990:3992   */\n  0x4e\n    /* \"#utility.yul\":3980:3988   */\n  dup5\n    /* \"#utility.yul\":3977:3993   */\n  lt\n    /* \"#utility.yul\":3972:3974   */\n  0x0b\n    /* \"#utility.yul\":3966:3970   */\n  dup5\n    /* \"#utility.yul\":3963:3975   */\n  lt\n    /* \"#utility.yul\":3959:3994   */\n  and\n    /* \"#utility.yul\":3956:4033   */\n  or\n    /* \"#utility.yul\":3953:4112   */\n  iszero\n  tag_88\n  jumpi\n  pop\n    /* \"#utility.yul\":4065:4084   */\n  dup2\n  dup2\n  exp\n    /* \"#utility.yul\":4097:4102   */\n  jump(tag_80)\n    /* \"#utility.yul\":3953:4112   */\ntag_88:\n    /* \"#utility.yul\":4144:4178   */\n  tag_89\n    /* \"#utility.yul\":4169:4177   */\n  dup4\n    /* \"#utility.yul\":4163:4167   */\n  dup4\n    /* \"#utility.yul\":4144:4178   */\n  tag_41\n  jump\t// in\ntag_89:\n    /* \"#utility.yul\":4214:4220   */\n  dup1\n    /* \"#utility.yul\":4210:4211   */\n  0x00\n    /* \"#utility.yul\":4206:4212   */\n  not\n    /* \"#utility.yul\":4202:4221   */\n  div\n    /* \"#utility.yul\":4193:4200   */\n  dup3\n    /* \"#utility.yul\":4190:4222   */\n  gt\n    /* \"#utility.yul\":4187:4245   */\n  iszero\n  tag_91\n  jumpi\n    /* \"#utility.yul\":4225:4243   */\n  tag_91\n  tag_40\n  jump\t// in\ntag_91:\n    /* \"#utility.yul\":4263:4283   */\n  mul\n  swap1\n  pop\n    /* \"#utility.yul\":3483:4289   */\ntag_80:\n  swap3\n  swap2\n  pop\n  pop\n  jump\t// out\n    /* \"#utility.yul\":4294:4434   */\ntag_14:\n    /* \"#utility.yul\":4352:4357   */\n  0x00\n    /* \"#utility.yul\":4381:4428   */\n  tag_93\n    /* \"#utility.yul\":4422:4426   */\n  0xff\n    /* \"#utility.yul\":4412:4420   */\n  dup5\n    /* \"#utility.yul\":4408:4427   */\n  and\n    /* \"#utility.yul\":4402:4406   */\n  dup4\n    /* \"#utility.yul\":4381:4428   */\n  tag_42\n  jump\t// in\ntag_93:\n    /* \"#utility.yul\":4372:4428   */\n  swap4\n    /* \"#utility.yul\":4294:4434   */\n  swap3\n  pop\n  pop\n  pop\n  jump\t// out\n    /* \"#utility.yul\":4439:4607   */\ntag_16:\n    /* \"#utility.yul\":4512:4521   */\n  dup1\n  dup3\n  mul\n    /* \"#utility.yul\":4543:4552   */\n  dup2\n  iszero\n    /* \"#utility.yul\":4560:4575   */\n  dup3\n  dup3\n  div\n    /* \"#utility.yul\":4554:4576   */\n  dup5\n  eq\n    /* \"#utility.yul\":4540:4577   */\n  or\n    /* \"#utility.yul\":4530:4601   */\n  tag_80\n  jumpi\n    /* \"#utility.yul\":4581:4599   */\n  tag_80\n  tag_40\n  jump\t// in\n    /* \"#utility.yul\":4972:5097   */\ntag_28:\n    /* \"#utility.yul\":5037:5046   */\n  dup1\n  dup3\n  add\n    /* \"#utility.yul\":5058:5068   */\n  dup1\n  dup3\n  gt\n    /* \"#utility.yul\":5055:5091   */\n  iszero\n  tag_80\n  jumpi\n    /* \"#utility.yul\":5071:5089   */\n  tag_80\n  tag_40\n  jump\t// in\n    /* \"#utility.yul\":5102:5279   */\ntag_43:\n    /* \"durakToken.sol\":114:789  contract durakToken is ERC20 {... */\n  dataSize(sub_0)\n  dup1\n  dataOffset(sub_0)\n  0x00\n  codecopy\n  0x00\n  return\nstop\n\nsub_0: assembly {\n        /* \"durakToken.sol\":114:789  contract durakToken is ERC20 {... */\n      mstore(0x40, 0x80)\n      jumpi(tag_1, lt(calldatasize, 0x04))\n      shr(0xe0, calldataload(0x00))\n      dup1\n      0x70a08231\n      gt\n      tag_17\n      jumpi\n      dup1\n      0xa457c2d7\n      gt\n      tag_18\n      jumpi\n      dup1\n      0xa457c2d7\n      eq\n      tag_13\n      jumpi\n      dup1\n      0xa9059cbb\n      eq\n      tag_14\n      jumpi\n      dup1\n      0xd0febe4c\n      eq\n      tag_15\n      jumpi\n      dup1\n      0xdd62ed3e\n      eq\n      tag_16\n      jumpi\n      0x00\n      dup1\n      revert\n    tag_18:\n      dup1\n      0x70a08231\n      eq\n      tag_9\n      jumpi\n      dup1\n      0x8da5cb5b\n      eq\n      tag_10\n      jumpi\n      dup1\n      0x95d89b41\n      eq\n      tag_11\n      jumpi\n      dup1\n      0x97304ced\n      eq\n      tag_12\n      jumpi\n      0x00\n      dup1\n      revert\n    tag_17:\n      dup1\n      0x23b872dd\n      gt\n      tag_19\n      jumpi\n      dup1\n      0x23b872dd\n      eq\n      tag_5\n      jumpi\n      dup1\n      0x313ce567\n      eq\n      tag_6\n      jumpi\n      dup1\n      0x378dc3dc\n      eq\n      tag_7\n      jumpi\n      dup1\n      0x39509351\n      eq\n      tag_8\n      jumpi\n      0x00\n      dup1\n      revert\n    tag_19:\n      dup1\n      0x06fdde03\n      eq\n      tag_2\n      jumpi\n      dup1\n      0x095ea7b3\n      eq\n      tag_3\n      jumpi\n      dup1\n      0x18160ddd\n      eq\n      tag_4\n      jumpi\n    tag_1:\n      0x00\n      dup1\n      revert\n        /* \"@openzeppelin/contracts/token/ERC20/ERC20.sol\":2158:2256   */\n    tag_2:\n      callvalue\n      dup1\n      iszero\n      tag_20\n      jumpi\n      0x00\n      dup1\n      revert\n    tag_20:\n      pop\n      tag_21\n      tag_22\n      jump\t// in\n    tag_21:\n      mload(0x40)\n      tag_23\n      swap2\n      swap1\n      tag_24\n      jump\t// in\n    tag_23:\n      mload(0x40)\n      dup1\n      swap2\n      sub\n      swap1\n      return\n        /* \"@openzeppelin/contracts/token/ERC20/ERC20.sol\":4444:4641   */\n    tag_3:\n      callvalue\n      dup1\n      iszero\n      tag_25\n      jumpi\n      0x00\n      dup1\n      revert\n    tag_25:\n      pop\n      tag_26\n      tag_27\n      calldatasize\n      0x04\n      tag_28\n      jump\t// in\n    tag_27:\n      tag_29\n      jump\t// in\n    tag_26:\n      mload(0x40)\n        /* \"#utility.yul\":1192:1206   */\n      swap1\n      iszero\n        /* \"#utility.yul\":1185:1207   */\n      iszero\n        /* \"#utility.yul\":1167:1208   */\n      dup2\n      mstore\n        /* \"#utility.yul\":1155:1157   */\n      0x20\n        /* \"#utility.yul\":1140:1158   */\n      add\n        /* \"@openzeppelin/contracts/token/ERC20/ERC20.sol\":4444:4641   */\n      tag_23\n        /* \"#utility.yul\":1027:1214   */\n      jump\n        /* \"@openzeppelin/contracts/token/ERC20/ERC20.sol\":3255:3361   */\n    tag_4:\n      callvalue\n      dup1\n      iszero\n      tag_32\n      jumpi\n      0x00\n      dup1\n      revert\n    tag_32:\n      pop\n        /* \"@openzeppelin/contracts/token/ERC20/ERC20.sol\":3342:3354   */\n      sload(0x02)\n        /* \"@openzeppelin/contracts/token/ERC20/ERC20.sol\":3255:3361   */\n    tag_33:\n      mload(0x40)\n        /* \"#utility.yul\":1365:1390   */\n      swap1\n      dup2\n      mstore\n        /* \"#utility.yul\":1353:1355   */\n      0x20\n        /* \"#utility.yul\":1338:1356   */\n      add\n        /* \"@openzeppelin/contracts/token/ERC20/ERC20.sol\":3255:3361   */\n      tag_23\n        /* \"#utility.yul\":1219:1396   */\n      jump\n        /* \"@openzeppelin/contracts/token/ERC20/ERC20.sol\":5203:5459   */\n    tag_5:\n      callvalue\n      dup1\n      iszero\n      tag_37\n      jumpi\n      0x00\n      dup1\n      revert\n    tag_37:\n      pop\n      tag_26\n      tag_39\n      calldatasize\n      0x04\n      tag_40\n      jump\t// in\n    tag_39:\n      tag_41\n      jump\t// in\n        /* \"@openzeppelin/contracts/token/ERC20/ERC20.sol\":3104:3195   */\n    tag_6:\n      callvalue\n      dup1\n      iszero\n      tag_43\n      jumpi\n      0x00\n      dup1\n      revert\n    tag_43:\n      pop\n      mload(0x40)\n        /* \"@openzeppelin/contracts/token/ERC20/ERC20.sol\":3186:3188   */\n      0x12\n        /* \"#utility.yul\":1876:1912   */\n      dup2\n      mstore\n        /* \"#utility.yul\":1864:1866   */\n      0x20\n        /* \"#utility.yul\":1849:1867   */\n      add\n        /* \"@openzeppelin/contracts/token/ERC20/ERC20.sol\":3104:3195   */\n      tag_23\n        /* \"#utility.yul\":1734:1918   */\n      jump\n        /* \"durakToken.sol\":175:203  uint256 public initialSupply */\n    tag_7:\n      callvalue\n      dup1\n      iszero\n      tag_48\n      jumpi\n      0x00\n      dup1\n      revert\n    tag_48:\n      pop\n      tag_33\n      sload(0x06)\n      dup2\n      jump\n        /* \"@openzeppelin/contracts/token/ERC20/ERC20.sol\":5854:6088   */\n    tag_8:\n      callvalue\n      dup1\n      iszero\n      tag_52\n      jumpi\n      0x00\n      dup1\n      revert\n    tag_52:\n      pop\n      tag_26\n      tag_54\n      calldatasize\n      0x04\n      tag_28\n      jump\t// in\n    tag_54:\n      tag_55\n      jump\t// in\n        /* \"@openzeppelin/contracts/token/ERC20/ERC20.sol\":3419:3544   */\n    tag_9:\n      callvalue\n      dup1\n      iszero\n      tag_57\n      jumpi\n      0x00\n      dup1\n      revert\n    tag_57:\n      pop\n      tag_33\n      tag_59\n      calldatasize\n      0x04\n      tag_60\n      jump\t// in\n    tag_59:\n      sub(shl(0xa0, 0x01), 0x01)\n        /* \"@openzeppelin/contracts/token/ERC20/ERC20.sol\":3519:3537   */\n      and\n        /* \"@openzeppelin/contracts/token/ERC20/ERC20.sol\":3493:3500   */\n      0x00\n        /* \"@openzeppelin/contracts/token/ERC20/ERC20.sol\":3519:3537   */\n      swap1\n      dup2\n      mstore\n      0x20\n      dup2\n      swap1\n      mstore\n      0x40\n      swap1\n      keccak256\n      sload\n      swap1\n        /* \"@openzeppelin/contracts/token/ERC20/ERC20.sol\":3419:3544   */\n      jump\n        /* \"durakToken.sol\":149:169  address public owner */\n    tag_10:\n      callvalue\n      dup1\n      iszero\n      tag_63\n      jumpi\n      0x00\n      dup1\n      revert\n    tag_63:\n      pop\n      sload(0x05)\n      tag_64\n      swap1\n      sub(shl(0xa0, 0x01), 0x01)\n      and\n      dup2\n      jump\n    tag_64:\n      mload(0x40)\n      sub(shl(0xa0, 0x01), 0x01)\n        /* \"#utility.yul\":2278:2333   */\n      swap1\n      swap2\n      and\n        /* \"#utility.yul\":2260:2334   */\n      dup2\n      mstore\n        /* \"#utility.yul\":2248:2250   */\n      0x20\n        /* \"#utility.yul\":2233:2251   */\n      add\n        /* \"durakToken.sol\":149:169  address public owner */\n      tag_23\n        /* \"#utility.yul\":2114:2340   */\n      jump\n        /* \"@openzeppelin/contracts/token/ERC20/ERC20.sol\":2369:2471   */\n    tag_11:\n      callvalue\n      dup1\n      iszero\n      tag_68\n      jumpi\n      0x00\n      dup1\n      revert\n    tag_68:\n      pop\n      tag_21\n      tag_70\n      jump\t// in\n        /* \"durakToken.sol\":413:565  function mintTokens(uint256 amount) public {... */\n    tag_12:\n      callvalue\n      dup1\n      iszero\n      tag_72\n      jumpi\n      0x00\n      dup1\n      revert\n    tag_72:\n      pop\n      tag_73\n      tag_74\n      calldatasize\n      0x04\n      tag_75\n      jump\t// in\n    tag_74:\n      tag_76\n      jump\t// in\n    tag_73:\n      stop\n        /* \"@openzeppelin/contracts/token/ERC20/ERC20.sol\":6575:7002   */\n    tag_13:\n      callvalue\n      dup1\n      iszero\n      tag_77\n      jumpi\n      0x00\n      dup1\n      revert\n    tag_77:\n      pop\n      tag_26\n      tag_79\n      calldatasize\n      0x04\n      tag_28\n      jump\t// in\n    tag_79:\n      tag_80\n      jump\t// in\n        /* \"@openzeppelin/contracts/token/ERC20/ERC20.sol\":3740:3929   */\n    tag_14:\n      callvalue\n      dup1\n      iszero\n      tag_82\n      jumpi\n      0x00\n      dup1\n      revert\n    tag_82:\n      pop\n      tag_26\n      tag_84\n      calldatasize\n      0x04\n      tag_28\n      jump\t// in\n    tag_84:\n      tag_85\n      jump\t// in\n        /* \"durakToken.sol\":571:787  function buyTokens() public payable {... */\n    tag_15:\n      tag_73\n      tag_88\n      jump\t// in\n        /* \"@openzeppelin/contracts/token/ERC20/ERC20.sol\":3987:4136   */\n    tag_16:\n      callvalue\n      dup1\n      iszero\n      tag_89\n      jumpi\n      0x00\n      dup1\n      revert\n    tag_89:\n      pop\n      tag_33\n      tag_91\n      calldatasize\n      0x04\n      tag_92\n      jump\t// in\n    tag_91:\n      sub(shl(0xa0, 0x01), 0x01)\n        /* \"@openzeppelin/contracts/token/ERC20/ERC20.sol\":4102:4120   */\n      swap2\n      dup3\n      and\n        /* \"@openzeppelin/contracts/token/ERC20/ERC20.sol\":4076:4083   */\n      0x00\n        /* \"@openzeppelin/contracts/token/ERC20/ERC20.sol\":4102:4120   */\n      swap1\n      dup2\n      mstore\n        /* \"@openzeppelin/contracts/token/ERC20/ERC20.sol\":4102:4113   */\n      0x01\n        /* \"@openzeppelin/contracts/token/ERC20/ERC20.sol\":4102:4120   */\n      0x20\n      swap1\n      dup2\n      mstore\n      0x40\n      dup1\n      dup4\n      keccak256\n        /* \"@openzeppelin/contracts/token/ERC20/ERC20.sol\":4102:4129   */\n      swap4\n      swap1\n      swap5\n      and\n      dup3\n      mstore\n      swap2\n      swap1\n      swap2\n      mstore\n      keccak256\n      sload\n      swap1\n        /* \"@openzeppelin/contracts/token/ERC20/ERC20.sol\":3987:4136   */\n      jump\n        /* \"@openzeppelin/contracts/token/ERC20/ERC20.sol\":2158:2256   */\n    tag_22:\n        /* \"@openzeppelin/contracts/token/ERC20/ERC20.sol\":2212:2225   */\n      0x60\n        /* \"@openzeppelin/contracts/token/ERC20/ERC20.sol\":2244:2249   */\n      0x03\n        /* \"@openzeppelin/contracts/token/ERC20/ERC20.sol\":2237:2249   */\n      dup1\n      sload\n      tag_96\n      swap1\n      tag_97\n      jump\t// in\n    tag_96:\n      dup1\n      0x1f\n      add\n      0x20\n      dup1\n      swap2\n      div\n      mul\n      0x20\n      add\n      mload(0x40)\n      swap1\n      dup2\n      add\n      0x40\n      mstore\n      dup1\n      swap3\n      swap2\n      swap1\n      dup2\n      dup2\n      mstore\n      0x20\n      add\n      dup3\n      dup1\n      sload\n      tag_98\n      swap1\n      tag_97\n      jump\t// in\n    tag_98:\n      dup1\n      iszero\n      tag_99\n      jumpi\n      dup1\n      0x1f\n      lt\n      tag_100\n      jumpi\n      0x0100\n      dup1\n      dup4\n      sload\n      div\n      mul\n      dup4\n      mstore\n      swap2\n      0x20\n      add\n      swap2\n      jump(tag_99)\n    tag_100:\n      dup3\n      add\n      swap2\n      swap1\n      0x00\n      mstore\n      keccak256(0x00, 0x20)\n      swap1\n    tag_101:\n      dup2\n      sload\n      dup2\n      mstore\n      swap1\n      0x01\n      add\n      swap1\n      0x20\n      add\n      dup1\n      dup4\n      gt\n      tag_101\n      jumpi\n      dup3\n      swap1\n      sub\n      0x1f\n      and\n      dup3\n      add\n      swap2\n    tag_99:\n      pop\n      pop\n      pop\n      pop\n      pop\n      swap1\n      pop\n        /* \"@openzeppelin/contracts/token/ERC20/ERC20.sol\":2158:2256   */\n      swap1\n      jump\t// out\n        /* \"@openzeppelin/contracts/token/ERC20/ERC20.sol\":4444:4641   */\n    tag_29:\n        /* \"@openzeppelin/contracts/token/ERC20/ERC20.sol\":4527:4531   */\n      0x00\n        /* \"@openzeppelin/contracts/utils/Context.sol\":719:729   */\n      caller\n        /* \"@openzeppelin/contracts/token/ERC20/ERC20.sol\":4581:4613   */\n      tag_105\n        /* \"@openzeppelin/contracts/utils/Context.sol\":719:729   */\n      dup2\n        /* \"@openzeppelin/contracts/token/ERC20/ERC20.sol\":4597:4604   */\n      dup6\n        /* \"@openzeppelin/contracts/token/ERC20/ERC20.sol\":4606:4612   */\n      dup6\n        /* \"@openzeppelin/contracts/token/ERC20/ERC20.sol\":4581:4589   */\n      tag_106\n        /* \"@openzeppelin/contracts/token/ERC20/ERC20.sol\":4581:4613   */\n      jump\t// in\n    tag_105:\n        /* \"@openzeppelin/contracts/token/ERC20/ERC20.sol\":4630:4634   */\n      0x01\n        /* \"@openzeppelin/contracts/token/ERC20/ERC20.sol\":4623:4634   */\n      swap2\n      pop\n      pop\n        /* \"@openzeppelin/contracts/token/ERC20/ERC20.sol\":4444:4641   */\n    tag_102:\n      swap3\n      swap2\n      pop\n      pop\n      jump\t// out\n        /* \"@openzeppelin/contracts/token/ERC20/ERC20.sol\":5203:5459   */\n    tag_41:\n        /* \"@openzeppelin/contracts/token/ERC20/ERC20.sol\":5300:5304   */\n      0x00\n        /* \"@openzeppelin/contracts/utils/Context.sol\":719:729   */\n      caller\n        /* \"@openzeppelin/contracts/token/ERC20/ERC20.sol\":5356:5394   */\n      tag_110\n        /* \"@openzeppelin/contracts/token/ERC20/ERC20.sol\":5372:5376   */\n      dup6\n        /* \"@openzeppelin/contracts/utils/Context.sol\":719:729   */\n      dup3\n        /* \"@openzeppelin/contracts/token/ERC20/ERC20.sol\":5387:5393   */\n      dup6\n        /* \"@openzeppelin/contracts/token/ERC20/ERC20.sol\":5356:5371   */\n      tag_111\n        /* \"@openzeppelin/contracts/token/ERC20/ERC20.sol\":5356:5394   */\n      jump\t// in\n    tag_110:\n        /* \"@openzeppelin/contracts/token/ERC20/ERC20.sol\":5404:5431   */\n      tag_112\n        /* \"@openzeppelin/contracts/token/ERC20/ERC20.sol\":5414:5418   */\n      dup6\n        /* \"@openzeppelin/contracts/token/ERC20/ERC20.sol\":5420:5422   */\n      dup6\n        /* \"@openzeppelin/contracts/token/ERC20/ERC20.sol\":5424:5430   */\n      dup6\n        /* \"@openzeppelin/contracts/token/ERC20/ERC20.sol\":5404:5413   */\n      tag_113\n        /* \"@openzeppelin/contracts/token/ERC20/ERC20.sol\":5404:5431   */\n      jump\t// in\n    tag_112:\n      pop\n        /* \"@openzeppelin/contracts/token/ERC20/ERC20.sol\":5448:5452   */\n      0x01\n      swap5\n        /* \"@openzeppelin/contracts/token/ERC20/ERC20.sol\":5203:5459   */\n      swap4\n      pop\n      pop\n      pop\n      pop\n      jump\t// out\n        /* \"@openzeppelin/contracts/token/ERC20/ERC20.sol\":5854:6088   */\n    tag_55:\n        /* \"@openzeppelin/contracts/utils/Context.sol\":719:729   */\n      caller\n        /* \"@openzeppelin/contracts/token/ERC20/ERC20.sol\":5942:5946   */\n      0x00\n        /* \"@openzeppelin/contracts/token/ERC20/ERC20.sol\":4102:4120   */\n      dup2\n      dup2\n      mstore\n        /* \"@openzeppelin/contracts/token/ERC20/ERC20.sol\":4102:4113   */\n      0x01\n        /* \"@openzeppelin/contracts/token/ERC20/ERC20.sol\":4102:4120   */\n      0x20\n      swap1\n      dup2\n      mstore\n      0x40\n      dup1\n      dup4\n      keccak256\n      sub(shl(0xa0, 0x01), 0x01)\n        /* \"@openzeppelin/contracts/token/ERC20/ERC20.sol\":4102:4129   */\n      dup8\n      and\n      dup5\n      mstore\n      swap1\n      swap2\n      mstore\n      dup2\n      keccak256\n      sload\n        /* \"@openzeppelin/contracts/token/ERC20/ERC20.sol\":5942:5946   */\n      swap1\n      swap2\n        /* \"@openzeppelin/contracts/utils/Context.sol\":719:729   */\n      swap1\n        /* \"@openzeppelin/contracts/token/ERC20/ERC20.sol\":5996:6060   */\n      tag_105\n      swap1\n        /* \"@openzeppelin/contracts/utils/Context.sol\":719:729   */\n      dup3\n      swap1\n        /* \"@openzeppelin/contracts/token/ERC20/ERC20.sol\":4102:4129   */\n      dup7\n      swap1\n        /* \"@openzeppelin/contracts/token/ERC20/ERC20.sol\":6021:6059   */\n      tag_119\n      swap1\n        /* \"@openzeppelin/contracts/token/ERC20/ERC20.sol\":6049:6059   */\n      dup8\n      swap1\n        /* \"@openzeppelin/contracts/token/ERC20/ERC20.sol\":6021:6059   */\n      tag_120\n      jump\t// in\n    tag_119:\n        /* \"@openzeppelin/contracts/token/ERC20/ERC20.sol\":5996:6004   */\n      tag_106\n        /* \"@openzeppelin/contracts/token/ERC20/ERC20.sol\":5996:6060   */\n      jump\t// in\n        /* \"@openzeppelin/contracts/token/ERC20/ERC20.sol\":2369:2471   */\n    tag_70:\n        /* \"@openzeppelin/contracts/token/ERC20/ERC20.sol\":2425:2438   */\n      0x60\n        /* \"@openzeppelin/contracts/token/ERC20/ERC20.sol\":2457:2464   */\n      0x04\n        /* \"@openzeppelin/contracts/token/ERC20/ERC20.sol\":2450:2464   */\n      dup1\n      sload\n      tag_96\n      swap1\n      tag_97\n      jump\t// in\n        /* \"durakToken.sol\":413:565  function mintTokens(uint256 amount) public {... */\n    tag_76:\n        /* \"durakToken.sol\":488:493  owner */\n      and(sub(shl(0xa0, 0x01), 0x01), sload(0x05))\n        /* \"durakToken.sol\":474:484  msg.sender */\n      caller\n        /* \"durakToken.sol\":474:493  msg.sender == owner */\n      eq\n        /* \"durakToken.sol\":466:528  require(msg.sender == owner, \"Only the owner can mint tokens\") */\n      tag_129\n      jumpi\n      mload(0x40)\n      shl(0xe5, 0x461bcd)\n      dup2\n      mstore\n        /* \"#utility.yul\":3644:3646   */\n      0x20\n        /* \"durakToken.sol\":466:528  require(msg.sender == owner, \"Only the owner can mint tokens\") */\n      0x04\n      dup3\n      add\n        /* \"#utility.yul\":3626:3647   */\n      mstore\n        /* \"#utility.yul\":3683:3685   */\n      0x1e\n        /* \"#utility.yul\":3663:3681   */\n      0x24\n      dup3\n      add\n        /* \"#utility.yul\":3656:3686   */\n      mstore\n        /* \"#utility.yul\":3722:3754   */\n      0x4f6e6c7920746865206f776e65722063616e206d696e7420746f6b656e730000\n        /* \"#utility.yul\":3702:3720   */\n      0x44\n      dup3\n      add\n        /* \"#utility.yul\":3695:3755   */\n      mstore\n        /* \"#utility.yul\":3772:3790   */\n      0x64\n      add\n        /* \"durakToken.sol\":466:528  require(msg.sender == owner, \"Only the owner can mint tokens\") */\n    tag_130:\n      mload(0x40)\n      dup1\n      swap2\n      sub\n      swap1\n      revert\n    tag_129:\n        /* \"durakToken.sol\":544:549  owner */\n      sload(0x05)\n        /* \"durakToken.sol\":538:558  _mint(owner, amount) */\n      tag_132\n      swap1\n      sub(shl(0xa0, 0x01), 0x01)\n        /* \"durakToken.sol\":544:549  owner */\n      and\n        /* \"durakToken.sol\":551:557  amount */\n      dup3\n        /* \"durakToken.sol\":538:543  _mint */\n      tag_133\n        /* \"durakToken.sol\":538:558  _mint(owner, amount) */\n      jump\t// in\n    tag_132:\n        /* \"durakToken.sol\":413:565  function mintTokens(uint256 amount) public {... */\n      pop\n      jump\t// out\n        /* \"@openzeppelin/contracts/token/ERC20/ERC20.sol\":6575:7002   */\n    tag_80:\n        /* \"@openzeppelin/contracts/utils/Context.sol\":719:729   */\n      caller\n        /* \"@openzeppelin/contracts/token/ERC20/ERC20.sol\":6668:6672   */\n      0x00\n        /* \"@openzeppelin/contracts/token/ERC20/ERC20.sol\":4102:4120   */\n      dup2\n      dup2\n      mstore\n        /* \"@openzeppelin/contracts/token/ERC20/ERC20.sol\":4102:4113   */\n      0x01\n        /* \"@openzeppelin/contracts/token/ERC20/ERC20.sol\":4102:4120   */\n      0x20\n      swap1\n      dup2\n      mstore\n      0x40\n      dup1\n      dup4\n      keccak256\n      sub(shl(0xa0, 0x01), 0x01)\n        /* \"@openzeppelin/contracts/token/ERC20/ERC20.sol\":4102:4129   */\n      dup8\n      and\n      dup5\n      mstore\n      swap1\n      swap2\n      mstore\n      dup2\n      keccak256\n      sload\n        /* \"@openzeppelin/contracts/token/ERC20/ERC20.sol\":6668:6672   */\n      swap1\n      swap2\n        /* \"@openzeppelin/contracts/utils/Context.sol\":719:729   */\n      swap1\n        /* \"@openzeppelin/contracts/token/ERC20/ERC20.sol\":6812:6827   */\n      dup4\n        /* \"@openzeppelin/contracts/token/ERC20/ERC20.sol\":6792:6808   */\n      dup2\n        /* \"@openzeppelin/contracts/token/ERC20/ERC20.sol\":6792:6827   */\n      lt\n      iszero\n        /* \"@openzeppelin/contracts/token/ERC20/ERC20.sol\":6784:6869   */\n      tag_137\n      jumpi\n      mload(0x40)\n      shl(0xe5, 0x461bcd)\n      dup2\n      mstore\n        /* \"#utility.yul\":4003:4005   */\n      0x20\n        /* \"@openzeppelin/contracts/token/ERC20/ERC20.sol\":6784:6869   */\n      0x04\n      dup3\n      add\n        /* \"#utility.yul\":3985:4006   */\n      mstore\n        /* \"#utility.yul\":4042:4044   */\n      0x25\n        /* \"#utility.yul\":4022:4040   */\n      0x24\n      dup3\n      add\n        /* \"#utility.yul\":4015:4045   */\n      mstore\n        /* \"#utility.yul\":4081:4115   */\n      0x45524332303a2064656372656173656420616c6c6f77616e63652062656c6f77\n        /* \"#utility.yul\":4061:4079   */\n      0x44\n      dup3\n      add\n        /* \"#utility.yul\":4054:4116   */\n      mstore\n        /* \"#utility.yul\":4152:4159   */\n      0x207a65726f000000000000000000000000000000000000000000000000000000\n        /* \"#utility.yul\":4132:4150   */\n      0x64\n      dup3\n      add\n        /* \"#utility.yul\":4125:4160   */\n      mstore\n        /* \"#utility.yul\":4177:4196   */\n      0x84\n      add\n        /* \"@openzeppelin/contracts/token/ERC20/ERC20.sol\":6784:6869   */\n      tag_130\n        /* \"#utility.yul\":3801:4202   */\n      jump\n        /* \"@openzeppelin/contracts/token/ERC20/ERC20.sol\":6784:6869   */\n    tag_137:\n        /* \"@openzeppelin/contracts/token/ERC20/ERC20.sol\":6903:6963   */\n      tag_112\n        /* \"@openzeppelin/contracts/token/ERC20/ERC20.sol\":6912:6917   */\n      dup3\n        /* \"@openzeppelin/contracts/token/ERC20/ERC20.sol\":6919:6926   */\n      dup7\n        /* \"@openzeppelin/contracts/token/ERC20/ERC20.sol\":6947:6962   */\n      dup7\n        /* \"@openzeppelin/contracts/token/ERC20/ERC20.sol\":6928:6944   */\n      dup5\n        /* \"@openzeppelin/contracts/token/ERC20/ERC20.sol\":6928:6962   */\n      sub\n        /* \"@openzeppelin/contracts/token/ERC20/ERC20.sol\":6903:6911   */\n      tag_106\n        /* \"@openzeppelin/contracts/token/ERC20/ERC20.sol\":6903:6963   */\n      jump\t// in\n        /* \"@openzeppelin/contracts/token/ERC20/ERC20.sol\":3740:3929   */\n    tag_85:\n        /* \"@openzeppelin/contracts/token/ERC20/ERC20.sol\":3819:3823   */\n      0x00\n        /* \"@openzeppelin/contracts/utils/Context.sol\":719:729   */\n      caller\n        /* \"@openzeppelin/contracts/token/ERC20/ERC20.sol\":3873:3901   */\n      tag_105\n        /* \"@openzeppelin/contracts/utils/Context.sol\":719:729   */\n      dup2\n        /* \"@openzeppelin/contracts/token/ERC20/ERC20.sol\":3890:3892   */\n      dup6\n        /* \"@openzeppelin/contracts/token/ERC20/ERC20.sol\":3894:3900   */\n      dup6\n        /* \"@openzeppelin/contracts/token/ERC20/ERC20.sol\":3873:3882   */\n      tag_113\n        /* \"@openzeppelin/contracts/token/ERC20/ERC20.sol\":3873:3901   */\n      jump\t// in\n        /* \"durakToken.sol\":571:787  function buyTokens() public payable {... */\n    tag_88:\n        /* \"durakToken.sol\":637:638  0 */\n      0x00\n        /* \"durakToken.sol\":625:634  msg.value */\n      callvalue\n        /* \"durakToken.sol\":625:638  msg.value > 0 */\n      gt\n        /* \"durakToken.sol\":617:670  require(msg.value > 0, \"You need to send some Ether\") */\n      tag_145\n      jumpi\n      mload(0x40)\n      shl(0xe5, 0x461bcd)\n      dup2\n      mstore\n        /* \"#utility.yul\":4409:4411   */\n      0x20\n        /* \"durakToken.sol\":617:670  require(msg.value > 0, \"You need to send some Ether\") */\n      0x04\n      dup3\n      add\n        /* \"#utility.yul\":4391:4412   */\n      mstore\n        /* \"#utility.yul\":4448:4450   */\n      0x1b\n        /* \"#utility.yul\":4428:4446   */\n      0x24\n      dup3\n      add\n        /* \"#utility.yul\":4421:4451   */\n      mstore\n        /* \"#utility.yul\":4487:4516   */\n      0x596f75206e65656420746f2073656e6420736f6d652045746865720000000000\n        /* \"#utility.yul\":4467:4485   */\n      0x44\n      dup3\n      add\n        /* \"#utility.yul\":4460:4517   */\n      mstore\n        /* \"#utility.yul\":4534:4552   */\n      0x64\n      add\n        /* \"durakToken.sol\":617:670  require(msg.value > 0, \"You need to send some Ether\") */\n      tag_130\n        /* \"#utility.yul\":4207:4558   */\n      jump\n        /* \"durakToken.sol\":617:670  require(msg.value > 0, \"You need to send some Ether\") */\n    tag_145:\n        /* \"durakToken.sol\":680:699  uint256 tokensToBuy */\n      0x00\n        /* \"durakToken.sol\":702:718  msg.value * 1000 */\n      tag_148\n        /* \"durakToken.sol\":702:711  msg.value */\n      callvalue\n        /* \"durakToken.sol\":714:718  1000 */\n      0x03e8\n        /* \"durakToken.sol\":702:718  msg.value * 1000 */\n      tag_149\n      jump\t// in\n    tag_148:\n        /* \"durakToken.sol\":680:718  uint256 tokensToBuy = msg.value * 1000 */\n      swap1\n      pop\n        /* \"durakToken.sol\":750:780  _mint(msg.sender, tokensToBuy) */\n      tag_132\n        /* \"durakToken.sol\":756:766  msg.sender */\n      caller\n        /* \"durakToken.sol\":768:779  tokensToBuy */\n      dup3\n        /* \"durakToken.sol\":750:755  _mint */\n      tag_133\n        /* \"durakToken.sol\":750:780  _mint(msg.sender, tokensToBuy) */\n      jump\t// in\n        /* \"@openzeppelin/contracts/token/ERC20/ERC20.sol\":10457:10797   */\n    tag_106:\n      sub(shl(0xa0, 0x01), 0x01)\n        /* \"@openzeppelin/contracts/token/ERC20/ERC20.sol\":10558:10577   */\n      dup4\n      and\n        /* \"@openzeppelin/contracts/token/ERC20/ERC20.sol\":10550:10618   */\n      tag_154\n      jumpi\n      mload(0x40)\n      shl(0xe5, 0x461bcd)\n      dup2\n      mstore\n        /* \"#utility.yul\":4938:4940   */\n      0x20\n        /* \"@openzeppelin/contracts/token/ERC20/ERC20.sol\":10550:10618   */\n      0x04\n      dup3\n      add\n        /* \"#utility.yul\":4920:4941   */\n      mstore\n        /* \"#utility.yul\":4977:4979   */\n      0x24\n        /* \"#utility.yul\":4957:4975   */\n      dup1\n      dup3\n      add\n        /* \"#utility.yul\":4950:4980   */\n      mstore\n        /* \"#utility.yul\":5016:5050   */\n      0x45524332303a20617070726f76652066726f6d20746865207a65726f20616464\n        /* \"#utility.yul\":4996:5014   */\n      0x44\n      dup3\n      add\n        /* \"#utility.yul\":4989:5051   */\n      mstore\n      shl(0xe0, 0x72657373)\n        /* \"#utility.yul\":5067:5085   */\n      0x64\n      dup3\n      add\n        /* \"#utility.yul\":5060:5094   */\n      mstore\n        /* \"#utility.yul\":5111:5130   */\n      0x84\n      add\n        /* \"@openzeppelin/contracts/token/ERC20/ERC20.sol\":10550:10618   */\n      tag_130\n        /* \"#utility.yul\":4736:5136   */\n      jump\n        /* \"@openzeppelin/contracts/token/ERC20/ERC20.sol\":10550:10618   */\n    tag_154:\n      sub(shl(0xa0, 0x01), 0x01)\n        /* \"@openzeppelin/contracts/token/ERC20/ERC20.sol\":10636:10657   */\n      dup3\n      and\n        /* \"@openzeppelin/contracts/token/ERC20/ERC20.sol\":10628:10696   */\n      tag_157\n      jumpi\n      mload(0x40)\n      shl(0xe5, 0x461bcd)\n      dup2\n      mstore\n        /* \"#utility.yul\":5343:5345   */\n      0x20\n        /* \"@openzeppelin/contracts/token/ERC20/ERC20.sol\":10628:10696   */\n      0x04\n      dup3\n      add\n        /* \"#utility.yul\":5325:5346   */\n      mstore\n        /* \"#utility.yul\":5382:5384   */\n      0x22\n        /* \"#utility.yul\":5362:5380   */\n      0x24\n      dup3\n      add\n        /* \"#utility.yul\":5355:5385   */\n      mstore\n        /* \"#utility.yul\":5421:5455   */\n      0x45524332303a20617070726f766520746f20746865207a65726f206164647265\n        /* \"#utility.yul\":5401:5419   */\n      0x44\n      dup3\n      add\n        /* \"#utility.yul\":5394:5456   */\n      mstore\n      shl(0xf0, 0x7373)\n        /* \"#utility.yul\":5472:5490   */\n      0x64\n      dup3\n      add\n        /* \"#utility.yul\":5465:5497   */\n      mstore\n        /* \"#utility.yul\":5514:5533   */\n      0x84\n      add\n        /* \"@openzeppelin/contracts/token/ERC20/ERC20.sol\":10628:10696   */\n      tag_130\n        /* \"#utility.yul\":5141:5539   */\n      jump\n        /* \"@openzeppelin/contracts/token/ERC20/ERC20.sol\":10628:10696   */\n    tag_157:\n      sub(shl(0xa0, 0x01), 0x01)\n        /* \"@openzeppelin/contracts/token/ERC20/ERC20.sol\":10707:10725   */\n      dup4\n      dup2\n      and\n      0x00\n      dup2\n      dup2\n      mstore\n        /* \"@openzeppelin/contracts/token/ERC20/ERC20.sol\":10707:10718   */\n      0x01\n        /* \"@openzeppelin/contracts/token/ERC20/ERC20.sol\":10707:10725   */\n      0x20\n      swap1\n      dup2\n      mstore\n      0x40\n      dup1\n      dup4\n      keccak256\n        /* \"@openzeppelin/contracts/token/ERC20/ERC20.sol\":10707:10734   */\n      swap5\n      dup8\n      and\n      dup1\n      dup5\n      mstore\n      swap5\n      dup3\n      mstore\n      swap2\n      dup3\n      swap1\n      keccak256\n        /* \"@openzeppelin/contracts/token/ERC20/ERC20.sol\":10707:10743   */\n      dup6\n      swap1\n      sstore\n        /* \"@openzeppelin/contracts/token/ERC20/ERC20.sol\":10758:10790   */\n      swap1\n      mload\n        /* \"#utility.yul\":1365:1390   */\n      dup5\n      dup2\n      mstore\n        /* \"@openzeppelin/contracts/token/ERC20/ERC20.sol\":10758:10790   */\n      0x8c5be1e5ebec7d5bd14f71427d1e84f3dd0314c0f7b2291e5b200ac8c7c3b925\n      swap2\n        /* \"#utility.yul\":1338:1356   */\n      add\n        /* \"@openzeppelin/contracts/token/ERC20/ERC20.sol\":10758:10790   */\n      mload(0x40)\n      dup1\n      swap2\n      sub\n      swap1\n      log3\n        /* \"@openzeppelin/contracts/token/ERC20/ERC20.sol\":10457:10797   */\n      pop\n      pop\n      pop\n      jump\t// out\n        /* \"@openzeppelin/contracts/token/ERC20/ERC20.sol\":11078:11489   */\n    tag_111:\n      sub(shl(0xa0, 0x01), 0x01)\n        /* \"@openzeppelin/contracts/token/ERC20/ERC20.sol\":4102:4120   */\n      dup4\n      dup2\n      and\n        /* \"@openzeppelin/contracts/token/ERC20/ERC20.sol\":11178:11202   */\n      0x00\n        /* \"@openzeppelin/contracts/token/ERC20/ERC20.sol\":4102:4120   */\n      swap1\n      dup2\n      mstore\n        /* \"@openzeppelin/contracts/token/ERC20/ERC20.sol\":4102:4113   */\n      0x01\n        /* \"@openzeppelin/contracts/token/ERC20/ERC20.sol\":4102:4120   */\n      0x20\n      swap1\n      dup2\n      mstore\n      0x40\n      dup1\n      dup4\n      keccak256\n        /* \"@openzeppelin/contracts/token/ERC20/ERC20.sol\":4102:4129   */\n      swap4\n      dup7\n      and\n      dup4\n      mstore\n      swap3\n      swap1\n      mstore\n      keccak256\n      sload\n      not(0x00)\n        /* \"@openzeppelin/contracts/token/ERC20/ERC20.sol\":11244:11281   */\n      dup2\n      eq\n        /* \"@openzeppelin/contracts/token/ERC20/ERC20.sol\":11240:11483   */\n      tag_167\n      jumpi\n        /* \"@openzeppelin/contracts/token/ERC20/ERC20.sol\":11325:11331   */\n      dup2\n        /* \"@openzeppelin/contracts/token/ERC20/ERC20.sol\":11305:11321   */\n      dup2\n        /* \"@openzeppelin/contracts/token/ERC20/ERC20.sol\":11305:11331   */\n      lt\n      iszero\n        /* \"@openzeppelin/contracts/token/ERC20/ERC20.sol\":11297:11365   */\n      tag_164\n      jumpi\n      mload(0x40)\n      shl(0xe5, 0x461bcd)\n      dup2\n      mstore\n        /* \"#utility.yul\":5746:5748   */\n      0x20\n        /* \"@openzeppelin/contracts/token/ERC20/ERC20.sol\":11297:11365   */\n      0x04\n      dup3\n      add\n        /* \"#utility.yul\":5728:5749   */\n      mstore\n        /* \"#utility.yul\":5785:5787   */\n      0x1d\n        /* \"#utility.yul\":5765:5783   */\n      0x24\n      dup3\n      add\n        /* \"#utility.yul\":5758:5788   */\n      mstore\n        /* \"#utility.yul\":5824:5855   */\n      0x45524332303a20696e73756666696369656e7420616c6c6f77616e6365000000\n        /* \"#utility.yul\":5804:5822   */\n      0x44\n      dup3\n      add\n        /* \"#utility.yul\":5797:5856   */\n      mstore\n        /* \"#utility.yul\":5873:5891   */\n      0x64\n      add\n        /* \"@openzeppelin/contracts/token/ERC20/ERC20.sol\":11297:11365   */\n      tag_130\n        /* \"#utility.yul\":5544:5897   */\n      jump\n        /* \"@openzeppelin/contracts/token/ERC20/ERC20.sol\":11297:11365   */\n    tag_164:\n        /* \"@openzeppelin/contracts/token/ERC20/ERC20.sol\":11407:11458   */\n      tag_167\n        /* \"@openzeppelin/contracts/token/ERC20/ERC20.sol\":11416:11421   */\n      dup5\n        /* \"@openzeppelin/contracts/token/ERC20/ERC20.sol\":11423:11430   */\n      dup5\n        /* \"@openzeppelin/contracts/token/ERC20/ERC20.sol\":11451:11457   */\n      dup5\n        /* \"@openzeppelin/contracts/token/ERC20/ERC20.sol\":11432:11448   */\n      dup5\n        /* \"@openzeppelin/contracts/token/ERC20/ERC20.sol\":11432:11457   */\n      sub\n        /* \"@openzeppelin/contracts/token/ERC20/ERC20.sol\":11407:11415   */\n      tag_106\n        /* \"@openzeppelin/contracts/token/ERC20/ERC20.sol\":11407:11458   */\n      jump\t// in\n    tag_167:\n        /* \"@openzeppelin/contracts/token/ERC20/ERC20.sol\":11168:11489   */\n      pop\n        /* \"@openzeppelin/contracts/token/ERC20/ERC20.sol\":11078:11489   */\n      pop\n      pop\n      pop\n      jump\t// out\n        /* \"@openzeppelin/contracts/token/ERC20/ERC20.sol\":7456:8244   */\n    tag_113:\n      sub(shl(0xa0, 0x01), 0x01)\n        /* \"@openzeppelin/contracts/token/ERC20/ERC20.sol\":7552:7570   */\n      dup4\n      and\n        /* \"@openzeppelin/contracts/token/ERC20/ERC20.sol\":7544:7612   */\n      tag_169\n      jumpi\n      mload(0x40)\n      shl(0xe5, 0x461bcd)\n      dup2\n      mstore\n        /* \"#utility.yul\":6104:6106   */\n      0x20\n        /* \"@openzeppelin/contracts/token/ERC20/ERC20.sol\":7544:7612   */\n      0x04\n      dup3\n      add\n        /* \"#utility.yul\":6086:6107   */\n      mstore\n        /* \"#utility.yul\":6143:6145   */\n      0x25\n        /* \"#utility.yul\":6123:6141   */\n      0x24\n      dup3\n      add\n        /* \"#utility.yul\":6116:6146   */\n      mstore\n        /* \"#utility.yul\":6182:6216   */\n      0x45524332303a207472616e736665722066726f6d20746865207a65726f206164\n        /* \"#utility.yul\":6162:6180   */\n      0x44\n      dup3\n      add\n        /* \"#utility.yul\":6155:6217   */\n      mstore\n        /* \"#utility.yul\":6253:6260   */\n      0x6472657373000000000000000000000000000000000000000000000000000000\n        /* \"#utility.yul\":6233:6251   */\n      0x64\n      dup3\n      add\n        /* \"#utility.yul\":6226:6261   */\n      mstore\n        /* \"#utility.yul\":6278:6297   */\n      0x84\n      add\n        /* \"@openzeppelin/contracts/token/ERC20/ERC20.sol\":7544:7612   */\n      tag_130\n        /* \"#utility.yul\":5902:6303   */\n      jump\n        /* \"@openzeppelin/contracts/token/ERC20/ERC20.sol\":7544:7612   */\n    tag_169:\n      sub(shl(0xa0, 0x01), 0x01)\n        /* \"@openzeppelin/contracts/token/ERC20/ERC20.sol\":7630:7646   */\n      dup3\n      and\n        /* \"@openzeppelin/contracts/token/ERC20/ERC20.sol\":7622:7686   */\n      tag_172\n      jumpi\n      mload(0x40)\n      shl(0xe5, 0x461bcd)\n      dup2\n      mstore\n        /* \"#utility.yul\":6510:6512   */\n      0x20\n        /* \"@openzeppelin/contracts/token/ERC20/ERC20.sol\":7622:7686   */\n      0x04\n      dup3\n      add\n        /* \"#utility.yul\":6492:6513   */\n      mstore\n        /* \"#utility.yul\":6549:6551   */\n      0x23\n        /* \"#utility.yul\":6529:6547   */\n      0x24\n      dup3\n      add\n        /* \"#utility.yul\":6522:6552   */\n      mstore\n        /* \"#utility.yul\":6588:6622   */\n      0x45524332303a207472616e7366657220746f20746865207a65726f2061646472\n        /* \"#utility.yul\":6568:6586   */\n      0x44\n      dup3\n      add\n        /* \"#utility.yul\":6561:6623   */\n      mstore\n      shl(0xe8, 0x657373)\n        /* \"#utility.yul\":6639:6657   */\n      0x64\n      dup3\n      add\n        /* \"#utility.yul\":6632:6665   */\n      mstore\n        /* \"#utility.yul\":6682:6701   */\n      0x84\n      add\n        /* \"@openzeppelin/contracts/token/ERC20/ERC20.sol\":7622:7686   */\n      tag_130\n        /* \"#utility.yul\":6308:6707   */\n      jump\n        /* \"@openzeppelin/contracts/token/ERC20/ERC20.sol\":7622:7686   */\n    tag_172:\n      sub(shl(0xa0, 0x01), 0x01)\n        /* \"@openzeppelin/contracts/token/ERC20/ERC20.sol\":7768:7783   */\n      dup4\n      and\n        /* \"@openzeppelin/contracts/token/ERC20/ERC20.sol\":7746:7765   */\n      0x00\n        /* \"@openzeppelin/contracts/token/ERC20/ERC20.sol\":7768:7783   */\n      swap1\n      dup2\n      mstore\n      0x20\n      dup2\n      swap1\n      mstore\n      0x40\n      swap1\n      keccak256\n      sload\n        /* \"@openzeppelin/contracts/token/ERC20/ERC20.sol\":7801:7822   */\n      dup2\n      dup2\n      lt\n      iszero\n        /* \"@openzeppelin/contracts/token/ERC20/ERC20.sol\":7793:7865   */\n      tag_177\n      jumpi\n      mload(0x40)\n      shl(0xe5, 0x461bcd)\n      dup2\n      mstore\n        /* \"#utility.yul\":6914:6916   */\n      0x20\n        /* \"@openzeppelin/contracts/token/ERC20/ERC20.sol\":7793:7865   */\n      0x04\n      dup3\n      add\n        /* \"#utility.yul\":6896:6917   */\n      mstore\n        /* \"#utility.yul\":6953:6955   */\n      0x26\n        /* \"#utility.yul\":6933:6951   */\n      0x24\n      dup3\n      add\n        /* \"#utility.yul\":6926:6956   */\n      mstore\n        /* \"#utility.yul\":6992:7026   */\n      0x45524332303a207472616e7366657220616d6f756e7420657863656564732062\n        /* \"#utility.yul\":6972:6990   */\n      0x44\n      dup3\n      add\n        /* \"#utility.yul\":6965:7027   */\n      mstore\n        /* \"#utility.yul\":7063:7071   */\n      0x616c616e63650000000000000000000000000000000000000000000000000000\n        /* \"#utility.yul\":7043:7061   */\n      0x64\n      dup3\n      add\n        /* \"#utility.yul\":7036:7072   */\n      mstore\n        /* \"#utility.yul\":7089:7108   */\n      0x84\n      add\n        /* \"@openzeppelin/contracts/token/ERC20/ERC20.sol\":7793:7865   */\n      tag_130\n        /* \"#utility.yul\":6712:7114   */\n      jump\n        /* \"@openzeppelin/contracts/token/ERC20/ERC20.sol\":7793:7865   */\n    tag_177:\n      sub(shl(0xa0, 0x01), 0x01)\n        /* \"@openzeppelin/contracts/token/ERC20/ERC20.sol\":7899:7914   */\n      dup5\n      dup2\n      and\n        /* \"@openzeppelin/contracts/token/ERC20/ERC20.sol\":7899:7908   */\n      0x00\n        /* \"@openzeppelin/contracts/token/ERC20/ERC20.sol\":7899:7914   */\n      dup2\n      dup2\n      mstore\n      0x20\n      dup2\n      dup2\n      mstore\n      0x40\n      dup1\n      dup4\n      keccak256\n        /* \"@openzeppelin/contracts/token/ERC20/ERC20.sol\":7917:7937   */\n      dup8\n      dup8\n      sub\n        /* \"@openzeppelin/contracts/token/ERC20/ERC20.sol\":7899:7937   */\n      swap1\n      sstore\n        /* \"@openzeppelin/contracts/token/ERC20/ERC20.sol\":8114:8127   */\n      swap4\n      dup8\n      and\n      dup1\n      dup4\n      mstore\n      swap2\n      dup5\n      swap1\n      keccak256\n        /* \"@openzeppelin/contracts/token/ERC20/ERC20.sol\":8114:8137   */\n      dup1\n      sload\n      dup8\n      add\n      swap1\n      sstore\n        /* \"@openzeppelin/contracts/token/ERC20/ERC20.sol\":8163:8189   */\n      swap3\n      mload\n        /* \"#utility.yul\":1365:1390   */\n      dup6\n      dup2\n      mstore\n        /* \"@openzeppelin/contracts/token/ERC20/ERC20.sol\":8114:8127   */\n      swap1\n      swap3\n        /* \"@openzeppelin/contracts/token/ERC20/ERC20.sol\":8163:8189   */\n      0xddf252ad1be2c89b69c2b068fc378daa952ba7f163c4a11628f55a4df523b3ef\n      swap2\n        /* \"#utility.yul\":1338:1356   */\n      add\n        /* \"@openzeppelin/contracts/token/ERC20/ERC20.sol\":8163:8189   */\n      mload(0x40)\n      dup1\n      swap2\n      sub\n      swap1\n      log3\n        /* \"@openzeppelin/contracts/token/ERC20/ERC20.sol\":8200:8237   */\n      tag_167\n        /* \"@openzeppelin/contracts/token/ERC20/ERC20.sol\":12073:12164   */\n      jump\n        /* \"@openzeppelin/contracts/token/ERC20/ERC20.sol\":8520:9055   */\n    tag_133:\n      sub(shl(0xa0, 0x01), 0x01)\n        /* \"@openzeppelin/contracts/token/ERC20/ERC20.sol\":8603:8624   */\n      dup3\n      and\n        /* \"@openzeppelin/contracts/token/ERC20/ERC20.sol\":8595:8660   */\n      tag_184\n      jumpi\n      mload(0x40)\n      shl(0xe5, 0x461bcd)\n      dup2\n      mstore\n        /* \"#utility.yul\":7321:7323   */\n      0x20\n        /* \"@openzeppelin/contracts/token/ERC20/ERC20.sol\":8595:8660   */\n      0x04\n      dup3\n      add\n        /* \"#utility.yul\":7303:7324   */\n      mstore\n        /* \"#utility.yul\":7360:7362   */\n      0x1f\n        /* \"#utility.yul\":7340:7358   */\n      0x24\n      dup3\n      add\n        /* \"#utility.yul\":7333:7363   */\n      mstore\n        /* \"#utility.yul\":7399:7432   */\n      0x45524332303a206d696e7420746f20746865207a65726f206164647265737300\n        /* \"#utility.yul\":7379:7397   */\n      0x44\n      dup3\n      add\n        /* \"#utility.yul\":7372:7433   */\n      mstore\n        /* \"#utility.yul\":7450:7468   */\n      0x64\n      add\n        /* \"@openzeppelin/contracts/token/ERC20/ERC20.sol\":8595:8660   */\n      tag_130\n        /* \"#utility.yul\":7119:7474   */\n      jump\n        /* \"@openzeppelin/contracts/token/ERC20/ERC20.sol\":8595:8660   */\n    tag_184:\n        /* \"@openzeppelin/contracts/token/ERC20/ERC20.sol\":8747:8753   */\n      dup1\n        /* \"@openzeppelin/contracts/token/ERC20/ERC20.sol\":8731:8743   */\n      0x02\n      0x00\n        /* \"@openzeppelin/contracts/token/ERC20/ERC20.sol\":8731:8753   */\n      dup3\n      dup3\n      sload\n      tag_188\n      swap2\n      swap1\n      tag_120\n      jump\t// in\n    tag_188:\n      swap1\n      swap2\n      sstore\n      pop\n      pop\n      sub(shl(0xa0, 0x01), 0x01)\n        /* \"@openzeppelin/contracts/token/ERC20/ERC20.sol\":8899:8917   */\n      dup3\n      and\n        /* \"@openzeppelin/contracts/token/ERC20/ERC20.sol\":8899:8908   */\n      0x00\n        /* \"@openzeppelin/contracts/token/ERC20/ERC20.sol\":8899:8917   */\n      dup2\n      dup2\n      mstore\n      0x20\n      dup2\n      dup2\n      mstore\n      0x40\n      dup1\n      dup4\n      keccak256\n        /* \"@openzeppelin/contracts/token/ERC20/ERC20.sol\":8899:8927   */\n      dup1\n      sload\n      dup7\n      add\n      swap1\n      sstore\n        /* \"@openzeppelin/contracts/token/ERC20/ERC20.sol\":8952:8989   */\n      mload\n        /* \"#utility.yul\":1365:1390   */\n      dup5\n      dup2\n      mstore\n        /* \"@openzeppelin/contracts/token/ERC20/ERC20.sol\":8952:8989   */\n      0xddf252ad1be2c89b69c2b068fc378daa952ba7f163c4a11628f55a4df523b3ef\n      swap2\n        /* \"#utility.yul\":1338:1356   */\n      add\n        /* \"@openzeppelin/contracts/token/ERC20/ERC20.sol\":8952:8989   */\n      mload(0x40)\n      dup1\n      swap2\n      sub\n      swap1\n      log3\n        /* \"@openzeppelin/contracts/token/ERC20/ERC20.sol\":8520:9055   */\n      pop\n      pop\n      jump\t// out\n        /* \"#utility.yul\":14:562   */\n    tag_24:\n        /* \"#utility.yul\":126:130   */\n      0x00\n        /* \"#utility.yul\":155:157   */\n      0x20\n        /* \"#utility.yul\":184:186   */\n      dup1\n        /* \"#utility.yul\":173:182   */\n      dup4\n        /* \"#utility.yul\":166:187   */\n      mstore\n        /* \"#utility.yul\":216:222   */\n      dup4\n        /* \"#utility.yul\":210:223   */\n      mload\n        /* \"#utility.yul\":259:265   */\n      dup1\n        /* \"#utility.yul\":254:256   */\n      dup3\n        /* \"#utility.yul\":243:252   */\n      dup6\n        /* \"#utility.yul\":239:257   */\n      add\n        /* \"#utility.yul\":232:266   */\n      mstore\n        /* \"#utility.yul\":284:285   */\n      0x00\n        /* \"#utility.yul\":294:434   */\n    tag_197:\n        /* \"#utility.yul\":308:314   */\n      dup2\n        /* \"#utility.yul\":305:306   */\n      dup2\n        /* \"#utility.yul\":302:315   */\n      lt\n        /* \"#utility.yul\":294:434   */\n      iszero\n      tag_199\n      jumpi\n        /* \"#utility.yul\":403:417   */\n      dup6\n      dup2\n      add\n        /* \"#utility.yul\":399:422   */\n      dup4\n      add\n        /* \"#utility.yul\":393:423   */\n      mload\n        /* \"#utility.yul\":369:386   */\n      dup6\n      dup3\n      add\n        /* \"#utility.yul\":388:390   */\n      0x40\n        /* \"#utility.yul\":365:391   */\n      add\n        /* \"#utility.yul\":358:424   */\n      mstore\n        /* \"#utility.yul\":323:333   */\n      dup3\n      add\n        /* \"#utility.yul\":294:434   */\n      jump(tag_197)\n    tag_199:\n        /* \"#utility.yul\":298:301   */\n      pop\n        /* \"#utility.yul\":483:484   */\n      0x00\n        /* \"#utility.yul\":478:480   */\n      0x40\n        /* \"#utility.yul\":469:475   */\n      dup3\n        /* \"#utility.yul\":458:467   */\n      dup7\n        /* \"#utility.yul\":454:476   */\n      add\n        /* \"#utility.yul\":450:481   */\n      add\n        /* \"#utility.yul\":443:485   */\n      mstore\n        /* \"#utility.yul\":553:555   */\n      0x40\n        /* \"#utility.yul\":546:548   */\n      0x1f\n        /* \"#utility.yul\":542:549   */\n      not\n        /* \"#utility.yul\":537:539   */\n      0x1f\n        /* \"#utility.yul\":529:535   */\n      dup4\n        /* \"#utility.yul\":525:540   */\n      add\n        /* \"#utility.yul\":521:550   */\n      and\n        /* \"#utility.yul\":510:519   */\n      dup6\n        /* \"#utility.yul\":506:551   */\n      add\n        /* \"#utility.yul\":502:556   */\n      add\n        /* \"#utility.yul\":494:556   */\n      swap3\n      pop\n      pop\n      pop\n        /* \"#utility.yul\":14:562   */\n      swap3\n      swap2\n      pop\n      pop\n      jump\t// out\n        /* \"#utility.yul\":567:763   */\n    tag_193:\n        /* \"#utility.yul\":635:655   */\n      dup1\n      calldataload\n      sub(shl(0xa0, 0x01), 0x01)\n        /* \"#utility.yul\":684:738   */\n      dup2\n      and\n        /* \"#utility.yul\":674:739   */\n      dup2\n      eq\n        /* \"#utility.yul\":664:757   */\n      tag_201\n      jumpi\n        /* \"#utility.yul\":753:754   */\n      0x00\n        /* \"#utility.yul\":750:751   */\n      dup1\n        /* \"#utility.yul\":743:755   */\n      revert\n        /* \"#utility.yul\":664:757   */\n    tag_201:\n        /* \"#utility.yul\":567:763   */\n      swap2\n      swap1\n      pop\n      jump\t// out\n        /* \"#utility.yul\":768:1022   */\n    tag_28:\n        /* \"#utility.yul\":836:842   */\n      0x00\n        /* \"#utility.yul\":844:850   */\n      dup1\n        /* \"#utility.yul\":897:899   */\n      0x40\n        /* \"#utility.yul\":885:894   */\n      dup4\n        /* \"#utility.yul\":876:883   */\n      dup6\n        /* \"#utility.yul\":872:895   */\n      sub\n        /* \"#utility.yul\":868:900   */\n      slt\n        /* \"#utility.yul\":865:917   */\n      iszero\n      tag_203\n      jumpi\n        /* \"#utility.yul\":913:914   */\n      0x00\n        /* \"#utility.yul\":910:911   */\n      dup1\n        /* \"#utility.yul\":903:915   */\n      revert\n        /* \"#utility.yul\":865:917   */\n    tag_203:\n        /* \"#utility.yul\":936:965   */\n      tag_204\n        /* \"#utility.yul\":955:964   */\n      dup4\n        /* \"#utility.yul\":936:965   */\n      tag_193\n      jump\t// in\n    tag_204:\n        /* \"#utility.yul\":926:965   */\n      swap5\n        /* \"#utility.yul\":1012:1014   */\n      0x20\n        /* \"#utility.yul\":997:1015   */\n      swap4\n      swap1\n      swap4\n      add\n        /* \"#utility.yul\":984:1016   */\n      calldataload\n      swap4\n      pop\n      pop\n      pop\n        /* \"#utility.yul\":768:1022   */\n      jump\t// out\n        /* \"#utility.yul\":1401:1729   */\n    tag_40:\n        /* \"#utility.yul\":1478:1484   */\n      0x00\n        /* \"#utility.yul\":1486:1492   */\n      dup1\n        /* \"#utility.yul\":1494:1500   */\n      0x00\n        /* \"#utility.yul\":1547:1549   */\n      0x60\n        /* \"#utility.yul\":1535:1544   */\n      dup5\n        /* \"#utility.yul\":1526:1533   */\n      dup7\n        /* \"#utility.yul\":1522:1545   */\n      sub\n        /* \"#utility.yul\":1518:1550   */\n      slt\n        /* \"#utility.yul\":1515:1567   */\n      iszero\n      tag_208\n      jumpi\n        /* \"#utility.yul\":1563:1564   */\n      0x00\n        /* \"#utility.yul\":1560:1561   */\n      dup1\n        /* \"#utility.yul\":1553:1565   */\n      revert\n        /* \"#utility.yul\":1515:1567   */\n    tag_208:\n        /* \"#utility.yul\":1586:1615   */\n      tag_209\n        /* \"#utility.yul\":1605:1614   */\n      dup5\n        /* \"#utility.yul\":1586:1615   */\n      tag_193\n      jump\t// in\n    tag_209:\n        /* \"#utility.yul\":1576:1615   */\n      swap3\n      pop\n        /* \"#utility.yul\":1634:1672   */\n      tag_210\n        /* \"#utility.yul\":1668:1670   */\n      0x20\n        /* \"#utility.yul\":1657:1666   */\n      dup6\n        /* \"#utility.yul\":1653:1671   */\n      add\n        /* \"#utility.yul\":1634:1672   */\n      tag_193\n      jump\t// in\n    tag_210:\n        /* \"#utility.yul\":1624:1672   */\n      swap2\n      pop\n        /* \"#utility.yul\":1719:1721   */\n      0x40\n        /* \"#utility.yul\":1708:1717   */\n      dup5\n        /* \"#utility.yul\":1704:1722   */\n      add\n        /* \"#utility.yul\":1691:1723   */\n      calldataload\n        /* \"#utility.yul\":1681:1723   */\n      swap1\n      pop\n        /* \"#utility.yul\":1401:1729   */\n      swap3\n      pop\n      swap3\n      pop\n      swap3\n      jump\t// out\n        /* \"#utility.yul\":1923:2109   */\n    tag_60:\n        /* \"#utility.yul\":1982:1988   */\n      0x00\n        /* \"#utility.yul\":2035:2037   */\n      0x20\n        /* \"#utility.yul\":2023:2032   */\n      dup3\n        /* \"#utility.yul\":2014:2021   */\n      dup5\n        /* \"#utility.yul\":2010:2033   */\n      sub\n        /* \"#utility.yul\":2006:2038   */\n      slt\n        /* \"#utility.yul\":2003:2055   */\n      iszero\n      tag_213\n      jumpi\n        /* \"#utility.yul\":2051:2052   */\n      0x00\n        /* \"#utility.yul\":2048:2049   */\n      dup1\n        /* \"#utility.yul\":2041:2053   */\n      revert\n        /* \"#utility.yul\":2003:2055   */\n    tag_213:\n        /* \"#utility.yul\":2074:2103   */\n      tag_214\n        /* \"#utility.yul\":2093:2102   */\n      dup3\n        /* \"#utility.yul\":2074:2103   */\n      tag_193\n      jump\t// in\n    tag_214:\n        /* \"#utility.yul\":2064:2103   */\n      swap4\n        /* \"#utility.yul\":1923:2109   */\n      swap3\n      pop\n      pop\n      pop\n      jump\t// out\n        /* \"#utility.yul\":2345:2525   */\n    tag_75:\n        /* \"#utility.yul\":2404:2410   */\n      0x00\n        /* \"#utility.yul\":2457:2459   */\n      0x20\n        /* \"#utility.yul\":2445:2454   */\n      dup3\n        /* \"#utility.yul\":2436:2443   */\n      dup5\n        /* \"#utility.yul\":2432:2455   */\n      sub\n        /* \"#utility.yul\":2428:2460   */\n      slt\n        /* \"#utility.yul\":2425:2477   */\n      iszero\n      tag_217\n      jumpi\n        /* \"#utility.yul\":2473:2474   */\n      0x00\n        /* \"#utility.yul\":2470:2471   */\n      dup1\n        /* \"#utility.yul\":2463:2475   */\n      revert\n        /* \"#utility.yul\":2425:2477   */\n    tag_217:\n      pop\n        /* \"#utility.yul\":2496:2519   */\n      calldataload\n      swap2\n        /* \"#utility.yul\":2345:2525   */\n      swap1\n      pop\n      jump\t// out\n        /* \"#utility.yul\":2530:2790   */\n    tag_92:\n        /* \"#utility.yul\":2598:2604   */\n      0x00\n        /* \"#utility.yul\":2606:2612   */\n      dup1\n        /* \"#utility.yul\":2659:2661   */\n      0x40\n        /* \"#utility.yul\":2647:2656   */\n      dup4\n        /* \"#utility.yul\":2638:2645   */\n      dup6\n        /* \"#utility.yul\":2634:2657   */\n      sub\n        /* \"#utility.yul\":2630:2662   */\n      slt\n        /* \"#utility.yul\":2627:2679   */\n      iszero\n      tag_219\n      jumpi\n        /* \"#utility.yul\":2675:2676   */\n      0x00\n        /* \"#utility.yul\":2672:2673   */\n      dup1\n        /* \"#utility.yul\":2665:2677   */\n      revert\n        /* \"#utility.yul\":2627:2679   */\n    tag_219:\n        /* \"#utility.yul\":2698:2727   */\n      tag_220\n        /* \"#utility.yul\":2717:2726   */\n      dup4\n        /* \"#utility.yul\":2698:2727   */\n      tag_193\n      jump\t// in\n    tag_220:\n        /* \"#utility.yul\":2688:2727   */\n      swap2\n      pop\n        /* \"#utility.yul\":2746:2784   */\n      tag_221\n        /* \"#utility.yul\":2780:2782   */\n      0x20\n        /* \"#utility.yul\":2769:2778   */\n      dup5\n        /* \"#utility.yul\":2765:2783   */\n      add\n        /* \"#utility.yul\":2746:2784   */\n      tag_193\n      jump\t// in\n    tag_221:\n        /* \"#utility.yul\":2736:2784   */\n      swap1\n      pop\n        /* \"#utility.yul\":2530:2790   */\n      swap3\n      pop\n      swap3\n      swap1\n      pop\n      jump\t// out\n        /* \"#utility.yul\":2795:3175   */\n    tag_97:\n        /* \"#utility.yul\":2874:2875   */\n      0x01\n        /* \"#utility.yul\":2870:2882   */\n      dup2\n      dup2\n      shr\n      swap1\n        /* \"#utility.yul\":2917:2929   */\n      dup3\n      and\n      dup1\n        /* \"#utility.yul\":2938:2999   */\n      tag_223\n      jumpi\n        /* \"#utility.yul\":2992:2996   */\n      0x7f\n        /* \"#utility.yul\":2984:2990   */\n      dup3\n        /* \"#utility.yul\":2980:2997   */\n      and\n        /* \"#utility.yul\":2970:2997   */\n      swap2\n      pop\n        /* \"#utility.yul\":2938:2999   */\n    tag_223:\n        /* \"#utility.yul\":3045:3047   */\n      0x20\n        /* \"#utility.yul\":3037:3043   */\n      dup3\n        /* \"#utility.yul\":3034:3048   */\n      lt\n        /* \"#utility.yul\":3014:3032   */\n      dup2\n        /* \"#utility.yul\":3011:3049   */\n      sub\n        /* \"#utility.yul\":3008:3169   */\n      tag_224\n      jumpi\n        /* \"#utility.yul\":3091:3101   */\n      0x4e487b71\n        /* \"#utility.yul\":3086:3089   */\n      0xe0\n        /* \"#utility.yul\":3082:3102   */\n      shl\n        /* \"#utility.yul\":3079:3080   */\n      0x00\n        /* \"#utility.yul\":3072:3103   */\n      mstore\n        /* \"#utility.yul\":3126:3130   */\n      0x22\n        /* \"#utility.yul\":3123:3124   */\n      0x04\n        /* \"#utility.yul\":3116:3131   */\n      mstore\n        /* \"#utility.yul\":3154:3158   */\n      0x24\n        /* \"#utility.yul\":3151:3152   */\n      0x00\n        /* \"#utility.yul\":3144:3159   */\n      revert\n        /* \"#utility.yul\":3008:3169   */\n    tag_224:\n      pop\n        /* \"#utility.yul\":2795:3175   */\n      swap2\n      swap1\n      pop\n      jump\t// out\n        /* \"#utility.yul\":3180:3307   */\n    tag_194:\n        /* \"#utility.yul\":3241:3251   */\n      0x4e487b71\n        /* \"#utility.yul\":3236:3239   */\n      0xe0\n        /* \"#utility.yul\":3232:3252   */\n      shl\n        /* \"#utility.yul\":3229:3230   */\n      0x00\n        /* \"#utility.yul\":3222:3253   */\n      mstore\n        /* \"#utility.yul\":3272:3276   */\n      0x11\n        /* \"#utility.yul\":3269:3270   */\n      0x04\n        /* \"#utility.yul\":3262:3277   */\n      mstore\n        /* \"#utility.yul\":3296:3300   */\n      0x24\n        /* \"#utility.yul\":3293:3294   */\n      0x00\n        /* \"#utility.yul\":3286:3301   */\n      revert\n        /* \"#utility.yul\":3312:3437   */\n    tag_120:\n        /* \"#utility.yul\":3377:3386   */\n      dup1\n      dup3\n      add\n        /* \"#utility.yul\":3398:3408   */\n      dup1\n      dup3\n      gt\n        /* \"#utility.yul\":3395:3431   */\n      iszero\n      tag_102\n      jumpi\n        /* \"#utility.yul\":3411:3429   */\n      tag_102\n      tag_194\n      jump\t// in\n        /* \"#utility.yul\":4563:4731   */\n    tag_149:\n        /* \"#utility.yul\":4636:4645   */\n      dup1\n      dup3\n      mul\n        /* \"#utility.yul\":4667:4676   */\n      dup2\n      iszero\n        /* \"#utility.yul\":4684:4699   */\n      dup3\n      dup3\n      div\n        /* \"#utility.yul\":4678:4700   */\n      dup5\n      eq\n        /* \"#utility.yul\":4664:4701   */\n      or\n        /* \"#utility.yul\":4654:4725   */\n      tag_102\n      jumpi\n        /* \"#utility.yul\":4705:4723   */\n      tag_102\n      tag_194\n      jump\t// in\n\n    auxdata: 0xa2646970667358221220c05e23565936dd22492065dfbea806c7f7edc20cf26dca2f845a28b54e91620164736f6c63430008110033\n}\n",
    "bytecode": {
      "linkReferences": {},
      "object": "60806040523480156200001157600080fd5b50604051620010af380380620010af8339810160408190526200003491620001be565b6040518060400160405280600b81526020016a223ab930b5902a37b5b2b760a91b81525060405180604001604052806005815260200164445552414b60d81b81525081600390816200008791906200027c565b5060046200009682826200027c565b5050600580546001600160a01b0319163317905550620000b4601290565b620000c190600a6200045d565b620000cd908262000475565b6006819055600554620000ec916001600160a01b0390911690620000f3565b50620004a5565b6001600160a01b0382166200014e5760405162461bcd60e51b815260206004820152601f60248201527f45524332303a206d696e7420746f20746865207a65726f206164647265737300604482015260640160405180910390fd5b80600260008282546200016291906200048f565b90915550506001600160a01b038216600081815260208181526040808320805486019055518481527fddf252ad1be2c89b69c2b068fc378daa952ba7f163c4a11628f55a4df523b3ef910160405180910390a35050565b505050565b600060208284031215620001d157600080fd5b5051919050565b634e487b7160e01b600052604160045260246000fd5b600181811c908216806200020357607f821691505b6020821081036200022457634e487b7160e01b600052602260045260246000fd5b50919050565b601f821115620001b957600081815260208120601f850160051c81016020861015620002535750805b601f850160051c820191505b8181101562000274578281556001016200025f565b505050505050565b81516001600160401b03811115620002985762000298620001d8565b620002b081620002a98454620001ee565b846200022a565b602080601f831160018114620002e85760008415620002cf5750858301515b600019600386901b1c1916600185901b17855562000274565b600085815260208120601f198616915b828110156200031957888601518255948401946001909101908401620002f8565b5085821015620003385787850151600019600388901b60f8161c191681555b5050505050600190811b01905550565b634e487b7160e01b600052601160045260246000fd5b600181815b808511156200039f57816000190482111562000383576200038362000348565b808516156200039157918102915b93841c939080029062000363565b509250929050565b600082620003b85750600162000457565b81620003c75750600062000457565b8160018114620003e05760028114620003eb576200040b565b600191505062000457565b60ff841115620003ff57620003ff62000348565b50506001821b62000457565b5060208310610133831016604e8410600b841016171562000430575081810a62000457565b6200043c83836200035e565b806000190482111562000453576200045362000348565b0290505b92915050565b60006200046e60ff841683620003a7565b9392505050565b808202811582820484141762000457576200045762000348565b8082018082111562000457576200045762000348565b610bfa80620004b56000396000f3fe6080604052600436106100e85760003560e01c806370a082311161008a578063a457c2d711610059578063a457c2d71461027e578063a9059cbb1461029e578063d0febe4c146102be578063dd62ed3e146102c657600080fd5b806370a08231146101d95780638da5cb5b1461020f57806395d89b411461024757806397304ced1461025c57600080fd5b806323b872dd116100c657806323b872dd14610167578063313ce56714610187578063378dc3dc146101a357806339509351146101b957600080fd5b806306fdde03146100ed578063095ea7b31461011857806318160ddd14610148575b600080fd5b3480156100f957600080fd5b5061010261030c565b60405161010f9190610a0c565b60405180910390f35b34801561012457600080fd5b50610138610133366004610a76565b61039e565b604051901515815260200161010f565b34801561015457600080fd5b506002545b60405190815260200161010f565b34801561017357600080fd5b50610138610182366004610aa0565b6103b8565b34801561019357600080fd5b506040516012815260200161010f565b3480156101af57600080fd5b5061015960065481565b3480156101c557600080fd5b506101386101d4366004610a76565b6103dc565b3480156101e557600080fd5b506101596101f4366004610adc565b6001600160a01b031660009081526020819052604090205490565b34801561021b57600080fd5b5060055461022f906001600160a01b031681565b6040516001600160a01b03909116815260200161010f565b34801561025357600080fd5b5061010261041b565b34801561026857600080fd5b5061027c610277366004610afe565b61042a565b005b34801561028a57600080fd5b50610138610299366004610a76565b6104a2565b3480156102aa57600080fd5b506101386102b9366004610a76565b61054c565b61027c61055a565b3480156102d257600080fd5b506101596102e1366004610b17565b6001600160a01b03918216600090815260016020908152604080832093909416825291909152205490565b60606003805461031b90610b4a565b80601f016020809104026020016040519081016040528092919081815260200182805461034790610b4a565b80156103945780601f1061036957610100808354040283529160200191610394565b820191906000526020600020905b81548152906001019060200180831161037757829003601f168201915b5050505050905090565b6000336103ac8185856105c4565b60019150505b92915050565b6000336103c68582856106e8565b6103d185858561077a565b506001949350505050565b3360008181526001602090815260408083206001600160a01b03871684529091528120549091906103ac9082908690610416908790610b9a565b6105c4565b60606004805461031b90610b4a565b6005546001600160a01b031633146104895760405162461bcd60e51b815260206004820152601e60248201527f4f6e6c7920746865206f776e65722063616e206d696e7420746f6b656e73000060448201526064015b60405180910390fd5b60055461049f906001600160a01b03168261094d565b50565b3360008181526001602090815260408083206001600160a01b03871684529091528120549091908381101561053f5760405162461bcd60e51b815260206004820152602560248201527f45524332303a2064656372656173656420616c6c6f77616e63652062656c6f7760448201527f207a65726f0000000000000000000000000000000000000000000000000000006064820152608401610480565b6103d182868684036105c4565b6000336103ac81858561077a565b600034116105aa5760405162461bcd60e51b815260206004820152601b60248201527f596f75206e65656420746f2073656e6420736f6d6520457468657200000000006044820152606401610480565b60006105b8346103e8610bad565b905061049f338261094d565b6001600160a01b0383166106265760405162461bcd60e51b8152602060048201526024808201527f45524332303a20617070726f76652066726f6d20746865207a65726f206164646044820152637265737360e01b6064820152608401610480565b6001600160a01b0382166106875760405162461bcd60e51b815260206004820152602260248201527f45524332303a20617070726f766520746f20746865207a65726f206164647265604482015261737360f01b6064820152608401610480565b6001600160a01b0383811660008181526001602090815260408083209487168084529482529182902085905590518481527f8c5be1e5ebec7d5bd14f71427d1e84f3dd0314c0f7b2291e5b200ac8c7c3b925910160405180910390a3505050565b6001600160a01b03838116600090815260016020908152604080832093861683529290522054600019811461077457818110156107675760405162461bcd60e51b815260206004820152601d60248201527f45524332303a20696e73756666696369656e7420616c6c6f77616e63650000006044820152606401610480565b61077484848484036105c4565b50505050565b6001600160a01b0383166107f65760405162461bcd60e51b815260206004820152602560248201527f45524332303a207472616e736665722066726f6d20746865207a65726f20616460448201527f64726573730000000000000000000000000000000000000000000000000000006064820152608401610480565b6001600160a01b0382166108585760405162461bcd60e51b815260206004820152602360248201527f45524332303a207472616e7366657220746f20746865207a65726f206164647260448201526265737360e81b6064820152608401610480565b6001600160a01b038316600090815260208190526040902054818110156108e75760405162461bcd60e51b815260206004820152602660248201527f45524332303a207472616e7366657220616d6f756e742065786365656473206260448201527f616c616e636500000000000000000000000000000000000000000000000000006064820152608401610480565b6001600160a01b03848116600081815260208181526040808320878703905593871680835291849020805487019055925185815290927fddf252ad1be2c89b69c2b068fc378daa952ba7f163c4a11628f55a4df523b3ef910160405180910390a3610774565b6001600160a01b0382166109a35760405162461bcd60e51b815260206004820152601f60248201527f45524332303a206d696e7420746f20746865207a65726f2061646472657373006044820152606401610480565b80600260008282546109b59190610b9a565b90915550506001600160a01b038216600081815260208181526040808320805486019055518481527fddf252ad1be2c89b69c2b068fc378daa952ba7f163c4a11628f55a4df523b3ef910160405180910390a35050565b600060208083528351808285015260005b81811015610a3957858101830151858201604001528201610a1d565b506000604082860101526040601f19601f8301168501019250505092915050565b80356001600160a01b0381168114610a7157600080fd5b919050565b60008060408385031215610a8957600080fd5b610a9283610a5a565b946020939093013593505050565b600080600060608486031215610ab557600080fd5b610abe84610a5a565b9250610acc60208501610a5a565b9150604084013590509250925092565b600060208284031215610aee57600080fd5b610af782610a5a565b9392505050565b600060208284031215610b1057600080fd5b5035919050565b60008060408385031215610b2a57600080fd5b610b3383610a5a565b9150610b4160208401610a5a565b90509250929050565b600181811c90821680610b5e57607f821691505b602082108103610b7e57634e487b7160e01b600052602260045260246000fd5b50919050565b634e487b7160e01b600052601160045260246000fd5b808201808211156103b2576103b2610b84565b80820281158282048414176103b2576103b2610b8456fea2646970667358221220c05e23565936dd22492065dfbea806c7f7edc20cf26dca2f845a28b54e91620164736f6c63430008110033",
      "opcodes": "PUSH1 0x80 PUSH1 0x40 MSTORE CALLVALUE DUP1 ISZERO PUSH3 0x11 JUMPI PUSH1 0x0 DUP1 REVERT JUMPDEST POP PUSH1 0x40 MLOAD PUSH3 0x10AF CODESIZE SUB DUP1 PUSH3 0x10AF DUP4 CODECOPY DUP2 ADD PUSH1 0x40 DUP2 SWAP1 MSTORE PUSH3 0x34 SWAP2 PUSH3 0x1BE JUMP JUMPDEST PUSH1 0x40 MLOAD DUP1 PUSH1 0x40 ADD PUSH1 0x40 MSTORE DUP1 PUSH1 0xB DUP2 MSTORE PUSH1 0x20 ADD PUSH11 0x223AB930B5902A37B5B2B7 PUSH1 0xA9 SHL DUP2 MSTORE POP PUSH1 0x40 MLOAD DUP1 PUSH1 0x40 ADD PUSH1 0x40 MSTORE DUP1 PUSH1 0x5 DUP2 MSTORE PUSH1 0x20 ADD PUSH5 0x445552414B PUSH1 0xD8 SHL DUP2 MSTORE POP DUP2 PUSH1 0x3 SWAP1 DUP2 PUSH3 0x87 SWAP2 SWAP1 PUSH3 0x27C JUMP JUMPDEST POP PUSH1 0x4 PUSH3 0x96 DUP3 DUP3 PUSH3 0x27C JUMP JUMPDEST POP POP PUSH1 0x5 DUP1 SLOAD PUSH1 0x1 PUSH1 0x1 PUSH1 0xA0 SHL SUB NOT AND CALLER OR SWAP1 SSTORE POP PUSH3 0xB4 PUSH1 0x12 SWAP1 JUMP JUMPDEST PUSH3 0xC1 SWAP1 PUSH1 0xA PUSH3 0x45D JUMP JUMPDEST PUSH3 0xCD SWAP1 DUP3 PUSH3 0x475 JUMP JUMPDEST PUSH1 0x6 DUP2 SWAP1 SSTORE PUSH1 0x5 SLOAD PUSH3 0xEC SWAP2 PUSH1 0x1 PUSH1 0x1 PUSH1 0xA0 SHL SUB SWAP1 SWAP2 AND SWAP1 PUSH3 0xF3 JUMP JUMPDEST POP PUSH3 0x4A5 JUMP JUMPDEST PUSH1 0x1 PUSH1 0x1 PUSH1 0xA0 SHL SUB DUP3 AND PUSH3 0x14E JUMPI PUSH1 0x40 MLOAD PUSH3 0x461BCD PUSH1 0xE5 SHL DUP2 MSTORE PUSH1 0x20 PUSH1 0x4 DUP3 ADD MSTORE PUSH1 0x1F PUSH1 0x24 DUP3 ADD MSTORE PUSH32 0x45524332303A206D696E7420746F20746865207A65726F206164647265737300 PUSH1 0x44 DUP3 ADD MSTORE PUSH1 0x64 ADD PUSH1 0x40 MLOAD DUP1 SWAP2 SUB SWAP1 REVERT JUMPDEST DUP1 PUSH1 0x2 PUSH1 0x0 DUP3 DUP3 SLOAD PUSH3 0x162 SWAP2 SWAP1 PUSH3 0x48F JUMP JUMPDEST SWAP1 SWAP2 SSTORE POP POP PUSH1 0x1 PUSH1 0x1 PUSH1 0xA0 SHL SUB DUP3 AND PUSH1 0x0 DUP2 DUP2 MSTORE PUSH1 0x20 DUP2 DUP2 MSTORE PUSH1 0x40 DUP1 DUP4 KECCAK256 DUP1 SLOAD DUP7 ADD SWAP1 SSTORE MLOAD DUP5 DUP2 MSTORE PUSH32 0xDDF252AD1BE2C89B69C2B068FC378DAA952BA7F163C4A11628F55A4DF523B3EF SWAP2 ADD PUSH1 0x40 MLOAD DUP1 SWAP2 SUB SWAP1 LOG3 POP POP JUMP JUMPDEST POP POP POP JUMP JUMPDEST PUSH1 0x0 PUSH1 0x20 DUP3 DUP5 SUB SLT ISZERO PUSH3 0x1D1 JUMPI PUSH1 0x0 DUP1 REVERT JUMPDEST POP MLOAD SWAP2 SWAP1 POP JUMP JUMPDEST PUSH4 0x4E487B71 PUSH1 0xE0 SHL PUSH1 0x0 MSTORE PUSH1 0x41 PUSH1 0x4 MSTORE PUSH1 0x24 PUSH1 0x0 REVERT JUMPDEST PUSH1 0x1 DUP2 DUP2 SHR SWAP1 DUP3 AND DUP1 PUSH3 0x203 JUMPI PUSH1 0x7F DUP3 AND SWAP2 POP JUMPDEST PUSH1 0x20 DUP3 LT DUP2 SUB PUSH3 0x224 JUMPI PUSH4 0x4E487B71 PUSH1 0xE0 SHL PUSH1 0x0 MSTORE PUSH1 0x22 PUSH1 0x4 MSTORE PUSH1 0x24 PUSH1 0x0 REVERT JUMPDEST POP SWAP2 SWAP1 POP JUMP JUMPDEST PUSH1 0x1F DUP3 GT ISZERO PUSH3 0x1B9 JUMPI PUSH1 0x0 DUP2 DUP2 MSTORE PUSH1 0x20 DUP2 KECCAK256 PUSH1 0x1F DUP6 ADD PUSH1 0x5 SHR DUP2 ADD PUSH1 0x20 DUP7 LT ISZERO PUSH3 0x253 JUMPI POP DUP1 JUMPDEST PUSH1 0x1F DUP6 ADD PUSH1 0x5 SHR DUP3 ADD SWAP2 POP JUMPDEST DUP2 DUP2 LT ISZERO PUSH3 0x274 JUMPI DUP3 DUP2 SSTORE PUSH1 0x1 ADD PUSH3 0x25F JUMP JUMPDEST POP POP POP POP POP POP JUMP JUMPDEST DUP2 MLOAD PUSH1 0x1 PUSH1 0x1 PUSH1 0x40 SHL SUB DUP2 GT ISZERO PUSH3 0x298 JUMPI PUSH3 0x298 PUSH3 0x1D8 JUMP JUMPDEST PUSH3 0x2B0 DUP2 PUSH3 0x2A9 DUP5 SLOAD PUSH3 0x1EE JUMP JUMPDEST DUP5 PUSH3 0x22A JUMP JUMPDEST PUSH1 0x20 DUP1 PUSH1 0x1F DUP4 GT PUSH1 0x1 DUP2 EQ PUSH3 0x2E8 JUMPI PUSH1 0x0 DUP5 ISZERO PUSH3 0x2CF JUMPI POP DUP6 DUP4 ADD MLOAD JUMPDEST PUSH1 0x0 NOT PUSH1 0x3 DUP7 SWAP1 SHL SHR NOT AND PUSH1 0x1 DUP6 SWAP1 SHL OR DUP6 SSTORE PUSH3 0x274 JUMP JUMPDEST PUSH1 0x0 DUP6 DUP2 MSTORE PUSH1 0x20 DUP2 KECCAK256 PUSH1 0x1F NOT DUP7 AND SWAP2 JUMPDEST DUP3 DUP2 LT ISZERO PUSH3 0x319 JUMPI DUP9 DUP7 ADD MLOAD DUP3 SSTORE SWAP5 DUP5 ADD SWAP5 PUSH1 0x1 SWAP1 SWAP2 ADD SWAP1 DUP5 ADD PUSH3 0x2F8 JUMP JUMPDEST POP DUP6 DUP3 LT ISZERO PUSH3 0x338 JUMPI DUP8 DUP6 ADD MLOAD PUSH1 0x0 NOT PUSH1 0x3 DUP9 SWAP1 SHL PUSH1 0xF8 AND SHR NOT AND DUP2 SSTORE JUMPDEST POP POP POP POP POP PUSH1 0x1 SWAP1 DUP2 SHL ADD SWAP1 SSTORE POP JUMP JUMPDEST PUSH4 0x4E487B71 PUSH1 0xE0 SHL PUSH1 0x0 MSTORE PUSH1 0x11 PUSH1 0x4 MSTORE PUSH1 0x24 PUSH1 0x0 REVERT JUMPDEST PUSH1 0x1 DUP2 DUP2 JUMPDEST DUP1 DUP6 GT ISZERO PUSH3 0x39F JUMPI DUP2 PUSH1 0x0 NOT DIV DUP3 GT ISZERO PUSH3 0x383 JUMPI PUSH3 0x383 PUSH3 0x348 JUMP JUMPDEST DUP1 DUP6 AND ISZERO PUSH3 0x391 JUMPI SWAP2 DUP2 MUL SWAP2 JUMPDEST SWAP4 DUP5 SHR SWAP4 SWAP1 DUP1 MUL SWAP1 PUSH3 0x363 JUMP JUMPDEST POP SWAP3 POP SWAP3 SWAP1 POP JUMP JUMPDEST PUSH1 0x0 DUP3 PUSH3 0x3B8 JUMPI POP PUSH1 0x1 PUSH3 0x457 JUMP JUMPDEST DUP2 PUSH3 0x3C7 JUMPI POP PUSH1 0x0 PUSH3 0x457 JUMP JUMPDEST DUP2 PUSH1 0x1 DUP2 EQ PUSH3 0x3E0 JUMPI PUSH1 0x2 DUP2 EQ PUSH3 0x3EB JUMPI PUSH3 0x40B JUMP JUMPDEST PUSH1 0x1 SWAP2 POP POP PUSH3 0x457 JUMP JUMPDEST PUSH1 0xFF DUP5 GT ISZERO PUSH3 0x3FF JUMPI PUSH3 0x3FF PUSH3 0x348 JUMP JUMPDEST POP POP PUSH1 0x1 DUP3 SHL PUSH3 0x457 JUMP JUMPDEST POP PUSH1 0x20 DUP4 LT PUSH2 0x133 DUP4 LT AND PUSH1 0x4E DUP5 LT PUSH1 0xB DUP5 LT AND OR ISZERO PUSH3 0x430 JUMPI POP DUP2 DUP2 EXP PUSH3 0x457 JUMP JUMPDEST PUSH3 0x43C DUP4 DUP4 PUSH3 0x35E JUMP JUMPDEST DUP1 PUSH1 0x0 NOT DIV DUP3 GT ISZERO PUSH3 0x453 JUMPI PUSH3 0x453 PUSH3 0x348 JUMP JUMPDEST MUL SWAP1 POP JUMPDEST SWAP3 SWAP2 POP POP JUMP JUMPDEST PUSH1 0x0 PUSH3 0x46E PUSH1 0xFF DUP5 AND DUP4 PUSH3 0x3A7 JUMP JUMPDEST SWAP4 SWAP3 POP POP POP JUMP JUMPDEST DUP1 DUP3 MUL DUP2 ISZERO DUP3 DUP3 DIV DUP5 EQ OR PUSH3 0x457 JUMPI PUSH3 0x457 PUSH3 0x348 JUMP JUMPDEST DUP1 DUP3 ADD DUP1 DUP3 GT ISZERO PUSH3 0x457 JUMPI PUSH3 0x457 PUSH3 0x348 JUMP JUMPDEST PUSH2 0xBFA DUP1 PUSH3 0x4B5 PUSH1 0x0 CODECOPY PUSH1 0x0 RETURN INVALID PUSH1 0x80 PUSH1 0x40 MSTORE PUSH1 0x4 CALLDATASIZE LT PUSH2 0xE8 JUMPI PUSH1 0x0 CALLDATALOAD PUSH1 0xE0 SHR DUP1 PUSH4 0x70A08231 GT PUSH2 0x8A JUMPI DUP1 PUSH4 0xA457C2D7 GT PUSH2 0x59 JUMPI DUP1 PUSH4 0xA457C2D7 EQ PUSH2 0x27E JUMPI DUP1 PUSH4 0xA9059CBB EQ PUSH2 0x29E JUMPI DUP1 PUSH4 0xD0FEBE4C EQ PUSH2 0x2BE JUMPI DUP1 PUSH4 0xDD62ED3E EQ PUSH2 0x2C6 JUMPI PUSH1 0x0 DUP1 REVERT JUMPDEST DUP1 PUSH4 0x70A08231 EQ PUSH2 0x1D9 JUMPI DUP1 PUSH4 0x8DA5CB5B EQ PUSH2 0x20F JUMPI DUP1 PUSH4 0x95D89B41 EQ PUSH2 0x247 JUMPI DUP1 PUSH4 0x97304CED EQ PUSH2 0x25C JUMPI PUSH1 0x0 DUP1 REVERT JUMPDEST DUP1 PUSH4 0x23B872DD GT PUSH2 0xC6 JUMPI DUP1 PUSH4 0x23B872DD EQ PUSH2 0x167 JUMPI DUP1 PUSH4 0x313CE567 EQ PUSH2 0x187 JUMPI DUP1 PUSH4 0x378DC3DC EQ PUSH2 0x1A3 JUMPI DUP1 PUSH4 0x39509351 EQ PUSH2 0x1B9 JUMPI PUSH1 0x0 DUP1 REVERT JUMPDEST DUP1 PUSH4 0x6FDDE03 EQ PUSH2 0xED JUMPI DUP1 PUSH4 0x95EA7B3 EQ PUSH2 0x118 JUMPI DUP1 PUSH4 0x18160DDD EQ PUSH2 0x148 JUMPI JUMPDEST PUSH1 0x0 DUP1 REVERT JUMPDEST CALLVALUE DUP1 ISZERO PUSH2 0xF9 JUMPI PUSH1 0x0 DUP1 REVERT JUMPDEST POP PUSH2 0x102 PUSH2 0x30C JUMP JUMPDEST PUSH1 0x40 MLOAD PUSH2 0x10F SWAP2 SWAP1 PUSH2 0xA0C JUMP JUMPDEST PUSH1 0x40 MLOAD DUP1 SWAP2 SUB SWAP1 RETURN JUMPDEST CALLVALUE DUP1 ISZERO PUSH2 0x124 JUMPI PUSH1 0x0 DUP1 REVERT JUMPDEST POP PUSH2 0x138 PUSH2 0x133 CALLDATASIZE PUSH1 0x4 PUSH2 0xA76 JUMP JUMPDEST PUSH2 0x39E JUMP JUMPDEST PUSH1 0x40 MLOAD SWAP1 ISZERO ISZERO DUP2 MSTORE PUSH1 0x20 ADD PUSH2 0x10F JUMP JUMPDEST CALLVALUE DUP1 ISZERO PUSH2 0x154 JUMPI PUSH1 0x0 DUP1 REVERT JUMPDEST POP PUSH1 0x2 SLOAD JUMPDEST PUSH1 0x40 MLOAD SWAP1 DUP2 MSTORE PUSH1 0x20 ADD PUSH2 0x10F JUMP JUMPDEST CALLVALUE DUP1 ISZERO PUSH2 0x173 JUMPI PUSH1 0x0 DUP1 REVERT JUMPDEST POP PUSH2 0x138 PUSH2 0x182 CALLDATASIZE PUSH1 0x4 PUSH2 0xAA0 JUMP JUMPDEST PUSH2 0x3B8 JUMP JUMPDEST CALLVALUE DUP1 ISZERO PUSH2 0x193 JUMPI PUSH1 0x0 DUP1 REVERT JUMPDEST POP PUSH1 0x40 MLOAD PUSH1 0x12 DUP2 MSTORE PUSH1 0x20 ADD PUSH2 0x10F JUMP JUMPDEST CALLVALUE DUP1 ISZERO PUSH2 0x1AF JUMPI PUSH1 0x0 DUP1 REVERT JUMPDEST POP PUSH2 0x159 PUSH1 0x6 SLOAD DUP2 JUMP JUMPDEST CALLVALUE DUP1 ISZERO PUSH2 0x1C5 JUMPI PUSH1 0x0 DUP1 REVERT JUMPDEST POP PUSH2 0x138 PUSH2 0x1D4 CALLDATASIZE PUSH1 0x4 PUSH2 0xA76 JUMP JUMPDEST PUSH2 0x3DC JUMP JUMPDEST CALLVALUE DUP1 ISZERO PUSH2 0x1E5 JUMPI PUSH1 0x0 DUP1 REVERT JUMPDEST POP PUSH2 0x159 PUSH2 0x1F4 CALLDATASIZE PUSH1 0x4 PUSH2 0xADC JUMP JUMPDEST PUSH1 0x1 PUSH1 0x1 PUSH1 0xA0 SHL SUB AND PUSH1 0x0 SWAP1 DUP2 MSTORE PUSH1 0x20 DUP2 SWAP1 MSTORE PUSH1 0x40 SWAP1 KECCAK256 SLOAD SWAP1 JUMP JUMPDEST CALLVALUE DUP1 ISZERO PUSH2 0x21B JUMPI PUSH1 0x0 DUP1 REVERT JUMPDEST POP PUSH1 0x5 SLOAD PUSH2 0x22F SWAP1 PUSH1 0x1 PUSH1 0x1 PUSH1 0xA0 SHL SUB AND DUP2 JUMP JUMPDEST PUSH1 0x40 MLOAD PUSH1 0x1 PUSH1 0x1 PUSH1 0xA0 SHL SUB SWAP1 SWAP2 AND DUP2 MSTORE PUSH1 0x20 ADD PUSH2 0x10F JUMP JUMPDEST CALLVALUE DUP1 ISZERO PUSH2 0x253 JUMPI PUSH1 0x0 DUP1 REVERT JUMPDEST POP PUSH2 0x102 PUSH2 0x41B JUMP JUMPDEST CALLVALUE DUP1 ISZERO PUSH2 0x268 JUMPI PUSH1 0x0 DUP1 REVERT JUMPDEST POP PUSH2 0x27C PUSH2 0x277 CALLDATASIZE PUSH1 0x4 PUSH2 0xAFE JUMP JUMPDEST PUSH2 0x42A JUMP JUMPDEST STOP JUMPDEST CALLVALUE DUP1 ISZERO PUSH2 0x28A JUMPI PUSH1 0x0 DUP1 REVERT JUMPDEST POP PUSH2 0x138 PUSH2 0x299 CALLDATASIZE PUSH1 0x4 PUSH2 0xA76 JUMP JUMPDEST PUSH2 0x4A2 JUMP JUMPDEST CALLVALUE DUP1 ISZERO PUSH2 0x2AA JUMPI PUSH1 0x0 DUP1 REVERT JUMPDEST POP PUSH2 0x138 PUSH2 0x2B9 CALLDATASIZE PUSH1 0x4 PUSH2 0xA76 JUMP JUMPDEST PUSH2 0x54C JUMP JUMPDEST PUSH2 0x27C PUSH2 0x55A JUMP JUMPDEST CALLVALUE DUP1 ISZERO PUSH2 0x2D2 JUMPI PUSH1 0x0 DUP1 REVERT JUMPDEST POP PUSH2 0x159 PUSH2 0x2E1 CALLDATASIZE PUSH1 0x4 PUSH2 0xB17 JUMP JUMPDEST PUSH1 0x1 PUSH1 0x1 PUSH1 0xA0 SHL SUB SWAP2 DUP3 AND PUSH1 0x0 SWAP1 DUP2 MSTORE PUSH1 0x1 PUSH1 0x20 SWAP1 DUP2 MSTORE PUSH1 0x40 DUP1 DUP4 KECCAK256 SWAP4 SWAP1 SWAP5 AND DUP3 MSTORE SWAP2 SWAP1 SWAP2 MSTORE KECCAK256 SLOAD SWAP1 JUMP JUMPDEST PUSH1 0x60 PUSH1 0x3 DUP1 SLOAD PUSH2 0x31B SWAP1 PUSH2 0xB4A JUMP JUMPDEST DUP1 PUSH1 0x1F ADD PUSH1 0x20 DUP1 SWAP2 DIV MUL PUSH1 0x20 ADD PUSH1 0x40 MLOAD SWAP1 DUP2 ADD PUSH1 0x40 MSTORE DUP1 SWAP3 SWAP2 SWAP1 DUP2 DUP2 MSTORE PUSH1 0x20 ADD DUP3 DUP1 SLOAD PUSH2 0x347 SWAP1 PUSH2 0xB4A JUMP JUMPDEST DUP1 ISZERO PUSH2 0x394 JUMPI DUP1 PUSH1 0x1F LT PUSH2 0x369 JUMPI PUSH2 0x100 DUP1 DUP4 SLOAD DIV MUL DUP4 MSTORE SWAP2 PUSH1 0x20 ADD SWAP2 PUSH2 0x394 JUMP JUMPDEST DUP3 ADD SWAP2 SWAP1 PUSH1 0x0 MSTORE PUSH1 0x20 PUSH1 0x0 KECCAK256 SWAP1 JUMPDEST DUP2 SLOAD DUP2 MSTORE SWAP1 PUSH1 0x1 ADD SWAP1 PUSH1 0x20 ADD DUP1 DUP4 GT PUSH2 0x377 JUMPI DUP3 SWAP1 SUB PUSH1 0x1F AND DUP3 ADD SWAP2 JUMPDEST POP POP POP POP POP SWAP1 POP SWAP1 JUMP JUMPDEST PUSH1 0x0 CALLER PUSH2 0x3AC DUP2 DUP6 DUP6 PUSH2 0x5C4 JUMP JUMPDEST PUSH1 0x1 SWAP2 POP POP JUMPDEST SWAP3 SWAP2 POP POP JUMP JUMPDEST PUSH1 0x0 CALLER PUSH2 0x3C6 DUP6 DUP3 DUP6 PUSH2 0x6E8 JUMP JUMPDEST PUSH2 0x3D1 DUP6 DUP6 DUP6 PUSH2 0x77A JUMP JUMPDEST POP PUSH1 0x1 SWAP5 SWAP4 POP POP POP POP JUMP JUMPDEST CALLER PUSH1 0x0 DUP2 DUP2 MSTORE PUSH1 0x1 PUSH1 0x20 SWAP1 DUP2 MSTORE PUSH1 0x40 DUP1 DUP4 KECCAK256 PUSH1 0x1 PUSH1 0x1 PUSH1 0xA0 SHL SUB DUP8 AND DUP5 MSTORE SWAP1 SWAP2 MSTORE DUP2 KECCAK256 SLOAD SWAP1 SWAP2 SWAP1 PUSH2 0x3AC SWAP1 DUP3 SWAP1 DUP7 SWAP1 PUSH2 0x416 SWAP1 DUP8 SWAP1 PUSH2 0xB9A JUMP JUMPDEST PUSH2 0x5C4 JUMP JUMPDEST PUSH1 0x60 PUSH1 0x4 DUP1 SLOAD PUSH2 0x31B SWAP1 PUSH2 0xB4A JUMP JUMPDEST PUSH1 0x5 SLOAD PUSH1 0x1 PUSH1 0x1 PUSH1 0xA0 SHL SUB AND CALLER EQ PUSH2 0x489 JUMPI PUSH1 0x40 MLOAD PUSH3 0x461BCD PUSH1 0xE5 SHL DUP2 MSTORE PUSH1 0x20 PUSH1 0x4 DUP3 ADD MSTORE PUSH1 0x1E PUSH1 0x24 DUP3 ADD MSTORE PUSH32 0x4F6E6C7920746865206F776E65722063616E206D696E7420746F6B656E730000 PUSH1 0x44 DUP3 ADD MSTORE PUSH1 0x64 ADD JUMPDEST PUSH1 0x40 MLOAD DUP1 SWAP2 SUB SWAP1 REVERT JUMPDEST PUSH1 0x5 SLOAD PUSH2 0x49F SWAP1 PUSH1 0x1 PUSH1 0x1 PUSH1 0xA0 SHL SUB AND DUP3 PUSH2 0x94D JUMP JUMPDEST POP JUMP JUMPDEST CALLER PUSH1 0x0 DUP2 DUP2 MSTORE PUSH1 0x1 PUSH1 0x20 SWAP1 DUP2 MSTORE PUSH1 0x40 DUP1 DUP4 KECCAK256 PUSH1 0x1 PUSH1 0x1 PUSH1 0xA0 SHL SUB DUP8 AND DUP5 MSTORE SWAP1 SWAP2 MSTORE DUP2 KECCAK256 SLOAD SWAP1 SWAP2 SWAP1 DUP4 DUP2 LT ISZERO PUSH2 0x53F JUMPI PUSH1 0x40 MLOAD PUSH3 0x461BCD PUSH1 0xE5 SHL DUP2 MSTORE PUSH1 0x20 PUSH1 0x4 DUP3 ADD MSTORE PUSH1 0x25 PUSH1 0x24 DUP3 ADD MSTORE PUSH32 0x45524332303A2064656372656173656420616C6C6F77616E63652062656C6F77 PUSH1 0x44 DUP3 ADD MSTORE PUSH32 0x207A65726F000000000000000000000000000000000000000000000000000000 PUSH1 0x64 DUP3 ADD MSTORE PUSH1 0x84 ADD PUSH2 0x480 JUMP JUMPDEST PUSH2 0x3D1 DUP3 DUP7 DUP7 DUP5 SUB PUSH2 0x5C4 JUMP JUMPDEST PUSH1 0x0 CALLER PUSH2 0x3AC DUP2 DUP6 DUP6 PUSH2 0x77A JUMP JUMPDEST PUSH1 0x0 CALLVALUE GT PUSH2 0x5AA JUMPI PUSH1 0x40 MLOAD PUSH3 0x461BCD PUSH1 0xE5 SHL DUP2 MSTORE PUSH1 0x20 PUSH1 0x4 DUP3 ADD MSTORE PUSH1 0x1B PUSH1 0x24 DUP3 ADD MSTORE PUSH32 0x596F75206E65656420746F2073656E6420736F6D652045746865720000000000 PUSH1 0x44 DUP3 ADD MSTORE PUSH1 0x64 ADD PUSH2 0x480 JUMP JUMPDEST PUSH1 0x0 PUSH2 0x5B8 CALLVALUE PUSH2 0x3E8 PUSH2 0xBAD JUMP JUMPDEST SWAP1 POP PUSH2 0x49F CALLER DUP3 PUSH2 0x94D JUMP JUMPDEST PUSH1 0x1 PUSH1 0x1 PUSH1 0xA0 SHL SUB DUP4 AND PUSH2 0x626 JUMPI PUSH1 0x40 MLOAD PUSH3 0x461BCD PUSH1 0xE5 SHL DUP2 MSTORE PUSH1 0x20 PUSH1 0x4 DUP3 ADD MSTORE PUSH1 0x24 DUP1 DUP3 ADD MSTORE PUSH32 0x45524332303A20617070726F76652066726F6D20746865207A65726F20616464 PUSH1 0x44 DUP3 ADD MSTORE PUSH4 0x72657373 PUSH1 0xE0 SHL PUSH1 0x64 DUP3 ADD MSTORE PUSH1 0x84 ADD PUSH2 0x480 JUMP JUMPDEST PUSH1 0x1 PUSH1 0x1 PUSH1 0xA0 SHL SUB DUP3 AND PUSH2 0x687 JUMPI PUSH1 0x40 MLOAD PUSH3 0x461BCD PUSH1 0xE5 SHL DUP2 MSTORE PUSH1 0x20 PUSH1 0x4 DUP3 ADD MSTORE PUSH1 0x22 PUSH1 0x24 DUP3 ADD MSTORE PUSH32 0x45524332303A20617070726F766520746F20746865207A65726F206164647265 PUSH1 0x44 DUP3 ADD MSTORE PUSH2 0x7373 PUSH1 0xF0 SHL PUSH1 0x64 DUP3 ADD MSTORE PUSH1 0x84 ADD PUSH2 0x480 JUMP JUMPDEST PUSH1 0x1 PUSH1 0x1 PUSH1 0xA0 SHL SUB DUP4 DUP2 AND PUSH1 0x0 DUP2 DUP2 MSTORE PUSH1 0x1 PUSH1 0x20 SWAP1 DUP2 MSTORE PUSH1 0x40 DUP1 DUP4 KECCAK256 SWAP5 DUP8 AND DUP1 DUP5 MSTORE SWAP5 DUP3 MSTORE SWAP2 DUP3 SWAP1 KECCAK256 DUP6 SWAP1 SSTORE SWAP1 MLOAD DUP5 DUP2 MSTORE PUSH32 0x8C5BE1E5EBEC7D5BD14F71427D1E84F3DD0314C0F7B2291E5B200AC8C7C3B925 SWAP2 ADD PUSH1 0x40 MLOAD DUP1 SWAP2 SUB SWAP1 LOG3 POP POP POP JUMP JUMPDEST PUSH1 0x1 PUSH1 0x1 PUSH1 0xA0 SHL SUB DUP4 DUP2 AND PUSH1 0x0 SWAP1 DUP2 MSTORE PUSH1 0x1 PUSH1 0x20 SWAP1 DUP2 MSTORE PUSH1 0x40 DUP1 DUP4 KECCAK256 SWAP4 DUP7 AND DUP4 MSTORE SWAP3 SWAP1 MSTORE KECCAK256 SLOAD PUSH1 0x0 NOT DUP2 EQ PUSH2 0x774 JUMPI DUP2 DUP2 LT ISZERO PUSH2 0x767 JUMPI PUSH1 0x40 MLOAD PUSH3 0x461BCD PUSH1 0xE5 SHL DUP2 MSTORE PUSH1 0x20 PUSH1 0x4 DUP3 ADD MSTORE PUSH1 0x1D PUSH1 0x24 DUP3 ADD MSTORE PUSH32 0x45524332303A20696E73756666696369656E7420616C6C6F77616E6365000000 PUSH1 0x44 DUP3 ADD MSTORE PUSH1 0x64 ADD PUSH2 0x480 JUMP JUMPDEST PUSH2 0x774 DUP5 DUP5 DUP5 DUP5 SUB PUSH2 0x5C4 JUMP JUMPDEST POP POP POP POP JUMP JUMPDEST PUSH1 0x1 PUSH1 0x1 PUSH1 0xA0 SHL SUB DUP4 AND PUSH2 0x7F6 JUMPI PUSH1 0x40 MLOAD PUSH3 0x461BCD PUSH1 0xE5 SHL DUP2 MSTORE PUSH1 0x20 PUSH1 0x4 DUP3 ADD MSTORE PUSH1 0x25 PUSH1 0x24 DUP3 ADD MSTORE PUSH32 0x45524332303A207472616E736665722066726F6D20746865207A65726F206164 PUSH1 0x44 DUP3 ADD MSTORE PUSH32 0x6472657373000000000000000000000000000000000000000000000000000000 PUSH1 0x64 DUP3 ADD MSTORE PUSH1 0x84 ADD PUSH2 0x480 JUMP JUMPDEST PUSH1 0x1 PUSH1 0x1 PUSH1 0xA0 SHL SUB DUP3 AND PUSH2 0x858 JUMPI PUSH1 0x40 MLOAD PUSH3 0x461BCD PUSH1 0xE5 SHL DUP2 MSTORE PUSH1 0x20 PUSH1 0x4 DUP3 ADD MSTORE PUSH1 0x23 PUSH1 0x24 DUP3 ADD MSTORE PUSH32 0x45524332303A207472616E7366657220746F20746865207A65726F2061646472 PUSH1 0x44 DUP3 ADD MSTORE PUSH3 0x657373 PUSH1 0xE8 SHL PUSH1 0x64 DUP3 ADD MSTORE PUSH1 0x84 ADD PUSH2 0x480 JUMP JUMPDEST PUSH1 0x1 PUSH1 0x1 PUSH1 0xA0 SHL SUB DUP4 AND PUSH1 0x0 SWAP1 DUP2 MSTORE PUSH1 0x20 DUP2 SWAP1 MSTORE PUSH1 0x40 SWAP1 KECCAK256 SLOAD DUP2 DUP2 LT ISZERO PUSH2 0x8E7 JUMPI PUSH1 0x40 MLOAD PUSH3 0x461BCD PUSH1 0xE5 SHL DUP2 MSTORE PUSH1 0x20 PUSH1 0x4 DUP3 ADD MSTORE PUSH1 0x26 PUSH1 0x24 DUP3 ADD MSTORE PUSH32 0x45524332303A207472616E7366657220616D6F756E7420657863656564732062 PUSH1 0x44 DUP3 ADD MSTORE PUSH32 0x616C616E63650000000000000000000000000000000000000000000000000000 PUSH1 0x64 DUP3 ADD MSTORE PUSH1 0x84 ADD PUSH2 0x480 JUMP JUMPDEST PUSH1 0x1 PUSH1 0x1 PUSH1 0xA0 SHL SUB DUP5 DUP2 AND PUSH1 0x0 DUP2 DUP2 MSTORE PUSH1 0x20 DUP2 DUP2 MSTORE PUSH1 0x40 DUP1 DUP4 KECCAK256 DUP8 DUP8 SUB SWAP1 SSTORE SWAP4 DUP8 AND DUP1 DUP4 MSTORE SWAP2 DUP5 SWAP1 KECCAK256 DUP1 SLOAD DUP8 ADD SWAP1 SSTORE SWAP3 MLOAD DUP6 DUP2 MSTORE SWAP1 SWAP3 PUSH32 0xDDF252AD1BE2C89B69C2B068FC378DAA952BA7F163C4A11628F55A4DF523B3EF SWAP2 ADD PUSH1 0x40 MLOAD DUP1 SWAP2 SUB SWAP1 LOG3 PUSH2 0x774 JUMP JUMPDEST PUSH1 0x1 PUSH1 0x1 PUSH1 0xA0 SHL SUB DUP3 AND PUSH2 0x9A3 JUMPI PUSH1 0x40 MLOAD PUSH3 0x461BCD PUSH1 0xE5 SHL DUP2 MSTORE PUSH1 0x20 PUSH1 0x4 DUP3 ADD MSTORE PUSH1 0x1F PUSH1 0x24 DUP3 ADD MSTORE PUSH32 0x45524332303A206D696E7420746F20746865207A65726F206164647265737300 PUSH1 0x44 DUP3 ADD MSTORE PUSH1 0x64 ADD PUSH2 0x480 JUMP JUMPDEST DUP1 PUSH1 0x2 PUSH1 0x0 DUP3 DUP3 SLOAD PUSH2 0x9B5 SWAP2 SWAP1 PUSH2 0xB9A JUMP JUMPDEST SWAP1 SWAP2 SSTORE POP POP PUSH1 0x1 PUSH1 0x1 PUSH1 0xA0 SHL SUB DUP3 AND PUSH1 0x0 DUP2 DUP2 MSTORE PUSH1 0x20 DUP2 DUP2 MSTORE PUSH1 0x40 DUP1 DUP4 KECCAK256 DUP1 SLOAD DUP7 ADD SWAP1 SSTORE MLOAD DUP5 DUP2 MSTORE PUSH32 0xDDF252AD1BE2C89B69C2B068FC378DAA952BA7F163C4A11628F55A4DF523B3EF SWAP2 ADD PUSH1 0x40 MLOAD DUP1 SWAP2 SUB SWAP1 LOG3 POP POP JUMP JUMPDEST PUSH1 0x0 PUSH1 0x20 DUP1 DUP4 MSTORE DUP4 MLOAD DUP1 DUP3 DUP6 ADD MSTORE PUSH1 0x0 JUMPDEST DUP2 DUP2 LT ISZERO PUSH2 0xA39 JUMPI DUP6 DUP2 ADD DUP4 ADD MLOAD DUP6 DUP3 ADD PUSH1 0x40 ADD MSTORE DUP3 ADD PUSH2 0xA1D JUMP JUMPDEST POP PUSH1 0x0 PUSH1 0x40 DUP3 DUP7 ADD ADD MSTORE PUSH1 0x40 PUSH1 0x1F NOT PUSH1 0x1F DUP4 ADD AND DUP6 ADD ADD SWAP3 POP POP POP SWAP3 SWAP2 POP POP JUMP JUMPDEST DUP1 CALLDATALOAD PUSH1 0x1 PUSH1 0x1 PUSH1 0xA0 SHL SUB DUP2 AND DUP2 EQ PUSH2 0xA71 JUMPI PUSH1 0x0 DUP1 REVERT JUMPDEST SWAP2 SWAP1 POP JUMP JUMPDEST PUSH1 0x0 DUP1 PUSH1 0x40 DUP4 DUP6 SUB SLT ISZERO PUSH2 0xA89 JUMPI PUSH1 0x0 DUP1 REVERT JUMPDEST PUSH2 0xA92 DUP4 PUSH2 0xA5A JUMP JUMPDEST SWAP5 PUSH1 0x20 SWAP4 SWAP1 SWAP4 ADD CALLDATALOAD SWAP4 POP POP POP JUMP JUMPDEST PUSH1 0x0 DUP1 PUSH1 0x0 PUSH1 0x60 DUP5 DUP7 SUB SLT ISZERO PUSH2 0xAB5 JUMPI PUSH1 0x0 DUP1 REVERT JUMPDEST PUSH2 0xABE DUP5 PUSH2 0xA5A JUMP JUMPDEST SWAP3 POP PUSH2 0xACC PUSH1 0x20 DUP6 ADD PUSH2 0xA5A JUMP JUMPDEST SWAP2 POP PUSH1 0x40 DUP5 ADD CALLDATALOAD SWAP1 POP SWAP3 POP SWAP3 POP SWAP3 JUMP JUMPDEST PUSH1 0x0 PUSH1 0x20 DUP3 DUP5 SUB SLT ISZERO PUSH2 0xAEE JUMPI PUSH1 0x0 DUP1 REVERT JUMPDEST PUSH2 0xAF7 DUP3 PUSH2 0xA5A JUMP JUMPDEST SWAP4 SWAP3 POP POP POP JUMP JUMPDEST PUSH1 0x0 PUSH1 0x20 DUP3 DUP5 SUB SLT ISZERO PUSH2 0xB10 JUMPI PUSH1 0x0 DUP1 REVERT JUMPDEST POP CALLDATALOAD SWAP2 SWAP1 POP JUMP JUMPDEST PUSH1 0x0 DUP1 PUSH1 0x40 DUP4 DUP6 SUB SLT ISZERO PUSH2 0xB2A JUMPI PUSH1 0x0 DUP1 REVERT JUMPDEST PUSH2 0xB33 DUP4 PUSH2 0xA5A JUMP JUMPDEST SWAP2 POP PUSH2 0xB41 PUSH1 0x20 DUP5 ADD PUSH2 0xA5A JUMP JUMPDEST SWAP1 POP SWAP3 POP SWAP3 SWAP1 POP JUMP JUMPDEST PUSH1 0x1 DUP2 DUP2 SHR SWAP1 DUP3 AND DUP1 PUSH2 0xB5E JUMPI PUSH1 0x7F DUP3 AND SWAP2 POP JUMPDEST PUSH1 0x20 DUP3 LT DUP2 SUB PUSH2 0xB7E JUMPI PUSH4 0x4E487B71 PUSH1 0xE0 SHL PUSH1 0x0 MSTORE PUSH1 0x22 PUSH1 0x4 MSTORE PUSH1 0x24 PUSH1 0x0 REVERT JUMPDEST POP SWAP2 SWAP1 POP JUMP JUMPDEST PUSH4 0x4E487B71 PUSH1 0xE0 SHL PUSH1 0x0 MSTORE PUSH1 0x11 PUSH1 0x4 MSTORE PUSH1 0x24 PUSH1 0x0 REVERT JUMPDEST DUP1 DUP3 ADD DUP1 DUP3 GT ISZERO PUSH2 0x3B2 JUMPI PUSH2 0x3B2 PUSH2 0xB84 JUMP JUMPDEST DUP1 DUP3 MUL DUP2 ISZERO DUP3 DUP3 DIV DUP5 EQ OR PUSH2 0x3B2 JUMPI PUSH2 0x3B2 PUSH2 0xB84 JUMP INVALID LOG2 PUSH5 0x6970667358 0x22 SLT KECCAK256 0xC0 0x5E 0x23 JUMP MSIZE CALLDATASIZE 0xDD 0x22 0x49 KECCAK256 PUSH6 0xDFBEA806C7F7 0xED 0xC2 0xC CALLCODE PUSH14 0xCA2F845A28B54E91620164736F6C PUSH4 0x43000811 STOP CALLER "
    },
    "gasEstimates": {
      "creation": {
        "codeDepositCost": "613200",
        "executionCost": "infinite",
        "totalCost": "infinite"
      },
      "external": {
        "allowance(address,address)": "infinite",
        "approve(address,uint256)": "24651",
        "balanceOf(address)": "2563",
        "buyTokens()": "infinite",
        "decimals()": "222",
        "decreaseAllowance(address,uint256)": "26922",
        "increaseAllowance(address,uint256)": "infinite",
        "initialSupply()": "2362",
        "mintTokens(uint256)": "55051",
        "name()": "infinite",
        "owner()": "2382",
        "symbol()": "infinite",
        "totalSupply()": "2349",
        "transfer(address,uint256)": "51094",
        "transferFrom(address,address,uint256)": "infinite"
      }
    },
    "methodIdentifiers": {
      "allowance(address,address)": "dd62ed3e",
      "approve(address,uint256)": "095ea7b3",
      "balanceOf(address)": "70a08231",
      "buyTokens()": "d0febe4c",
      "decimals()": "313ce567",
      "decreaseAllowance(address,uint256)": "a457c2d7",
      "increaseAllowance(address,uint256)": "39509351",
      "initialSupply()": "378dc3dc",
      "mintTokens(uint256)": "97304ced",
      "name()": "06fdde03",
      "owner()": "8da5cb5b",
      "symbol()": "95d89b41",
      "totalSupply()": "18160ddd",
      "transfer(address,uint256)": "a9059cbb",
      "transferFrom(address,address,uint256)": "23b872dd"
    }
  },
  "storageLayout": {
    "storage": [
      {
        "astId": 234,
        "contract": "durakToken.sol:durakToken",
        "label": "_balances",
        "offset": 0,
        "slot": "0",
        "type": "t_mapping(t_address,t_uint256)"
      },
      {
        "astId": 240,
        "contract": "durakToken.sol:durakToken",
        "label": "_allowances",
        "offset": 0,
        "slot": "1",
        "type": "t_mapping(t_address,t_mapping(t_address,t_uint256))"
      },
      {
        "astId": 242,
        "contract": "durakToken.sol:durakToken",
        "label": "_totalSupply",
        "offset": 0,
        "slot": "2",
        "type": "t_uint256"
      },
      {
        "astId": 244,
        "contract": "durakToken.sol:durakToken",
        "label": "_name",
        "offset": 0,
        "slot": "3",
        "type": "t_string_storage"
      },
      {
        "astId": 246,
        "contract": "durakToken.sol:durakToken",
        "label": "_symbol",
        "offset": 0,
        "slot": "4",
        "type": "t_string_storage"
      },
      {
        "astId": 141,
        "contract": "durakToken.sol:durakToken",
        "label": "owner",
        "offset": 0,
        "slot": "5",
        "type": "t_address"
      },
      {
        "astId": 143,
        "contract": "durakToken.sol:durakToken",
        "label": "initialSupply",
        "offset": 0,
        "slot": "6",
        "type": "t_uint256"
      }
    ],
    "types": {
      "t_address": {
        "encoding": "inplace",
        "label": "address",
        "numberOfBytes": "20"
      },
      "t_mapping(t_address,t_mapping(t_address,t_uint256))": {
        "encoding": "mapping",
        "key": "t_address",
        "label": "mapping(address => mapping(address => uint256))",
        "numberOfBytes": "32",
        "value": "t_mapping(t_address,t_uint256)"
      },
      "t_mapping(t_address,t_uint256)": {
        "encoding": "mapping",
        "key": "t_address",
        "label": "mapping(address => uint256)",
        "numberOfBytes": "32",
        "value": "t_uint256"
      },
      "t_string_storage": {
        "encoding": "bytes",
        "label": "string",
        "numberOfBytes": "32"
      },
      "t_uint256": {
        "encoding": "inplace",
        "label": "uint256",
        "numberOfBytes": "32"
      }
    }
  },
  "userdoc": {
    "kind": "user",
    "methods": {},
    "version": 1
  }
}