{
  "abi": [
    {
      "inputs": [
        {
          "internalType": "uint256",
          "name": "_initialSupply",
          "type": "uint256"
        }
      ],
      "stateMutability": "nonpayable",
      "type": "constructor"
    },
    {
      "anonymous": false,
      "inputs": [
        {
          "indexed": true,
          "internalType": "address",
          "name": "owner",
          "type": "address"
        },
        {
          "indexed": true,
          "internalType": "address",
          "name": "spender",
          "type": "address"
        },
        {
          "indexed": false,
          "internalType": "uint256",
          "name": "value",
          "type": "uint256"
        }
      ],
      "name": "Approval",
      "type": "event"
    },
    {
      "anonymous": false,
      "inputs": [
        {
          "indexed": true,
          "internalType": "address",
          "name": "from",
          "type": "address"
        },
        {
          "indexed": true,
          "internalType": "address",
          "name": "to",
          "type": "address"
        },
        {
          "indexed": false,
          "internalType": "uint256",
          "name": "value",
          "type": "uint256"
        }
      ],
      "name": "Transfer",
      "type": "event"
    },
    {
      "inputs": [
        {
          "internalType": "address",
          "name": "owner",
          "type": "address"
        },
        {
          "internalType": "address",
          "name": "spender",
          "type": "address"
        }
      ],
      "name": "allowance",
      "outputs": [
        {
          "internalType": "uint256",
          "name": "",
          "type": "uint256"
        }
      ],
      "stateMutability": "view",
      "type": "function"
    },
    {
      "inputs": [
        {
          "internalType": "address",
          "name": "spender",
          "type": "address"
        },
        {
          "internalType": "uint256",
          "name": "amount",
          "type": "uint256"
        }
      ],
      "name": "approve",
      "outputs": [
        {
          "internalType": "bool",
          "name": "",
          "type": "bool"
        }
      ],
      "stateMutability": "nonpayable",
      "type": "function"
    },
    {
      "inputs": [
        {
          "internalType": "address",
          "name": "account",
          "type": "address"
        }
      ],
      "name": "balanceOf",
      "outputs": [
        {
          "internalType": "uint256",
          "name": "",
          "type": "uint256"
        }
      ],
      "stateMutability": "view",
      "type": "function"
    },
    {
      "inputs": [],
      "name": "decimals",
      "outputs": [
        {
          "internalType": "uint8",
          "name": "",
          "type": "uint8"
        }
      ],
      "stateMutability": "view",
      "type": "function"
    },
    {
      "inputs": [
        {
          "internalType": "address",
          "name": "spender",
          "type": "address"
        },
        {
          "internalType": "uint256",
          "name": "subtractedValue",
          "type": "uint256"
        }
      ],
      "name": "decreaseAllowance",
      "outputs": [
        {
          "internalType": "bool",
          "name": "",
          "type": "bool"
        }
      ],
      "stateMutability": "nonpayable",
      "type": "function"
    },
    {
      "inputs": [
        {
          "internalType": "address",
          "name": "spender",
          "type": "address"
        },
        {
          "internalType": "uint256",
          "name": "addedValue",
          "type": "uint256"
        }
      ],
      "name": "increaseAllowance",
      "outputs": [
        {
          "internalType": "bool",
          "name": "",
          "type": "bool"
        }
      ],
      "stateMutability": "nonpayable",
      "type": "function"
    },
    {
      "inputs": [],
      "name": "initialSupply",
      "outputs": [
        {
          "internalType": "uint256",
          "name": "",
          "type": "uint256"
        }
      ],
      "stateMutability": "view",
      "type": "function"
    },
    {
      "inputs": [
        {
          "internalType": "uint256",
          "name": "amount",
          "type": "uint256"
        }
      ],
      "name": "mintTokens",
      "outputs": [],
      "stateMutability": "nonpayable",
      "type": "function"
    },
    {
      "inputs": [],
      "name": "name",
      "outputs": [
        {
          "internalType": "string",
          "name": "",
          "type": "string"
        }
      ],
      "stateMutability": "view",
      "type": "function"
    },
    {
      "inputs": [],
      "name": "owner",
      "outputs": [
        {
          "internalType": "address",
          "name": "",
          "type": "address"
        }
      ],
      "stateMutability": "view",
      "type": "function"
    },
    {
      "inputs": [],
      "name": "symbol",
      "outputs": [
        {
          "internalType": "string",
          "name": "",
          "type": "string"
        }
      ],
      "stateMutability": "view",
      "type": "function"
    },
    {
      "inputs": [],
      "name": "totalSupply",
      "outputs": [
        {
          "internalType": "uint256",
          "name": "",
          "type": "uint256"
        }
      ],
      "stateMutability": "view",
      "type": "function"
    },
    {
      "inputs": [
        {
          "internalType": "address",
          "name": "to",
          "type": "address"
        },
        {
          "internalType": "uint256",
          "name": "amount",
          "type": "uint256"
        }
      ],
      "name": "transfer",
      "outputs": [
        {
          "internalType": "bool",
          "name": "",
          "type": "bool"
        }
      ],
      "stateMutability": "nonpayable",
      "type": "function"
    },
    {
      "inputs": [
        {
          "internalType": "address",
          "name": "from",
          "type": "address"
        },
        {
          "internalType": "address",
          "name": "to",
          "type": "address"
        },
        {
          "internalType": "uint256",
          "name": "amount",
          "type": "uint256"
        }
      ],
      "name": "transferFrom",
      "outputs": [
        {
          "internalType": "bool",
          "name": "",
          "type": "bool"
        }
      ],
      "stateMutability": "nonpayable",
      "type": "function"
    }
  ],
  "devdoc": {
    "kind": "dev",
    "methods": {
      "allowance(address,address)": {
        "details": "See {IERC20-allowance}."
      },
      "approve(address,uint256)": {
        "details": "See {IERC20-approve}. NOTE: If `amount` is the maximum `uint256`, the allowance is not updated on `transferFrom`. This is semantically equivalent to an infinite approval. Requirements: - `spender` cannot be the zero address."
      },
      "balanceOf(address)": {
        "details": "See {IERC20-balanceOf}."
      },
      "decimals()": {
        "details": "Returns the number of decimals used to get its user representation. For example, if `decimals` equals `2`, a balance of `505` tokens should be displayed to a user as `5.05` (`505 / 10 ** 2`). Tokens usually opt for a value of 18, imitating the relationship between Ether and Wei. This is the default value returned by this function, unless it's overridden. NOTE: This information is only used for _display_ purposes: it in no way affects any of the arithmetic of the contract, including {IERC20-balanceOf} and {IERC20-transfer}."
      },
      "decreaseAllowance(address,uint256)": {
        "details": "Atomically decreases the allowance granted to `spender` by the caller. This is an alternative to {approve} that can be used as a mitigation for problems described in {IERC20-approve}. Emits an {Approval} event indicating the updated allowance. Requirements: - `spender` cannot be the zero address. - `spender` must have allowance for the caller of at least `subtractedValue`."
      },
      "increaseAllowance(address,uint256)": {
        "details": "Atomically increases the allowance granted to `spender` by the caller. This is an alternative to {approve} that can be used as a mitigation for problems described in {IERC20-approve}. Emits an {Approval} event indicating the updated allowance. Requirements: - `spender` cannot be the zero address."
      },
      "name()": {
        "details": "Returns the name of the token."
      },
      "symbol()": {
        "details": "Returns the symbol of the token, usually a shorter version of the name."
      },
      "totalSupply()": {
        "details": "See {IERC20-totalSupply}."
      },
      "transfer(address,uint256)": {
        "details": "See {IERC20-transfer}. Requirements: - `to` cannot be the zero address. - the caller must have a balance of at least `amount`."
      },
      "transferFrom(address,address,uint256)": {
        "details": "See {IERC20-transferFrom}. Emits an {Approval} event indicating the updated allowance. This is not required by the EIP. See the note at the beginning of {ERC20}. NOTE: Does not update the allowance if the current allowance is the maximum `uint256`. Requirements: - `from` and `to` cannot be the zero address. - `from` must have a balance of at least `amount`. - the caller must have allowance for ``from``'s tokens of at least `amount`."
      }
    },
    "version": 1
  },
  "evm": {
    "assembly": "    /* \"durakToken.sol\":114:567  contract durakToken is ERC20 {... */\n  mstore(0x40, 0x80)\n    /* \"durakToken.sol\":210:407  constructor(uint256 _initialSupply) ERC20(\"Durak Token\", \"DURAK\") {... */\n  callvalue\n  dup1\n  iszero\n  tag_1\n  jumpi\n  0x00\n  dup1\n  revert\ntag_1:\n  pop\n  mload(0x40)\n  sub(codesize, bytecodeSize)\n  dup1\n  bytecodeSize\n  dup4\n  codecopy\n  dup2\n  add\n  0x40\n  dup2\n  swap1\n  mstore\n  tag_2\n  swap2\n  tag_3\n  jump\t// in\ntag_2:\n    /* \"@openzeppelin/contracts/token/ERC20/ERC20.sol\":1980:2093   */\n  mload(0x40)\n  dup1\n  0x40\n  add\n  0x40\n  mstore\n  dup1\n  0x0b\n  dup2\n  mstore\n  0x20\n  add\n  shl(0xa9, 0x223ab930b5902a37b5b2b7)\n  dup2\n  mstore\n  pop\n  mload(0x40)\n  dup1\n  0x40\n  add\n  0x40\n  mstore\n  dup1\n  0x05\n  dup2\n  mstore\n  0x20\n  add\n  shl(0xd8, 0x445552414b)\n  dup2\n  mstore\n  pop\n    /* \"@openzeppelin/contracts/token/ERC20/ERC20.sol\":2054:2059   */\n  dup2\n    /* \"@openzeppelin/contracts/token/ERC20/ERC20.sol\":2046:2051   */\n  0x03\n    /* \"@openzeppelin/contracts/token/ERC20/ERC20.sol\":2046:2059   */\n  swap1\n  dup2\n  tag_7\n  swap2\n  swap1\n  tag_8\n  jump\t// in\ntag_7:\n  pop\n    /* \"@openzeppelin/contracts/token/ERC20/ERC20.sol\":2069:2076   */\n  0x04\n    /* \"@openzeppelin/contracts/token/ERC20/ERC20.sol\":2069:2086   */\n  tag_9\n    /* \"@openzeppelin/contracts/token/ERC20/ERC20.sol\":2079:2086   */\n  dup3\n    /* \"@openzeppelin/contracts/token/ERC20/ERC20.sol\":2069:2076   */\n  dup3\n    /* \"@openzeppelin/contracts/token/ERC20/ERC20.sol\":2069:2086   */\n  tag_8\n  jump\t// in\ntag_9:\n  pop\n  pop\n    /* \"durakToken.sol\":286:291  owner */\n  0x05\n    /* \"durakToken.sol\":286:304  owner = msg.sender */\n  dup1\n  sload\n  not(sub(shl(0xa0, 0x01), 0x01))\n  and\n    /* \"durakToken.sol\":294:304  msg.sender */\n  caller\n    /* \"durakToken.sol\":286:304  owner = msg.sender */\n  or\n  swap1\n  sstore\n  pop\n    /* \"durakToken.sol\":352:362  decimals() */\n  tag_11\n    /* \"@openzeppelin/contracts/token/ERC20/ERC20.sol\":3186:3188   */\n  0x12\n  swap1\n    /* \"@openzeppelin/contracts/token/ERC20/ERC20.sol\":3104:3195   */\n  jump\n    /* \"durakToken.sol\":352:362  decimals() */\ntag_11:\n    /* \"durakToken.sol\":348:362  10**decimals() */\n  tag_13\n  swap1\n    /* \"durakToken.sol\":348:350  10 */\n  0x0a\n    /* \"durakToken.sol\":348:362  10**decimals() */\n  tag_14\n  jump\t// in\ntag_13:\n    /* \"durakToken.sol\":330:363  _initialSupply * (10**decimals()) */\n  tag_15\n  swap1\n    /* \"durakToken.sol\":330:344  _initialSupply */\n  dup3\n    /* \"durakToken.sol\":330:363  _initialSupply * (10**decimals()) */\n  tag_16\n  jump\t// in\ntag_15:\n    /* \"durakToken.sol\":314:327  initialSupply */\n  0x06\n    /* \"durakToken.sol\":314:363  initialSupply = _initialSupply * (10**decimals()) */\n  dup2\n  swap1\n  sstore\n    /* \"durakToken.sol\":379:384  owner */\n  sload(0x05)\n    /* \"durakToken.sol\":373:400  _mint(owner, initialSupply) */\n  tag_17\n  swap2\n  sub(shl(0xa0, 0x01), 0x01)\n    /* \"durakToken.sol\":379:384  owner */\n  swap1\n  swap2\n  and\n  swap1\n    /* \"durakToken.sol\":373:378  _mint */\n  tag_18\n    /* \"durakToken.sol\":373:400  _mint(owner, initialSupply) */\n  jump\t// in\ntag_17:\n    /* \"durakToken.sol\":210:407  constructor(uint256 _initialSupply) ERC20(\"Durak Token\", \"DURAK\") {... */\n  pop\n    /* \"durakToken.sol\":114:567  contract durakToken is ERC20 {... */\n  jump(tag_43)\n    /* \"@openzeppelin/contracts/token/ERC20/ERC20.sol\":8520:9055   */\ntag_18:\n  sub(shl(0xa0, 0x01), 0x01)\n    /* \"@openzeppelin/contracts/token/ERC20/ERC20.sol\":8603:8624   */\n  dup3\n  and\n    /* \"@openzeppelin/contracts/token/ERC20/ERC20.sol\":8595:8660   */\n  tag_22\n  jumpi\n  mload(0x40)\n  shl(0xe5, 0x461bcd)\n  dup2\n  mstore\n    /* \"#utility.yul\":4814:4816   */\n  0x20\n    /* \"@openzeppelin/contracts/token/ERC20/ERC20.sol\":8595:8660   */\n  0x04\n  dup3\n  add\n    /* \"#utility.yul\":4796:4817   */\n  mstore\n    /* \"#utility.yul\":4853:4855   */\n  0x1f\n    /* \"#utility.yul\":4833:4851   */\n  0x24\n  dup3\n  add\n    /* \"#utility.yul\":4826:4856   */\n  mstore\n    /* \"#utility.yul\":4892:4925   */\n  0x45524332303a206d696e7420746f20746865207a65726f206164647265737300\n    /* \"#utility.yul\":4872:4890   */\n  0x44\n  dup3\n  add\n    /* \"#utility.yul\":4865:4926   */\n  mstore\n    /* \"#utility.yul\":4943:4961   */\n  0x64\n  add\n    /* \"@openzeppelin/contracts/token/ERC20/ERC20.sol\":8595:8660   */\n  mload(0x40)\n  dup1\n  swap2\n  sub\n  swap1\n  revert\ntag_22:\n    /* \"@openzeppelin/contracts/token/ERC20/ERC20.sol\":8747:8753   */\n  dup1\n    /* \"@openzeppelin/contracts/token/ERC20/ERC20.sol\":8731:8743   */\n  0x02\n  0x00\n    /* \"@openzeppelin/contracts/token/ERC20/ERC20.sol\":8731:8753   */\n  dup3\n  dup3\n  sload\n  tag_27\n  swap2\n  swap1\n  tag_28\n  jump\t// in\ntag_27:\n  swap1\n  swap2\n  sstore\n  pop\n  pop\n  sub(shl(0xa0, 0x01), 0x01)\n    /* \"@openzeppelin/contracts/token/ERC20/ERC20.sol\":8899:8917   */\n  dup3\n  and\n    /* \"@openzeppelin/contracts/token/ERC20/ERC20.sol\":8899:8908   */\n  0x00\n    /* \"@openzeppelin/contracts/token/ERC20/ERC20.sol\":8899:8917   */\n  dup2\n  dup2\n  mstore\n  0x20\n  dup2\n  dup2\n  mstore\n  0x40\n  dup1\n  dup4\n  keccak256\n    /* \"@openzeppelin/contracts/token/ERC20/ERC20.sol\":8899:8927   */\n  dup1\n  sload\n  dup7\n  add\n  swap1\n  sstore\n    /* \"@openzeppelin/contracts/token/ERC20/ERC20.sol\":8952:8989   */\n  mload\n    /* \"#utility.yul\":5248:5273   */\n  dup5\n  dup2\n  mstore\n    /* \"@openzeppelin/contracts/token/ERC20/ERC20.sol\":8952:8989   */\n  0xddf252ad1be2c89b69c2b068fc378daa952ba7f163c4a11628f55a4df523b3ef\n  swap2\n    /* \"#utility.yul\":5221:5239   */\n  add\n    /* \"@openzeppelin/contracts/token/ERC20/ERC20.sol\":8952:8989   */\n  mload(0x40)\n  dup1\n  swap2\n  sub\n  swap1\n  log3\n    /* \"@openzeppelin/contracts/token/ERC20/ERC20.sol\":8520:9055   */\n  pop\n  pop\n  jump\t// out\n    /* \"@openzeppelin/contracts/token/ERC20/ERC20.sol\":12073:12164   */\ntag_26:\n  pop\n  pop\n  pop\n  jump\t// out\n    /* \"#utility.yul\":14:198   */\ntag_3:\n    /* \"#utility.yul\":84:90   */\n  0x00\n    /* \"#utility.yul\":137:139   */\n  0x20\n    /* \"#utility.yul\":125:134   */\n  dup3\n    /* \"#utility.yul\":116:123   */\n  dup5\n    /* \"#utility.yul\":112:135   */\n  sub\n    /* \"#utility.yul\":108:140   */\n  slt\n    /* \"#utility.yul\":105:157   */\n  iszero\n  tag_45\n  jumpi\n    /* \"#utility.yul\":153:154   */\n  0x00\n    /* \"#utility.yul\":150:151   */\n  dup1\n    /* \"#utility.yul\":143:155   */\n  revert\n    /* \"#utility.yul\":105:157   */\ntag_45:\n  pop\n    /* \"#utility.yul\":176:192   */\n  mload\n  swap2\n    /* \"#utility.yul\":14:198   */\n  swap1\n  pop\n  jump\t// out\n    /* \"#utility.yul\":203:330   */\ntag_35:\n    /* \"#utility.yul\":264:274   */\n  0x4e487b71\n    /* \"#utility.yul\":259:262   */\n  0xe0\n    /* \"#utility.yul\":255:275   */\n  shl\n    /* \"#utility.yul\":252:253   */\n  0x00\n    /* \"#utility.yul\":245:276   */\n  mstore\n    /* \"#utility.yul\":295:299   */\n  0x41\n    /* \"#utility.yul\":292:293   */\n  0x04\n    /* \"#utility.yul\":285:300   */\n  mstore\n    /* \"#utility.yul\":319:323   */\n  0x24\n    /* \"#utility.yul\":316:317   */\n  0x00\n    /* \"#utility.yul\":309:324   */\n  revert\n    /* \"#utility.yul\":335:715   */\ntag_36:\n    /* \"#utility.yul\":414:415   */\n  0x01\n    /* \"#utility.yul\":410:422   */\n  dup2\n  dup2\n  shr\n  swap1\n    /* \"#utility.yul\":457:469   */\n  dup3\n  and\n  dup1\n    /* \"#utility.yul\":478:539   */\n  tag_48\n  jumpi\n    /* \"#utility.yul\":532:536   */\n  0x7f\n    /* \"#utility.yul\":524:530   */\n  dup3\n    /* \"#utility.yul\":520:537   */\n  and\n    /* \"#utility.yul\":510:537   */\n  swap2\n  pop\n    /* \"#utility.yul\":478:539   */\ntag_48:\n    /* \"#utility.yul\":585:587   */\n  0x20\n    /* \"#utility.yul\":577:583   */\n  dup3\n    /* \"#utility.yul\":574:588   */\n  lt\n    /* \"#utility.yul\":554:572   */\n  dup2\n    /* \"#utility.yul\":551:589   */\n  sub\n    /* \"#utility.yul\":548:709   */\n  tag_49\n  jumpi\n    /* \"#utility.yul\":631:641   */\n  0x4e487b71\n    /* \"#utility.yul\":626:629   */\n  0xe0\n    /* \"#utility.yul\":622:642   */\n  shl\n    /* \"#utility.yul\":619:620   */\n  0x00\n    /* \"#utility.yul\":612:643   */\n  mstore\n    /* \"#utility.yul\":666:670   */\n  0x22\n    /* \"#utility.yul\":663:664   */\n  0x04\n    /* \"#utility.yul\":656:671   */\n  mstore\n    /* \"#utility.yul\":694:698   */\n  0x24\n    /* \"#utility.yul\":691:692   */\n  0x00\n    /* \"#utility.yul\":684:699   */\n  revert\n    /* \"#utility.yul\":548:709   */\ntag_49:\n  pop\n    /* \"#utility.yul\":335:715   */\n  swap2\n  swap1\n  pop\n  jump\t// out\n    /* \"#utility.yul\":846:1391   */\ntag_38:\n    /* \"#utility.yul\":948:950   */\n  0x1f\n    /* \"#utility.yul\":943:946   */\n  dup3\n    /* \"#utility.yul\":940:951   */\n  gt\n    /* \"#utility.yul\":937:1385   */\n  iszero\n  tag_26\n  jumpi\n    /* \"#utility.yul\":984:985   */\n  0x00\n    /* \"#utility.yul\":1009:1014   */\n  dup2\n    /* \"#utility.yul\":1005:1007   */\n  dup2\n    /* \"#utility.yul\":998:1015   */\n  mstore\n    /* \"#utility.yul\":1054:1058   */\n  0x20\n    /* \"#utility.yul\":1050:1052   */\n  dup2\n    /* \"#utility.yul\":1040:1059   */\n  keccak256\n    /* \"#utility.yul\":1124:1126   */\n  0x1f\n    /* \"#utility.yul\":1112:1122   */\n  dup6\n    /* \"#utility.yul\":1108:1127   */\n  add\n    /* \"#utility.yul\":1105:1106   */\n  0x05\n    /* \"#utility.yul\":1101:1128   */\n  shr\n    /* \"#utility.yul\":1095:1099   */\n  dup2\n    /* \"#utility.yul\":1091:1129   */\n  add\n    /* \"#utility.yul\":1160:1164   */\n  0x20\n    /* \"#utility.yul\":1148:1158   */\n  dup7\n    /* \"#utility.yul\":1145:1165   */\n  lt\n    /* \"#utility.yul\":1142:1189   */\n  iszero\n  tag_53\n  jumpi\n  pop\n    /* \"#utility.yul\":1183:1187   */\n  dup1\n    /* \"#utility.yul\":1142:1189   */\ntag_53:\n    /* \"#utility.yul\":1238:1240   */\n  0x1f\n    /* \"#utility.yul\":1233:1236   */\n  dup6\n    /* \"#utility.yul\":1229:1241   */\n  add\n    /* \"#utility.yul\":1226:1227   */\n  0x05\n    /* \"#utility.yul\":1222:1242   */\n  shr\n    /* \"#utility.yul\":1216:1220   */\n  dup3\n    /* \"#utility.yul\":1212:1243   */\n  add\n    /* \"#utility.yul\":1202:1243   */\n  swap2\n  pop\n    /* \"#utility.yul\":1293:1375   */\ntag_54:\n    /* \"#utility.yul\":1311:1313   */\n  dup2\n    /* \"#utility.yul\":1304:1309   */\n  dup2\n    /* \"#utility.yul\":1301:1314   */\n  lt\n    /* \"#utility.yul\":1293:1375   */\n  iszero\n  tag_56\n  jumpi\n    /* \"#utility.yul\":1356:1373   */\n  dup3\n  dup2\n  sstore\n    /* \"#utility.yul\":1337:1338   */\n  0x01\n    /* \"#utility.yul\":1326:1339   */\n  add\n    /* \"#utility.yul\":1293:1375   */\n  jump(tag_54)\ntag_56:\n    /* \"#utility.yul\":1297:1300   */\n  pop\n  pop\n  pop\n    /* \"#utility.yul\":846:1391   */\n  pop\n  pop\n  pop\n  jump\t// out\n    /* \"#utility.yul\":1567:2919   */\ntag_8:\n    /* \"#utility.yul\":1687:1697   */\n  dup2\n  mload\n  sub(shl(0x40, 0x01), 0x01)\n    /* \"#utility.yul\":1709:1739   */\n  dup2\n  gt\n    /* \"#utility.yul\":1706:1762   */\n  iszero\n  tag_60\n  jumpi\n    /* \"#utility.yul\":1742:1760   */\n  tag_60\n  tag_35\n  jump\t// in\ntag_60:\n    /* \"#utility.yul\":1771:1868   */\n  tag_61\n    /* \"#utility.yul\":1861:1867   */\n  dup2\n    /* \"#utility.yul\":1821:1859   */\n  tag_62\n    /* \"#utility.yul\":1853:1857   */\n  dup5\n    /* \"#utility.yul\":1847:1858   */\n  sload\n    /* \"#utility.yul\":1821:1859   */\n  tag_36\n  jump\t// in\ntag_62:\n    /* \"#utility.yul\":1815:1819   */\n  dup5\n    /* \"#utility.yul\":1771:1868   */\n  tag_38\n  jump\t// in\ntag_61:\n    /* \"#utility.yul\":1923:1927   */\n  0x20\n  dup1\n    /* \"#utility.yul\":1987:1989   */\n  0x1f\n    /* \"#utility.yul\":1976:1990   */\n  dup4\n  gt\n    /* \"#utility.yul\":2004:2005   */\n  0x01\n    /* \"#utility.yul\":1999:2662   */\n  dup2\n  eq\n  tag_64\n  jumpi\n    /* \"#utility.yul\":2706:2707   */\n  0x00\n    /* \"#utility.yul\":2723:2729   */\n  dup5\n    /* \"#utility.yul\":2720:2809   */\n  iszero\n  tag_65\n  jumpi\n  pop\n    /* \"#utility.yul\":2775:2794   */\n  dup6\n  dup4\n  add\n    /* \"#utility.yul\":2769:2795   */\n  mload\n    /* \"#utility.yul\":2720:2809   */\ntag_65:\n  not(0x00)\n    /* \"#utility.yul\":1524:1525   */\n  0x03\n    /* \"#utility.yul\":1520:1531   */\n  dup7\n  swap1\n  shl\n    /* \"#utility.yul\":1516:1540   */\n  shr\n    /* \"#utility.yul\":1512:1541   */\n  not\n    /* \"#utility.yul\":1502:1542   */\n  and\n    /* \"#utility.yul\":1548:1549   */\n  0x01\n    /* \"#utility.yul\":1544:1555   */\n  dup6\n  swap1\n  shl\n    /* \"#utility.yul\":1499:1556   */\n  or\n    /* \"#utility.yul\":2822:2903   */\n  dup6\n  sstore\n    /* \"#utility.yul\":1969:2913   */\n  jump(tag_56)\n    /* \"#utility.yul\":1999:2662   */\ntag_64:\n    /* \"#utility.yul\":793:794   */\n  0x00\n    /* \"#utility.yul\":786:800   */\n  dup6\n  dup2\n  mstore\n    /* \"#utility.yul\":830:834   */\n  0x20\n    /* \"#utility.yul\":817:835   */\n  dup2\n  keccak256\n  not(0x1f)\n    /* \"#utility.yul\":2035:2055   */\n  dup7\n  and\n  swap2\n    /* \"#utility.yul\":2153:2389   */\ntag_68:\n    /* \"#utility.yul\":2167:2174   */\n  dup3\n    /* \"#utility.yul\":2164:2165   */\n  dup2\n    /* \"#utility.yul\":2161:2175   */\n  lt\n    /* \"#utility.yul\":2153:2389   */\n  iszero\n  tag_70\n  jumpi\n    /* \"#utility.yul\":2256:2275   */\n  dup9\n  dup7\n  add\n    /* \"#utility.yul\":2250:2276   */\n  mload\n    /* \"#utility.yul\":2235:2277   */\n  dup3\n  sstore\n    /* \"#utility.yul\":2348:2375   */\n  swap5\n  dup5\n  add\n  swap5\n    /* \"#utility.yul\":2316:2317   */\n  0x01\n    /* \"#utility.yul\":2304:2318   */\n  swap1\n  swap2\n  add\n  swap1\n    /* \"#utility.yul\":2183:2202   */\n  dup5\n  add\n    /* \"#utility.yul\":2153:2389   */\n  jump(tag_68)\ntag_70:\n    /* \"#utility.yul\":2157:2160   */\n  pop\n    /* \"#utility.yul\":2417:2423   */\n  dup6\n    /* \"#utility.yul\":2408:2415   */\n  dup3\n    /* \"#utility.yul\":2405:2424   */\n  lt\n    /* \"#utility.yul\":2402:2603   */\n  iszero\n  tag_71\n  jumpi\n    /* \"#utility.yul\":2478:2497   */\n  dup8\n  dup6\n  add\n    /* \"#utility.yul\":2472:2498   */\n  mload\n  not(0x00)\n    /* \"#utility.yul\":2561:2562   */\n  0x03\n    /* \"#utility.yul\":2557:2571   */\n  dup9\n  swap1\n  shl\n    /* \"#utility.yul\":2573:2576   */\n  0xf8\n    /* \"#utility.yul\":2553:2577   */\n  and\n    /* \"#utility.yul\":2549:2586   */\n  shr\n    /* \"#utility.yul\":2545:2587   */\n  not\n    /* \"#utility.yul\":2530:2588   */\n  and\n    /* \"#utility.yul\":2515:2589   */\n  dup2\n  sstore\n    /* \"#utility.yul\":2402:2603   */\ntag_71:\n  pop\n  pop\n  pop\n  pop\n  pop\n    /* \"#utility.yul\":2649:2650   */\n  0x01\n    /* \"#utility.yul\":2633:2647   */\n  swap1\n  dup2\n  shl\n    /* \"#utility.yul\":2629:2651   */\n  add\n    /* \"#utility.yul\":2616:2652   */\n  swap1\n  sstore\n  pop\n    /* \"#utility.yul\":1567:2919   */\n  jump\t// out\n    /* \"#utility.yul\":2924:3051   */\ntag_40:\n    /* \"#utility.yul\":2985:2995   */\n  0x4e487b71\n    /* \"#utility.yul\":2980:2983   */\n  0xe0\n    /* \"#utility.yul\":2976:2996   */\n  shl\n    /* \"#utility.yul\":2973:2974   */\n  0x00\n    /* \"#utility.yul\":2966:2997   */\n  mstore\n    /* \"#utility.yul\":3016:3020   */\n  0x11\n    /* \"#utility.yul\":3013:3014   */\n  0x04\n    /* \"#utility.yul\":3006:3021   */\n  mstore\n    /* \"#utility.yul\":3040:3044   */\n  0x24\n    /* \"#utility.yul\":3037:3038   */\n  0x00\n    /* \"#utility.yul\":3030:3045   */\n  revert\n    /* \"#utility.yul\":3056:3478   */\ntag_41:\n    /* \"#utility.yul\":3145:3146   */\n  0x01\n    /* \"#utility.yul\":3188:3193   */\n  dup2\n    /* \"#utility.yul\":3145:3146   */\n  dup2\n    /* \"#utility.yul\":3202:3472   */\ntag_74:\n    /* \"#utility.yul\":3223:3230   */\n  dup1\n    /* \"#utility.yul\":3213:3221   */\n  dup6\n    /* \"#utility.yul\":3210:3231   */\n  gt\n    /* \"#utility.yul\":3202:3472   */\n  iszero\n  tag_76\n  jumpi\n    /* \"#utility.yul\":3282:3286   */\n  dup2\n    /* \"#utility.yul\":3278:3279   */\n  0x00\n    /* \"#utility.yul\":3274:3280   */\n  not\n    /* \"#utility.yul\":3270:3287   */\n  div\n    /* \"#utility.yul\":3264:3268   */\n  dup3\n    /* \"#utility.yul\":3261:3288   */\n  gt\n    /* \"#utility.yul\":3258:3311   */\n  iszero\n  tag_78\n  jumpi\n    /* \"#utility.yul\":3291:3309   */\n  tag_78\n  tag_40\n  jump\t// in\ntag_78:\n    /* \"#utility.yul\":3341:3348   */\n  dup1\n    /* \"#utility.yul\":3331:3339   */\n  dup6\n    /* \"#utility.yul\":3327:3349   */\n  and\n    /* \"#utility.yul\":3324:3379   */\n  iszero\n  tag_79\n  jumpi\n    /* \"#utility.yul\":3361:3377   */\n  swap2\n  dup2\n  mul\n  swap2\n    /* \"#utility.yul\":3324:3379   */\ntag_79:\n    /* \"#utility.yul\":3440:3462   */\n  swap4\n  dup5\n  shr\n  swap4\n    /* \"#utility.yul\":3400:3415   */\n  swap1\n  dup1\n  mul\n  swap1\n    /* \"#utility.yul\":3202:3472   */\n  jump(tag_74)\ntag_76:\n    /* \"#utility.yul\":3206:3209   */\n  pop\n    /* \"#utility.yul\":3056:3478   */\n  swap3\n  pop\n  swap3\n  swap1\n  pop\n  jump\t// out\n    /* \"#utility.yul\":3483:4289   */\ntag_42:\n    /* \"#utility.yul\":3532:3537   */\n  0x00\n    /* \"#utility.yul\":3562:3570   */\n  dup3\n    /* \"#utility.yul\":3552:3632   */\n  tag_81\n  jumpi\n  pop\n    /* \"#utility.yul\":3603:3604   */\n  0x01\n    /* \"#utility.yul\":3617:3622   */\n  jump(tag_80)\n    /* \"#utility.yul\":3552:3632   */\ntag_81:\n    /* \"#utility.yul\":3651:3655   */\n  dup2\n    /* \"#utility.yul\":3641:3717   */\n  tag_82\n  jumpi\n  pop\n    /* \"#utility.yul\":3688:3689   */\n  0x00\n    /* \"#utility.yul\":3702:3707   */\n  jump(tag_80)\n    /* \"#utility.yul\":3641:3717   */\ntag_82:\n    /* \"#utility.yul\":3733:3737   */\n  dup2\n    /* \"#utility.yul\":3751:3752   */\n  0x01\n    /* \"#utility.yul\":3746:3805   */\n  dup2\n  eq\n  tag_84\n  jumpi\n    /* \"#utility.yul\":3819:3820   */\n  0x02\n    /* \"#utility.yul\":3814:3944   */\n  dup2\n  eq\n  tag_85\n  jumpi\n    /* \"#utility.yul\":3726:3944   */\n  jump(tag_83)\n    /* \"#utility.yul\":3746:3805   */\ntag_84:\n    /* \"#utility.yul\":3776:3777   */\n  0x01\n    /* \"#utility.yul\":3767:3777   */\n  swap2\n  pop\n    /* \"#utility.yul\":3790:3795   */\n  pop\n  jump(tag_80)\n    /* \"#utility.yul\":3814:3944   */\ntag_85:\n    /* \"#utility.yul\":3851:3854   */\n  0xff\n    /* \"#utility.yul\":3841:3849   */\n  dup5\n    /* \"#utility.yul\":3838:3855   */\n  gt\n    /* \"#utility.yul\":3835:3878   */\n  iszero\n  tag_87\n  jumpi\n    /* \"#utility.yul\":3858:3876   */\n  tag_87\n  tag_40\n  jump\t// in\ntag_87:\n  pop\n  pop\n    /* \"#utility.yul\":3914:3915   */\n  0x01\n    /* \"#utility.yul\":3900:3916   */\n  dup3\n  shl\n    /* \"#utility.yul\":3929:3934   */\n  jump(tag_80)\n    /* \"#utility.yul\":3726:3944   */\ntag_83:\n  pop\n    /* \"#utility.yul\":4028:4030   */\n  0x20\n    /* \"#utility.yul\":4018:4026   */\n  dup4\n    /* \"#utility.yul\":4015:4031   */\n  lt\n    /* \"#utility.yul\":4009:4012   */\n  0x0133\n    /* \"#utility.yul\":4003:4007   */\n  dup4\n    /* \"#utility.yul\":4000:4013   */\n  lt\n    /* \"#utility.yul\":3996:4032   */\n  and\n    /* \"#utility.yul\":3990:3992   */\n  0x4e\n    /* \"#utility.yul\":3980:3988   */\n  dup5\n    /* \"#utility.yul\":3977:3993   */\n  lt\n    /* \"#utility.yul\":3972:3974   */\n  0x0b\n    /* \"#utility.yul\":3966:3970   */\n  dup5\n    /* \"#utility.yul\":3963:3975   */\n  lt\n    /* \"#utility.yul\":3959:3994   */\n  and\n    /* \"#utility.yul\":3956:4033   */\n  or\n    /* \"#utility.yul\":3953:4112   */\n  iszero\n  tag_88\n  jumpi\n  pop\n    /* \"#utility.yul\":4065:4084   */\n  dup2\n  dup2\n  exp\n    /* \"#utility.yul\":4097:4102   */\n  jump(tag_80)\n    /* \"#utility.yul\":3953:4112   */\ntag_88:\n    /* \"#utility.yul\":4144:4178   */\n  tag_89\n    /* \"#utility.yul\":4169:4177   */\n  dup4\n    /* \"#utility.yul\":4163:4167   */\n  dup4\n    /* \"#utility.yul\":4144:4178   */\n  tag_41\n  jump\t// in\ntag_89:\n    /* \"#utility.yul\":4214:4220   */\n  dup1\n    /* \"#utility.yul\":4210:4211   */\n  0x00\n    /* \"#utility.yul\":4206:4212   */\n  not\n    /* \"#utility.yul\":4202:4221   */\n  div\n    /* \"#utility.yul\":4193:4200   */\n  dup3\n    /* \"#utility.yul\":4190:4222   */\n  gt\n    /* \"#utility.yul\":4187:4245   */\n  iszero\n  tag_91\n  jumpi\n    /* \"#utility.yul\":4225:4243   */\n  tag_91\n  tag_40\n  jump\t// in\ntag_91:\n    /* \"#utility.yul\":4263:4283   */\n  mul\n  swap1\n  pop\n    /* \"#utility.yul\":3483:4289   */\ntag_80:\n  swap3\n  swap2\n  pop\n  pop\n  jump\t// out\n    /* \"#utility.yul\":4294:4434   */\ntag_14:\n    /* \"#utility.yul\":4352:4357   */\n  0x00\n    /* \"#utility.yul\":4381:4428   */\n  tag_93\n    /* \"#utility.yul\":4422:4426   */\n  0xff\n    /* \"#utility.yul\":4412:4420   */\n  dup5\n    /* \"#utility.yul\":4408:4427   */\n  and\n    /* \"#utility.yul\":4402:4406   */\n  dup4\n    /* \"#utility.yul\":4381:4428   */\n  tag_42\n  jump\t// in\ntag_93:\n    /* \"#utility.yul\":4372:4428   */\n  swap4\n    /* \"#utility.yul\":4294:4434   */\n  swap3\n  pop\n  pop\n  pop\n  jump\t// out\n    /* \"#utility.yul\":4439:4607   */\ntag_16:\n    /* \"#utility.yul\":4512:4521   */\n  dup1\n  dup3\n  mul\n    /* \"#utility.yul\":4543:4552   */\n  dup2\n  iszero\n    /* \"#utility.yul\":4560:4575   */\n  dup3\n  dup3\n  div\n    /* \"#utility.yul\":4554:4576   */\n  dup5\n  eq\n    /* \"#utility.yul\":4540:4577   */\n  or\n    /* \"#utility.yul\":4530:4601   */\n  tag_80\n  jumpi\n    /* \"#utility.yul\":4581:4599   */\n  tag_80\n  tag_40\n  jump\t// in\n    /* \"#utility.yul\":4972:5097   */\ntag_28:\n    /* \"#utility.yul\":5037:5046   */\n  dup1\n  dup3\n  add\n    /* \"#utility.yul\":5058:5068   */\n  dup1\n  dup3\n  gt\n    /* \"#utility.yul\":5055:5091   */\n  iszero\n  tag_80\n  jumpi\n    /* \"#utility.yul\":5071:5089   */\n  tag_80\n  tag_40\n  jump\t// in\n    /* \"#utility.yul\":5102:5279   */\ntag_43:\n    /* \"durakToken.sol\":114:567  contract durakToken is ERC20 {... */\n  dataSize(sub_0)\n  dup1\n  dataOffset(sub_0)\n  0x00\n  codecopy\n  0x00\n  return\nstop\n\nsub_0: assembly {\n        /* \"durakToken.sol\":114:567  contract durakToken is ERC20 {... */\n      mstore(0x40, 0x80)\n      callvalue\n      dup1\n      iszero\n      tag_1\n      jumpi\n      0x00\n      dup1\n      revert\n    tag_1:\n      pop\n      jumpi(tag_2, lt(calldatasize, 0x04))\n      shr(0xe0, calldataload(0x00))\n      dup1\n      0x70a08231\n      gt\n      tag_17\n      jumpi\n      dup1\n      0x97304ced\n      gt\n      tag_18\n      jumpi\n      dup1\n      0x97304ced\n      eq\n      tag_13\n      jumpi\n      dup1\n      0xa457c2d7\n      eq\n      tag_14\n      jumpi\n      dup1\n      0xa9059cbb\n      eq\n      tag_15\n      jumpi\n      dup1\n      0xdd62ed3e\n      eq\n      tag_16\n      jumpi\n      0x00\n      dup1\n      revert\n    tag_18:\n      dup1\n      0x70a08231\n      eq\n      tag_10\n      jumpi\n      dup1\n      0x8da5cb5b\n      eq\n      tag_11\n      jumpi\n      dup1\n      0x95d89b41\n      eq\n      tag_12\n      jumpi\n      0x00\n      dup1\n      revert\n    tag_17:\n      dup1\n      0x23b872dd\n      gt\n      tag_19\n      jumpi\n      dup1\n      0x23b872dd\n      eq\n      tag_6\n      jumpi\n      dup1\n      0x313ce567\n      eq\n      tag_7\n      jumpi\n      dup1\n      0x378dc3dc\n      eq\n      tag_8\n      jumpi\n      dup1\n      0x39509351\n      eq\n      tag_9\n      jumpi\n      0x00\n      dup1\n      revert\n    tag_19:\n      dup1\n      0x06fdde03\n      eq\n      tag_3\n      jumpi\n      dup1\n      0x095ea7b3\n      eq\n      tag_4\n      jumpi\n      dup1\n      0x18160ddd\n      eq\n      tag_5\n      jumpi\n    tag_2:\n      0x00\n      dup1\n      revert\n        /* \"@openzeppelin/contracts/token/ERC20/ERC20.sol\":2158:2256   */\n    tag_3:\n      tag_20\n      tag_21\n      jump\t// in\n    tag_20:\n      mload(0x40)\n      tag_22\n      swap2\n      swap1\n      tag_23\n      jump\t// in\n    tag_22:\n      mload(0x40)\n      dup1\n      swap2\n      sub\n      swap1\n      return\n        /* \"@openzeppelin/contracts/token/ERC20/ERC20.sol\":4444:4641   */\n    tag_4:\n      tag_24\n      tag_25\n      calldatasize\n      0x04\n      tag_26\n      jump\t// in\n    tag_25:\n      tag_27\n      jump\t// in\n    tag_24:\n      mload(0x40)\n        /* \"#utility.yul\":1192:1206   */\n      swap1\n      iszero\n        /* \"#utility.yul\":1185:1207   */\n      iszero\n        /* \"#utility.yul\":1167:1208   */\n      dup2\n      mstore\n        /* \"#utility.yul\":1155:1157   */\n      0x20\n        /* \"#utility.yul\":1140:1158   */\n      add\n        /* \"@openzeppelin/contracts/token/ERC20/ERC20.sol\":4444:4641   */\n      tag_22\n        /* \"#utility.yul\":1027:1214   */\n      jump\n        /* \"@openzeppelin/contracts/token/ERC20/ERC20.sol\":3255:3361   */\n    tag_5:\n        /* \"@openzeppelin/contracts/token/ERC20/ERC20.sol\":3342:3354   */\n      sload(0x02)\n        /* \"@openzeppelin/contracts/token/ERC20/ERC20.sol\":3255:3361   */\n    tag_30:\n      mload(0x40)\n        /* \"#utility.yul\":1365:1390   */\n      swap1\n      dup2\n      mstore\n        /* \"#utility.yul\":1353:1355   */\n      0x20\n        /* \"#utility.yul\":1338:1356   */\n      add\n        /* \"@openzeppelin/contracts/token/ERC20/ERC20.sol\":3255:3361   */\n      tag_22\n        /* \"#utility.yul\":1219:1396   */\n      jump\n        /* \"@openzeppelin/contracts/token/ERC20/ERC20.sol\":5203:5459   */\n    tag_6:\n      tag_24\n      tag_35\n      calldatasize\n      0x04\n      tag_36\n      jump\t// in\n    tag_35:\n      tag_37\n      jump\t// in\n        /* \"@openzeppelin/contracts/token/ERC20/ERC20.sol\":3104:3195   */\n    tag_7:\n      mload(0x40)\n        /* \"@openzeppelin/contracts/token/ERC20/ERC20.sol\":3186:3188   */\n      0x12\n        /* \"#utility.yul\":1876:1912   */\n      dup2\n      mstore\n        /* \"#utility.yul\":1864:1866   */\n      0x20\n        /* \"#utility.yul\":1849:1867   */\n      add\n        /* \"@openzeppelin/contracts/token/ERC20/ERC20.sol\":3104:3195   */\n      tag_22\n        /* \"#utility.yul\":1734:1918   */\n      jump\n        /* \"durakToken.sol\":175:203  uint256 public initialSupply */\n    tag_8:\n      tag_30\n      sload(0x06)\n      dup2\n      jump\n        /* \"@openzeppelin/contracts/token/ERC20/ERC20.sol\":5854:6088   */\n    tag_9:\n      tag_24\n      tag_47\n      calldatasize\n      0x04\n      tag_26\n      jump\t// in\n    tag_47:\n      tag_48\n      jump\t// in\n        /* \"@openzeppelin/contracts/token/ERC20/ERC20.sol\":3419:3544   */\n    tag_10:\n      tag_30\n      tag_51\n      calldatasize\n      0x04\n      tag_52\n      jump\t// in\n    tag_51:\n      sub(shl(0xa0, 0x01), 0x01)\n        /* \"@openzeppelin/contracts/token/ERC20/ERC20.sol\":3519:3537   */\n      and\n        /* \"@openzeppelin/contracts/token/ERC20/ERC20.sol\":3493:3500   */\n      0x00\n        /* \"@openzeppelin/contracts/token/ERC20/ERC20.sol\":3519:3537   */\n      swap1\n      dup2\n      mstore\n      0x20\n      dup2\n      swap1\n      mstore\n      0x40\n      swap1\n      keccak256\n      sload\n      swap1\n        /* \"@openzeppelin/contracts/token/ERC20/ERC20.sol\":3419:3544   */\n      jump\n        /* \"durakToken.sol\":149:169  address public owner */\n    tag_11:\n      sload(0x05)\n      tag_55\n      swap1\n      sub(shl(0xa0, 0x01), 0x01)\n      and\n      dup2\n      jump\n    tag_55:\n      mload(0x40)\n      sub(shl(0xa0, 0x01), 0x01)\n        /* \"#utility.yul\":2278:2333   */\n      swap1\n      swap2\n      and\n        /* \"#utility.yul\":2260:2334   */\n      dup2\n      mstore\n        /* \"#utility.yul\":2248:2250   */\n      0x20\n        /* \"#utility.yul\":2233:2251   */\n      add\n        /* \"durakToken.sol\":149:169  address public owner */\n      tag_22\n        /* \"#utility.yul\":2114:2340   */\n      jump\n        /* \"@openzeppelin/contracts/token/ERC20/ERC20.sol\":2369:2471   */\n    tag_12:\n      tag_20\n      tag_60\n      jump\t// in\n        /* \"durakToken.sol\":413:565  function mintTokens(uint256 amount) public {... */\n    tag_13:\n      tag_62\n      tag_63\n      calldatasize\n      0x04\n      tag_64\n      jump\t// in\n    tag_63:\n      tag_65\n      jump\t// in\n    tag_62:\n      stop\n        /* \"@openzeppelin/contracts/token/ERC20/ERC20.sol\":6575:7002   */\n    tag_14:\n      tag_24\n      tag_67\n      calldatasize\n      0x04\n      tag_26\n      jump\t// in\n    tag_67:\n      tag_68\n      jump\t// in\n        /* \"@openzeppelin/contracts/token/ERC20/ERC20.sol\":3740:3929   */\n    tag_15:\n      tag_24\n      tag_71\n      calldatasize\n      0x04\n      tag_26\n      jump\t// in\n    tag_71:\n      tag_72\n      jump\t// in\n        /* \"@openzeppelin/contracts/token/ERC20/ERC20.sol\":3987:4136   */\n    tag_16:\n      tag_30\n      tag_75\n      calldatasize\n      0x04\n      tag_76\n      jump\t// in\n    tag_75:\n      sub(shl(0xa0, 0x01), 0x01)\n        /* \"@openzeppelin/contracts/token/ERC20/ERC20.sol\":4102:4120   */\n      swap2\n      dup3\n      and\n        /* \"@openzeppelin/contracts/token/ERC20/ERC20.sol\":4076:4083   */\n      0x00\n        /* \"@openzeppelin/contracts/token/ERC20/ERC20.sol\":4102:4120   */\n      swap1\n      dup2\n      mstore\n        /* \"@openzeppelin/contracts/token/ERC20/ERC20.sol\":4102:4113   */\n      0x01\n        /* \"@openzeppelin/contracts/token/ERC20/ERC20.sol\":4102:4120   */\n      0x20\n      swap1\n      dup2\n      mstore\n      0x40\n      dup1\n      dup4\n      keccak256\n        /* \"@openzeppelin/contracts/token/ERC20/ERC20.sol\":4102:4129   */\n      swap4\n      swap1\n      swap5\n      and\n      dup3\n      mstore\n      swap2\n      swap1\n      swap2\n      mstore\n      keccak256\n      sload\n      swap1\n        /* \"@openzeppelin/contracts/token/ERC20/ERC20.sol\":3987:4136   */\n      jump\n        /* \"@openzeppelin/contracts/token/ERC20/ERC20.sol\":2158:2256   */\n    tag_21:\n        /* \"@openzeppelin/contracts/token/ERC20/ERC20.sol\":2212:2225   */\n      0x60\n        /* \"@openzeppelin/contracts/token/ERC20/ERC20.sol\":2244:2249   */\n      0x03\n        /* \"@openzeppelin/contracts/token/ERC20/ERC20.sol\":2237:2249   */\n      dup1\n      sload\n      tag_80\n      swap1\n      tag_81\n      jump\t// in\n    tag_80:\n      dup1\n      0x1f\n      add\n      0x20\n      dup1\n      swap2\n      div\n      mul\n      0x20\n      add\n      mload(0x40)\n      swap1\n      dup2\n      add\n      0x40\n      mstore\n      dup1\n      swap3\n      swap2\n      swap1\n      dup2\n      dup2\n      mstore\n      0x20\n      add\n      dup3\n      dup1\n      sload\n      tag_82\n      swap1\n      tag_81\n      jump\t// in\n    tag_82:\n      dup1\n      iszero\n      tag_83\n      jumpi\n      dup1\n      0x1f\n      lt\n      tag_84\n      jumpi\n      0x0100\n      dup1\n      dup4\n      sload\n      div\n      mul\n      dup4\n      mstore\n      swap2\n      0x20\n      add\n      swap2\n      jump(tag_83)\n    tag_84:\n      dup3\n      add\n      swap2\n      swap1\n      0x00\n      mstore\n      keccak256(0x00, 0x20)\n      swap1\n    tag_85:\n      dup2\n      sload\n      dup2\n      mstore\n      swap1\n      0x01\n      add\n      swap1\n      0x20\n      add\n      dup1\n      dup4\n      gt\n      tag_85\n      jumpi\n      dup3\n      swap1\n      sub\n      0x1f\n      and\n      dup3\n      add\n      swap2\n    tag_83:\n      pop\n      pop\n      pop\n      pop\n      pop\n      swap1\n      pop\n        /* \"@openzeppelin/contracts/token/ERC20/ERC20.sol\":2158:2256   */\n      swap1\n      jump\t// out\n        /* \"@openzeppelin/contracts/token/ERC20/ERC20.sol\":4444:4641   */\n    tag_27:\n        /* \"@openzeppelin/contracts/token/ERC20/ERC20.sol\":4527:4531   */\n      0x00\n        /* \"@openzeppelin/contracts/utils/Context.sol\":719:729   */\n      caller\n        /* \"@openzeppelin/contracts/token/ERC20/ERC20.sol\":4581:4613   */\n      tag_89\n        /* \"@openzeppelin/contracts/utils/Context.sol\":719:729   */\n      dup2\n        /* \"@openzeppelin/contracts/token/ERC20/ERC20.sol\":4597:4604   */\n      dup6\n        /* \"@openzeppelin/contracts/token/ERC20/ERC20.sol\":4606:4612   */\n      dup6\n        /* \"@openzeppelin/contracts/token/ERC20/ERC20.sol\":4581:4589   */\n      tag_90\n        /* \"@openzeppelin/contracts/token/ERC20/ERC20.sol\":4581:4613   */\n      jump\t// in\n    tag_89:\n        /* \"@openzeppelin/contracts/token/ERC20/ERC20.sol\":4630:4634   */\n      0x01\n        /* \"@openzeppelin/contracts/token/ERC20/ERC20.sol\":4623:4634   */\n      swap2\n      pop\n      pop\n        /* \"@openzeppelin/contracts/token/ERC20/ERC20.sol\":4444:4641   */\n    tag_86:\n      swap3\n      swap2\n      pop\n      pop\n      jump\t// out\n        /* \"@openzeppelin/contracts/token/ERC20/ERC20.sol\":5203:5459   */\n    tag_37:\n        /* \"@openzeppelin/contracts/token/ERC20/ERC20.sol\":5300:5304   */\n      0x00\n        /* \"@openzeppelin/contracts/utils/Context.sol\":719:729   */\n      caller\n        /* \"@openzeppelin/contracts/token/ERC20/ERC20.sol\":5356:5394   */\n      tag_94\n        /* \"@openzeppelin/contracts/token/ERC20/ERC20.sol\":5372:5376   */\n      dup6\n        /* \"@openzeppelin/contracts/utils/Context.sol\":719:729   */\n      dup3\n        /* \"@openzeppelin/contracts/token/ERC20/ERC20.sol\":5387:5393   */\n      dup6\n        /* \"@openzeppelin/contracts/token/ERC20/ERC20.sol\":5356:5371   */\n      tag_95\n        /* \"@openzeppelin/contracts/token/ERC20/ERC20.sol\":5356:5394   */\n      jump\t// in\n    tag_94:\n        /* \"@openzeppelin/contracts/token/ERC20/ERC20.sol\":5404:5431   */\n      tag_96\n        /* \"@openzeppelin/contracts/token/ERC20/ERC20.sol\":5414:5418   */\n      dup6\n        /* \"@openzeppelin/contracts/token/ERC20/ERC20.sol\":5420:5422   */\n      dup6\n        /* \"@openzeppelin/contracts/token/ERC20/ERC20.sol\":5424:5430   */\n      dup6\n        /* \"@openzeppelin/contracts/token/ERC20/ERC20.sol\":5404:5413   */\n      tag_97\n        /* \"@openzeppelin/contracts/token/ERC20/ERC20.sol\":5404:5431   */\n      jump\t// in\n    tag_96:\n      pop\n        /* \"@openzeppelin/contracts/token/ERC20/ERC20.sol\":5448:5452   */\n      0x01\n      swap5\n        /* \"@openzeppelin/contracts/token/ERC20/ERC20.sol\":5203:5459   */\n      swap4\n      pop\n      pop\n      pop\n      pop\n      jump\t// out\n        /* \"@openzeppelin/contracts/token/ERC20/ERC20.sol\":5854:6088   */\n    tag_48:\n        /* \"@openzeppelin/contracts/utils/Context.sol\":719:729   */\n      caller\n        /* \"@openzeppelin/contracts/token/ERC20/ERC20.sol\":5942:5946   */\n      0x00\n        /* \"@openzeppelin/contracts/token/ERC20/ERC20.sol\":4102:4120   */\n      dup2\n      dup2\n      mstore\n        /* \"@openzeppelin/contracts/token/ERC20/ERC20.sol\":4102:4113   */\n      0x01\n        /* \"@openzeppelin/contracts/token/ERC20/ERC20.sol\":4102:4120   */\n      0x20\n      swap1\n      dup2\n      mstore\n      0x40\n      dup1\n      dup4\n      keccak256\n      sub(shl(0xa0, 0x01), 0x01)\n        /* \"@openzeppelin/contracts/token/ERC20/ERC20.sol\":4102:4129   */\n      dup8\n      and\n      dup5\n      mstore\n      swap1\n      swap2\n      mstore\n      dup2\n      keccak256\n      sload\n        /* \"@openzeppelin/contracts/token/ERC20/ERC20.sol\":5942:5946   */\n      swap1\n      swap2\n        /* \"@openzeppelin/contracts/utils/Context.sol\":719:729   */\n      swap1\n        /* \"@openzeppelin/contracts/token/ERC20/ERC20.sol\":5996:6060   */\n      tag_89\n      swap1\n        /* \"@openzeppelin/contracts/utils/Context.sol\":719:729   */\n      dup3\n      swap1\n        /* \"@openzeppelin/contracts/token/ERC20/ERC20.sol\":4102:4129   */\n      dup7\n      swap1\n        /* \"@openzeppelin/contracts/token/ERC20/ERC20.sol\":6021:6059   */\n      tag_103\n      swap1\n        /* \"@openzeppelin/contracts/token/ERC20/ERC20.sol\":6049:6059   */\n      dup8\n      swap1\n        /* \"@openzeppelin/contracts/token/ERC20/ERC20.sol\":6021:6059   */\n      tag_104\n      jump\t// in\n    tag_103:\n        /* \"@openzeppelin/contracts/token/ERC20/ERC20.sol\":5996:6004   */\n      tag_90\n        /* \"@openzeppelin/contracts/token/ERC20/ERC20.sol\":5996:6060   */\n      jump\t// in\n        /* \"@openzeppelin/contracts/token/ERC20/ERC20.sol\":2369:2471   */\n    tag_60:\n        /* \"@openzeppelin/contracts/token/ERC20/ERC20.sol\":2425:2438   */\n      0x60\n        /* \"@openzeppelin/contracts/token/ERC20/ERC20.sol\":2457:2464   */\n      0x04\n        /* \"@openzeppelin/contracts/token/ERC20/ERC20.sol\":2450:2464   */\n      dup1\n      sload\n      tag_80\n      swap1\n      tag_81\n      jump\t// in\n        /* \"durakToken.sol\":413:565  function mintTokens(uint256 amount) public {... */\n    tag_65:\n        /* \"durakToken.sol\":488:493  owner */\n      and(sub(shl(0xa0, 0x01), 0x01), sload(0x05))\n        /* \"durakToken.sol\":474:484  msg.sender */\n      caller\n        /* \"durakToken.sol\":474:493  msg.sender == owner */\n      eq\n        /* \"durakToken.sol\":466:528  require(msg.sender == owner, \"Only the owner can mint tokens\") */\n      tag_113\n      jumpi\n      mload(0x40)\n      shl(0xe5, 0x461bcd)\n      dup2\n      mstore\n        /* \"#utility.yul\":3609:3611   */\n      0x20\n        /* \"durakToken.sol\":466:528  require(msg.sender == owner, \"Only the owner can mint tokens\") */\n      0x04\n      dup3\n      add\n        /* \"#utility.yul\":3591:3612   */\n      mstore\n        /* \"#utility.yul\":3648:3650   */\n      0x1e\n        /* \"#utility.yul\":3628:3646   */\n      0x24\n      dup3\n      add\n        /* \"#utility.yul\":3621:3651   */\n      mstore\n        /* \"#utility.yul\":3687:3719   */\n      0x4f6e6c7920746865206f776e65722063616e206d696e7420746f6b656e730000\n        /* \"#utility.yul\":3667:3685   */\n      0x44\n      dup3\n      add\n        /* \"#utility.yul\":3660:3720   */\n      mstore\n        /* \"#utility.yul\":3737:3755   */\n      0x64\n      add\n        /* \"durakToken.sol\":466:528  require(msg.sender == owner, \"Only the owner can mint tokens\") */\n    tag_114:\n      mload(0x40)\n      dup1\n      swap2\n      sub\n      swap1\n      revert\n    tag_113:\n        /* \"durakToken.sol\":544:549  owner */\n      sload(0x05)\n        /* \"durakToken.sol\":538:558  _mint(owner, amount) */\n      tag_116\n      swap1\n      sub(shl(0xa0, 0x01), 0x01)\n        /* \"durakToken.sol\":544:549  owner */\n      and\n        /* \"durakToken.sol\":551:557  amount */\n      dup3\n        /* \"durakToken.sol\":538:543  _mint */\n      tag_117\n        /* \"durakToken.sol\":538:558  _mint(owner, amount) */\n      jump\t// in\n    tag_116:\n        /* \"durakToken.sol\":413:565  function mintTokens(uint256 amount) public {... */\n      pop\n      jump\t// out\n        /* \"@openzeppelin/contracts/token/ERC20/ERC20.sol\":6575:7002   */\n    tag_68:\n        /* \"@openzeppelin/contracts/utils/Context.sol\":719:729   */\n      caller\n        /* \"@openzeppelin/contracts/token/ERC20/ERC20.sol\":6668:6672   */\n      0x00\n        /* \"@openzeppelin/contracts/token/ERC20/ERC20.sol\":4102:4120   */\n      dup2\n      dup2\n      mstore\n        /* \"@openzeppelin/contracts/token/ERC20/ERC20.sol\":4102:4113   */\n      0x01\n        /* \"@openzeppelin/contracts/token/ERC20/ERC20.sol\":4102:4120   */\n      0x20\n      swap1\n      dup2\n      mstore\n      0x40\n      dup1\n      dup4\n      keccak256\n      sub(shl(0xa0, 0x01), 0x01)\n        /* \"@openzeppelin/contracts/token/ERC20/ERC20.sol\":4102:4129   */\n      dup8\n      and\n      dup5\n      mstore\n      swap1\n      swap2\n      mstore\n      dup2\n      keccak256\n      sload\n        /* \"@openzeppelin/contracts/token/ERC20/ERC20.sol\":6668:6672   */\n      swap1\n      swap2\n        /* \"@openzeppelin/contracts/utils/Context.sol\":719:729   */\n      swap1\n        /* \"@openzeppelin/contracts/token/ERC20/ERC20.sol\":6812:6827   */\n      dup4\n        /* \"@openzeppelin/contracts/token/ERC20/ERC20.sol\":6792:6808   */\n      dup2\n        /* \"@openzeppelin/contracts/token/ERC20/ERC20.sol\":6792:6827   */\n      lt\n      iszero\n        /* \"@openzeppelin/contracts/token/ERC20/ERC20.sol\":6784:6869   */\n      tag_121\n      jumpi\n      mload(0x40)\n      shl(0xe5, 0x461bcd)\n      dup2\n      mstore\n        /* \"#utility.yul\":3968:3970   */\n      0x20\n        /* \"@openzeppelin/contracts/token/ERC20/ERC20.sol\":6784:6869   */\n      0x04\n      dup3\n      add\n        /* \"#utility.yul\":3950:3971   */\n      mstore\n        /* \"#utility.yul\":4007:4009   */\n      0x25\n        /* \"#utility.yul\":3987:4005   */\n      0x24\n      dup3\n      add\n        /* \"#utility.yul\":3980:4010   */\n      mstore\n        /* \"#utility.yul\":4046:4080   */\n      0x45524332303a2064656372656173656420616c6c6f77616e63652062656c6f77\n        /* \"#utility.yul\":4026:4044   */\n      0x44\n      dup3\n      add\n        /* \"#utility.yul\":4019:4081   */\n      mstore\n        /* \"#utility.yul\":4117:4124   */\n      0x207a65726f000000000000000000000000000000000000000000000000000000\n        /* \"#utility.yul\":4097:4115   */\n      0x64\n      dup3\n      add\n        /* \"#utility.yul\":4090:4125   */\n      mstore\n        /* \"#utility.yul\":4142:4161   */\n      0x84\n      add\n        /* \"@openzeppelin/contracts/token/ERC20/ERC20.sol\":6784:6869   */\n      tag_114\n        /* \"#utility.yul\":3766:4167   */\n      jump\n        /* \"@openzeppelin/contracts/token/ERC20/ERC20.sol\":6784:6869   */\n    tag_121:\n        /* \"@openzeppelin/contracts/token/ERC20/ERC20.sol\":6903:6963   */\n      tag_96\n        /* \"@openzeppelin/contracts/token/ERC20/ERC20.sol\":6912:6917   */\n      dup3\n        /* \"@openzeppelin/contracts/token/ERC20/ERC20.sol\":6919:6926   */\n      dup7\n        /* \"@openzeppelin/contracts/token/ERC20/ERC20.sol\":6947:6962   */\n      dup7\n        /* \"@openzeppelin/contracts/token/ERC20/ERC20.sol\":6928:6944   */\n      dup5\n        /* \"@openzeppelin/contracts/token/ERC20/ERC20.sol\":6928:6962   */\n      sub\n        /* \"@openzeppelin/contracts/token/ERC20/ERC20.sol\":6903:6911   */\n      tag_90\n        /* \"@openzeppelin/contracts/token/ERC20/ERC20.sol\":6903:6963   */\n      jump\t// in\n        /* \"@openzeppelin/contracts/token/ERC20/ERC20.sol\":3740:3929   */\n    tag_72:\n        /* \"@openzeppelin/contracts/token/ERC20/ERC20.sol\":3819:3823   */\n      0x00\n        /* \"@openzeppelin/contracts/utils/Context.sol\":719:729   */\n      caller\n        /* \"@openzeppelin/contracts/token/ERC20/ERC20.sol\":3873:3901   */\n      tag_89\n        /* \"@openzeppelin/contracts/utils/Context.sol\":719:729   */\n      dup2\n        /* \"@openzeppelin/contracts/token/ERC20/ERC20.sol\":3890:3892   */\n      dup6\n        /* \"@openzeppelin/contracts/token/ERC20/ERC20.sol\":3894:3900   */\n      dup6\n        /* \"@openzeppelin/contracts/token/ERC20/ERC20.sol\":3873:3882   */\n      tag_97\n        /* \"@openzeppelin/contracts/token/ERC20/ERC20.sol\":3873:3901   */\n      jump\t// in\n        /* \"@openzeppelin/contracts/token/ERC20/ERC20.sol\":10457:10797   */\n    tag_90:\n      sub(shl(0xa0, 0x01), 0x01)\n        /* \"@openzeppelin/contracts/token/ERC20/ERC20.sol\":10558:10577   */\n      dup4\n      and\n        /* \"@openzeppelin/contracts/token/ERC20/ERC20.sol\":10550:10618   */\n      tag_131\n      jumpi\n      mload(0x40)\n      shl(0xe5, 0x461bcd)\n      dup2\n      mstore\n        /* \"#utility.yul\":4374:4376   */\n      0x20\n        /* \"@openzeppelin/contracts/token/ERC20/ERC20.sol\":10550:10618   */\n      0x04\n      dup3\n      add\n        /* \"#utility.yul\":4356:4377   */\n      mstore\n        /* \"#utility.yul\":4413:4415   */\n      0x24\n        /* \"#utility.yul\":4393:4411   */\n      dup1\n      dup3\n      add\n        /* \"#utility.yul\":4386:4416   */\n      mstore\n        /* \"#utility.yul\":4452:4486   */\n      0x45524332303a20617070726f76652066726f6d20746865207a65726f20616464\n        /* \"#utility.yul\":4432:4450   */\n      0x44\n      dup3\n      add\n        /* \"#utility.yul\":4425:4487   */\n      mstore\n      shl(0xe0, 0x72657373)\n        /* \"#utility.yul\":4503:4521   */\n      0x64\n      dup3\n      add\n        /* \"#utility.yul\":4496:4530   */\n      mstore\n        /* \"#utility.yul\":4547:4566   */\n      0x84\n      add\n        /* \"@openzeppelin/contracts/token/ERC20/ERC20.sol\":10550:10618   */\n      tag_114\n        /* \"#utility.yul\":4172:4572   */\n      jump\n        /* \"@openzeppelin/contracts/token/ERC20/ERC20.sol\":10550:10618   */\n    tag_131:\n      sub(shl(0xa0, 0x01), 0x01)\n        /* \"@openzeppelin/contracts/token/ERC20/ERC20.sol\":10636:10657   */\n      dup3\n      and\n        /* \"@openzeppelin/contracts/token/ERC20/ERC20.sol\":10628:10696   */\n      tag_134\n      jumpi\n      mload(0x40)\n      shl(0xe5, 0x461bcd)\n      dup2\n      mstore\n        /* \"#utility.yul\":4779:4781   */\n      0x20\n        /* \"@openzeppelin/contracts/token/ERC20/ERC20.sol\":10628:10696   */\n      0x04\n      dup3\n      add\n        /* \"#utility.yul\":4761:4782   */\n      mstore\n        /* \"#utility.yul\":4818:4820   */\n      0x22\n        /* \"#utility.yul\":4798:4816   */\n      0x24\n      dup3\n      add\n        /* \"#utility.yul\":4791:4821   */\n      mstore\n        /* \"#utility.yul\":4857:4891   */\n      0x45524332303a20617070726f766520746f20746865207a65726f206164647265\n        /* \"#utility.yul\":4837:4855   */\n      0x44\n      dup3\n      add\n        /* \"#utility.yul\":4830:4892   */\n      mstore\n      shl(0xf0, 0x7373)\n        /* \"#utility.yul\":4908:4926   */\n      0x64\n      dup3\n      add\n        /* \"#utility.yul\":4901:4933   */\n      mstore\n        /* \"#utility.yul\":4950:4969   */\n      0x84\n      add\n        /* \"@openzeppelin/contracts/token/ERC20/ERC20.sol\":10628:10696   */\n      tag_114\n        /* \"#utility.yul\":4577:4975   */\n      jump\n        /* \"@openzeppelin/contracts/token/ERC20/ERC20.sol\":10628:10696   */\n    tag_134:\n      sub(shl(0xa0, 0x01), 0x01)\n        /* \"@openzeppelin/contracts/token/ERC20/ERC20.sol\":10707:10725   */\n      dup4\n      dup2\n      and\n      0x00\n      dup2\n      dup2\n      mstore\n        /* \"@openzeppelin/contracts/token/ERC20/ERC20.sol\":10707:10718   */\n      0x01\n        /* \"@openzeppelin/contracts/token/ERC20/ERC20.sol\":10707:10725   */\n      0x20\n      swap1\n      dup2\n      mstore\n      0x40\n      dup1\n      dup4\n      keccak256\n        /* \"@openzeppelin/contracts/token/ERC20/ERC20.sol\":10707:10734   */\n      swap5\n      dup8\n      and\n      dup1\n      dup5\n      mstore\n      swap5\n      dup3\n      mstore\n      swap2\n      dup3\n      swap1\n      keccak256\n        /* \"@openzeppelin/contracts/token/ERC20/ERC20.sol\":10707:10743   */\n      dup6\n      swap1\n      sstore\n        /* \"@openzeppelin/contracts/token/ERC20/ERC20.sol\":10758:10790   */\n      swap1\n      mload\n        /* \"#utility.yul\":1365:1390   */\n      dup5\n      dup2\n      mstore\n        /* \"@openzeppelin/contracts/token/ERC20/ERC20.sol\":10758:10790   */\n      0x8c5be1e5ebec7d5bd14f71427d1e84f3dd0314c0f7b2291e5b200ac8c7c3b925\n      swap2\n        /* \"#utility.yul\":1338:1356   */\n      add\n        /* \"@openzeppelin/contracts/token/ERC20/ERC20.sol\":10758:10790   */\n      mload(0x40)\n      dup1\n      swap2\n      sub\n      swap1\n      log3\n        /* \"@openzeppelin/contracts/token/ERC20/ERC20.sol\":10457:10797   */\n      pop\n      pop\n      pop\n      jump\t// out\n        /* \"@openzeppelin/contracts/token/ERC20/ERC20.sol\":11078:11489   */\n    tag_95:\n      sub(shl(0xa0, 0x01), 0x01)\n        /* \"@openzeppelin/contracts/token/ERC20/ERC20.sol\":4102:4120   */\n      dup4\n      dup2\n      and\n        /* \"@openzeppelin/contracts/token/ERC20/ERC20.sol\":11178:11202   */\n      0x00\n        /* \"@openzeppelin/contracts/token/ERC20/ERC20.sol\":4102:4120   */\n      swap1\n      dup2\n      mstore\n        /* \"@openzeppelin/contracts/token/ERC20/ERC20.sol\":4102:4113   */\n      0x01\n        /* \"@openzeppelin/contracts/token/ERC20/ERC20.sol\":4102:4120   */\n      0x20\n      swap1\n      dup2\n      mstore\n      0x40\n      dup1\n      dup4\n      keccak256\n        /* \"@openzeppelin/contracts/token/ERC20/ERC20.sol\":4102:4129   */\n      swap4\n      dup7\n      and\n      dup4\n      mstore\n      swap3\n      swap1\n      mstore\n      keccak256\n      sload\n      not(0x00)\n        /* \"@openzeppelin/contracts/token/ERC20/ERC20.sol\":11244:11281   */\n      dup2\n      eq\n        /* \"@openzeppelin/contracts/token/ERC20/ERC20.sol\":11240:11483   */\n      tag_144\n      jumpi\n        /* \"@openzeppelin/contracts/token/ERC20/ERC20.sol\":11325:11331   */\n      dup2\n        /* \"@openzeppelin/contracts/token/ERC20/ERC20.sol\":11305:11321   */\n      dup2\n        /* \"@openzeppelin/contracts/token/ERC20/ERC20.sol\":11305:11331   */\n      lt\n      iszero\n        /* \"@openzeppelin/contracts/token/ERC20/ERC20.sol\":11297:11365   */\n      tag_141\n      jumpi\n      mload(0x40)\n      shl(0xe5, 0x461bcd)\n      dup2\n      mstore\n        /* \"#utility.yul\":5182:5184   */\n      0x20\n        /* \"@openzeppelin/contracts/token/ERC20/ERC20.sol\":11297:11365   */\n      0x04\n      dup3\n      add\n        /* \"#utility.yul\":5164:5185   */\n      mstore\n        /* \"#utility.yul\":5221:5223   */\n      0x1d\n        /* \"#utility.yul\":5201:5219   */\n      0x24\n      dup3\n      add\n        /* \"#utility.yul\":5194:5224   */\n      mstore\n        /* \"#utility.yul\":5260:5291   */\n      0x45524332303a20696e73756666696369656e7420616c6c6f77616e6365000000\n        /* \"#utility.yul\":5240:5258   */\n      0x44\n      dup3\n      add\n        /* \"#utility.yul\":5233:5292   */\n      mstore\n        /* \"#utility.yul\":5309:5327   */\n      0x64\n      add\n        /* \"@openzeppelin/contracts/token/ERC20/ERC20.sol\":11297:11365   */\n      tag_114\n        /* \"#utility.yul\":4980:5333   */\n      jump\n        /* \"@openzeppelin/contracts/token/ERC20/ERC20.sol\":11297:11365   */\n    tag_141:\n        /* \"@openzeppelin/contracts/token/ERC20/ERC20.sol\":11407:11458   */\n      tag_144\n        /* \"@openzeppelin/contracts/token/ERC20/ERC20.sol\":11416:11421   */\n      dup5\n        /* \"@openzeppelin/contracts/token/ERC20/ERC20.sol\":11423:11430   */\n      dup5\n        /* \"@openzeppelin/contracts/token/ERC20/ERC20.sol\":11451:11457   */\n      dup5\n        /* \"@openzeppelin/contracts/token/ERC20/ERC20.sol\":11432:11448   */\n      dup5\n        /* \"@openzeppelin/contracts/token/ERC20/ERC20.sol\":11432:11457   */\n      sub\n        /* \"@openzeppelin/contracts/token/ERC20/ERC20.sol\":11407:11415   */\n      tag_90\n        /* \"@openzeppelin/contracts/token/ERC20/ERC20.sol\":11407:11458   */\n      jump\t// in\n    tag_144:\n        /* \"@openzeppelin/contracts/token/ERC20/ERC20.sol\":11168:11489   */\n      pop\n        /* \"@openzeppelin/contracts/token/ERC20/ERC20.sol\":11078:11489   */\n      pop\n      pop\n      pop\n      jump\t// out\n        /* \"@openzeppelin/contracts/token/ERC20/ERC20.sol\":7456:8244   */\n    tag_97:\n      sub(shl(0xa0, 0x01), 0x01)\n        /* \"@openzeppelin/contracts/token/ERC20/ERC20.sol\":7552:7570   */\n      dup4\n      and\n        /* \"@openzeppelin/contracts/token/ERC20/ERC20.sol\":7544:7612   */\n      tag_146\n      jumpi\n      mload(0x40)\n      shl(0xe5, 0x461bcd)\n      dup2\n      mstore\n        /* \"#utility.yul\":5540:5542   */\n      0x20\n        /* \"@openzeppelin/contracts/token/ERC20/ERC20.sol\":7544:7612   */\n      0x04\n      dup3\n      add\n        /* \"#utility.yul\":5522:5543   */\n      mstore\n        /* \"#utility.yul\":5579:5581   */\n      0x25\n        /* \"#utility.yul\":5559:5577   */\n      0x24\n      dup3\n      add\n        /* \"#utility.yul\":5552:5582   */\n      mstore\n        /* \"#utility.yul\":5618:5652   */\n      0x45524332303a207472616e736665722066726f6d20746865207a65726f206164\n        /* \"#utility.yul\":5598:5616   */\n      0x44\n      dup3\n      add\n        /* \"#utility.yul\":5591:5653   */\n      mstore\n        /* \"#utility.yul\":5689:5696   */\n      0x6472657373000000000000000000000000000000000000000000000000000000\n        /* \"#utility.yul\":5669:5687   */\n      0x64\n      dup3\n      add\n        /* \"#utility.yul\":5662:5697   */\n      mstore\n        /* \"#utility.yul\":5714:5733   */\n      0x84\n      add\n        /* \"@openzeppelin/contracts/token/ERC20/ERC20.sol\":7544:7612   */\n      tag_114\n        /* \"#utility.yul\":5338:5739   */\n      jump\n        /* \"@openzeppelin/contracts/token/ERC20/ERC20.sol\":7544:7612   */\n    tag_146:\n      sub(shl(0xa0, 0x01), 0x01)\n        /* \"@openzeppelin/contracts/token/ERC20/ERC20.sol\":7630:7646   */\n      dup3\n      and\n        /* \"@openzeppelin/contracts/token/ERC20/ERC20.sol\":7622:7686   */\n      tag_149\n      jumpi\n      mload(0x40)\n      shl(0xe5, 0x461bcd)\n      dup2\n      mstore\n        /* \"#utility.yul\":5946:5948   */\n      0x20\n        /* \"@openzeppelin/contracts/token/ERC20/ERC20.sol\":7622:7686   */\n      0x04\n      dup3\n      add\n        /* \"#utility.yul\":5928:5949   */\n      mstore\n        /* \"#utility.yul\":5985:5987   */\n      0x23\n        /* \"#utility.yul\":5965:5983   */\n      0x24\n      dup3\n      add\n        /* \"#utility.yul\":5958:5988   */\n      mstore\n        /* \"#utility.yul\":6024:6058   */\n      0x45524332303a207472616e7366657220746f20746865207a65726f2061646472\n        /* \"#utility.yul\":6004:6022   */\n      0x44\n      dup3\n      add\n        /* \"#utility.yul\":5997:6059   */\n      mstore\n      shl(0xe8, 0x657373)\n        /* \"#utility.yul\":6075:6093   */\n      0x64\n      dup3\n      add\n        /* \"#utility.yul\":6068:6101   */\n      mstore\n        /* \"#utility.yul\":6118:6137   */\n      0x84\n      add\n        /* \"@openzeppelin/contracts/token/ERC20/ERC20.sol\":7622:7686   */\n      tag_114\n        /* \"#utility.yul\":5744:6143   */\n      jump\n        /* \"@openzeppelin/contracts/token/ERC20/ERC20.sol\":7622:7686   */\n    tag_149:\n      sub(shl(0xa0, 0x01), 0x01)\n        /* \"@openzeppelin/contracts/token/ERC20/ERC20.sol\":7768:7783   */\n      dup4\n      and\n        /* \"@openzeppelin/contracts/token/ERC20/ERC20.sol\":7746:7765   */\n      0x00\n        /* \"@openzeppelin/contracts/token/ERC20/ERC20.sol\":7768:7783   */\n      swap1\n      dup2\n      mstore\n      0x20\n      dup2\n      swap1\n      mstore\n      0x40\n      swap1\n      keccak256\n      sload\n        /* \"@openzeppelin/contracts/token/ERC20/ERC20.sol\":7801:7822   */\n      dup2\n      dup2\n      lt\n      iszero\n        /* \"@openzeppelin/contracts/token/ERC20/ERC20.sol\":7793:7865   */\n      tag_154\n      jumpi\n      mload(0x40)\n      shl(0xe5, 0x461bcd)\n      dup2\n      mstore\n        /* \"#utility.yul\":6350:6352   */\n      0x20\n        /* \"@openzeppelin/contracts/token/ERC20/ERC20.sol\":7793:7865   */\n      0x04\n      dup3\n      add\n        /* \"#utility.yul\":6332:6353   */\n      mstore\n        /* \"#utility.yul\":6389:6391   */\n      0x26\n        /* \"#utility.yul\":6369:6387   */\n      0x24\n      dup3\n      add\n        /* \"#utility.yul\":6362:6392   */\n      mstore\n        /* \"#utility.yul\":6428:6462   */\n      0x45524332303a207472616e7366657220616d6f756e7420657863656564732062\n        /* \"#utility.yul\":6408:6426   */\n      0x44\n      dup3\n      add\n        /* \"#utility.yul\":6401:6463   */\n      mstore\n        /* \"#utility.yul\":6499:6507   */\n      0x616c616e63650000000000000000000000000000000000000000000000000000\n        /* \"#utility.yul\":6479:6497   */\n      0x64\n      dup3\n      add\n        /* \"#utility.yul\":6472:6508   */\n      mstore\n        /* \"#utility.yul\":6525:6544   */\n      0x84\n      add\n        /* \"@openzeppelin/contracts/token/ERC20/ERC20.sol\":7793:7865   */\n      tag_114\n        /* \"#utility.yul\":6148:6550   */\n      jump\n        /* \"@openzeppelin/contracts/token/ERC20/ERC20.sol\":7793:7865   */\n    tag_154:\n      sub(shl(0xa0, 0x01), 0x01)\n        /* \"@openzeppelin/contracts/token/ERC20/ERC20.sol\":7899:7914   */\n      dup5\n      dup2\n      and\n        /* \"@openzeppelin/contracts/token/ERC20/ERC20.sol\":7899:7908   */\n      0x00\n        /* \"@openzeppelin/contracts/token/ERC20/ERC20.sol\":7899:7914   */\n      dup2\n      dup2\n      mstore\n      0x20\n      dup2\n      dup2\n      mstore\n      0x40\n      dup1\n      dup4\n      keccak256\n        /* \"@openzeppelin/contracts/token/ERC20/ERC20.sol\":7917:7937   */\n      dup8\n      dup8\n      sub\n        /* \"@openzeppelin/contracts/token/ERC20/ERC20.sol\":7899:7937   */\n      swap1\n      sstore\n        /* \"@openzeppelin/contracts/token/ERC20/ERC20.sol\":8114:8127   */\n      swap4\n      dup8\n      and\n      dup1\n      dup4\n      mstore\n      swap2\n      dup5\n      swap1\n      keccak256\n        /* \"@openzeppelin/contracts/token/ERC20/ERC20.sol\":8114:8137   */\n      dup1\n      sload\n      dup8\n      add\n      swap1\n      sstore\n        /* \"@openzeppelin/contracts/token/ERC20/ERC20.sol\":8163:8189   */\n      swap3\n      mload\n        /* \"#utility.yul\":1365:1390   */\n      dup6\n      dup2\n      mstore\n        /* \"@openzeppelin/contracts/token/ERC20/ERC20.sol\":8114:8127   */\n      swap1\n      swap3\n        /* \"@openzeppelin/contracts/token/ERC20/ERC20.sol\":8163:8189   */\n      0xddf252ad1be2c89b69c2b068fc378daa952ba7f163c4a11628f55a4df523b3ef\n      swap2\n        /* \"#utility.yul\":1338:1356   */\n      add\n        /* \"@openzeppelin/contracts/token/ERC20/ERC20.sol\":8163:8189   */\n      mload(0x40)\n      dup1\n      swap2\n      sub\n      swap1\n      log3\n        /* \"@openzeppelin/contracts/token/ERC20/ERC20.sol\":8200:8237   */\n      tag_144\n        /* \"@openzeppelin/contracts/token/ERC20/ERC20.sol\":12073:12164   */\n      jump\n        /* \"@openzeppelin/contracts/token/ERC20/ERC20.sol\":8520:9055   */\n    tag_117:\n      sub(shl(0xa0, 0x01), 0x01)\n        /* \"@openzeppelin/contracts/token/ERC20/ERC20.sol\":8603:8624   */\n      dup3\n      and\n        /* \"@openzeppelin/contracts/token/ERC20/ERC20.sol\":8595:8660   */\n      tag_161\n      jumpi\n      mload(0x40)\n      shl(0xe5, 0x461bcd)\n      dup2\n      mstore\n        /* \"#utility.yul\":6757:6759   */\n      0x20\n        /* \"@openzeppelin/contracts/token/ERC20/ERC20.sol\":8595:8660   */\n      0x04\n      dup3\n      add\n        /* \"#utility.yul\":6739:6760   */\n      mstore\n        /* \"#utility.yul\":6796:6798   */\n      0x1f\n        /* \"#utility.yul\":6776:6794   */\n      0x24\n      dup3\n      add\n        /* \"#utility.yul\":6769:6799   */\n      mstore\n        /* \"#utility.yul\":6835:6868   */\n      0x45524332303a206d696e7420746f20746865207a65726f206164647265737300\n        /* \"#utility.yul\":6815:6833   */\n      0x44\n      dup3\n      add\n        /* \"#utility.yul\":6808:6869   */\n      mstore\n        /* \"#utility.yul\":6886:6904   */\n      0x64\n      add\n        /* \"@openzeppelin/contracts/token/ERC20/ERC20.sol\":8595:8660   */\n      tag_114\n        /* \"#utility.yul\":6555:6910   */\n      jump\n        /* \"@openzeppelin/contracts/token/ERC20/ERC20.sol\":8595:8660   */\n    tag_161:\n        /* \"@openzeppelin/contracts/token/ERC20/ERC20.sol\":8747:8753   */\n      dup1\n        /* \"@openzeppelin/contracts/token/ERC20/ERC20.sol\":8731:8743   */\n      0x02\n      0x00\n        /* \"@openzeppelin/contracts/token/ERC20/ERC20.sol\":8731:8753   */\n      dup3\n      dup3\n      sload\n      tag_165\n      swap2\n      swap1\n      tag_104\n      jump\t// in\n    tag_165:\n      swap1\n      swap2\n      sstore\n      pop\n      pop\n      sub(shl(0xa0, 0x01), 0x01)\n        /* \"@openzeppelin/contracts/token/ERC20/ERC20.sol\":8899:8917   */\n      dup3\n      and\n        /* \"@openzeppelin/contracts/token/ERC20/ERC20.sol\":8899:8908   */\n      0x00\n        /* \"@openzeppelin/contracts/token/ERC20/ERC20.sol\":8899:8917   */\n      dup2\n      dup2\n      mstore\n      0x20\n      dup2\n      dup2\n      mstore\n      0x40\n      dup1\n      dup4\n      keccak256\n        /* \"@openzeppelin/contracts/token/ERC20/ERC20.sol\":8899:8927   */\n      dup1\n      sload\n      dup7\n      add\n      swap1\n      sstore\n        /* \"@openzeppelin/contracts/token/ERC20/ERC20.sol\":8952:8989   */\n      mload\n        /* \"#utility.yul\":1365:1390   */\n      dup5\n      dup2\n      mstore\n        /* \"@openzeppelin/contracts/token/ERC20/ERC20.sol\":8952:8989   */\n      0xddf252ad1be2c89b69c2b068fc378daa952ba7f163c4a11628f55a4df523b3ef\n      swap2\n        /* \"#utility.yul\":1338:1356   */\n      add\n        /* \"@openzeppelin/contracts/token/ERC20/ERC20.sol\":8952:8989   */\n      mload(0x40)\n      dup1\n      swap2\n      sub\n      swap1\n      log3\n        /* \"@openzeppelin/contracts/token/ERC20/ERC20.sol\":8520:9055   */\n      pop\n      pop\n      jump\t// out\n        /* \"#utility.yul\":14:562   */\n    tag_23:\n        /* \"#utility.yul\":126:130   */\n      0x00\n        /* \"#utility.yul\":155:157   */\n      0x20\n        /* \"#utility.yul\":184:186   */\n      dup1\n        /* \"#utility.yul\":173:182   */\n      dup4\n        /* \"#utility.yul\":166:187   */\n      mstore\n        /* \"#utility.yul\":216:222   */\n      dup4\n        /* \"#utility.yul\":210:223   */\n      mload\n        /* \"#utility.yul\":259:265   */\n      dup1\n        /* \"#utility.yul\":254:256   */\n      dup3\n        /* \"#utility.yul\":243:252   */\n      dup6\n        /* \"#utility.yul\":239:257   */\n      add\n        /* \"#utility.yul\":232:266   */\n      mstore\n        /* \"#utility.yul\":284:285   */\n      0x00\n        /* \"#utility.yul\":294:434   */\n    tag_173:\n        /* \"#utility.yul\":308:314   */\n      dup2\n        /* \"#utility.yul\":305:306   */\n      dup2\n        /* \"#utility.yul\":302:315   */\n      lt\n        /* \"#utility.yul\":294:434   */\n      iszero\n      tag_175\n      jumpi\n        /* \"#utility.yul\":403:417   */\n      dup6\n      dup2\n      add\n        /* \"#utility.yul\":399:422   */\n      dup4\n      add\n        /* \"#utility.yul\":393:423   */\n      mload\n        /* \"#utility.yul\":369:386   */\n      dup6\n      dup3\n      add\n        /* \"#utility.yul\":388:390   */\n      0x40\n        /* \"#utility.yul\":365:391   */\n      add\n        /* \"#utility.yul\":358:424   */\n      mstore\n        /* \"#utility.yul\":323:333   */\n      dup3\n      add\n        /* \"#utility.yul\":294:434   */\n      jump(tag_173)\n    tag_175:\n        /* \"#utility.yul\":298:301   */\n      pop\n        /* \"#utility.yul\":483:484   */\n      0x00\n        /* \"#utility.yul\":478:480   */\n      0x40\n        /* \"#utility.yul\":469:475   */\n      dup3\n        /* \"#utility.yul\":458:467   */\n      dup7\n        /* \"#utility.yul\":454:476   */\n      add\n        /* \"#utility.yul\":450:481   */\n      add\n        /* \"#utility.yul\":443:485   */\n      mstore\n        /* \"#utility.yul\":553:555   */\n      0x40\n        /* \"#utility.yul\":546:548   */\n      0x1f\n        /* \"#utility.yul\":542:549   */\n      not\n        /* \"#utility.yul\":537:539   */\n      0x1f\n        /* \"#utility.yul\":529:535   */\n      dup4\n        /* \"#utility.yul\":525:540   */\n      add\n        /* \"#utility.yul\":521:550   */\n      and\n        /* \"#utility.yul\":510:519   */\n      dup6\n        /* \"#utility.yul\":506:551   */\n      add\n        /* \"#utility.yul\":502:556   */\n      add\n        /* \"#utility.yul\":494:556   */\n      swap3\n      pop\n      pop\n      pop\n        /* \"#utility.yul\":14:562   */\n      swap3\n      swap2\n      pop\n      pop\n      jump\t// out\n        /* \"#utility.yul\":567:763   */\n    tag_170:\n        /* \"#utility.yul\":635:655   */\n      dup1\n      calldataload\n      sub(shl(0xa0, 0x01), 0x01)\n        /* \"#utility.yul\":684:738   */\n      dup2\n      and\n        /* \"#utility.yul\":674:739   */\n      dup2\n      eq\n        /* \"#utility.yul\":664:757   */\n      tag_177\n      jumpi\n        /* \"#utility.yul\":753:754   */\n      0x00\n        /* \"#utility.yul\":750:751   */\n      dup1\n        /* \"#utility.yul\":743:755   */\n      revert\n        /* \"#utility.yul\":664:757   */\n    tag_177:\n        /* \"#utility.yul\":567:763   */\n      swap2\n      swap1\n      pop\n      jump\t// out\n        /* \"#utility.yul\":768:1022   */\n    tag_26:\n        /* \"#utility.yul\":836:842   */\n      0x00\n        /* \"#utility.yul\":844:850   */\n      dup1\n        /* \"#utility.yul\":897:899   */\n      0x40\n        /* \"#utility.yul\":885:894   */\n      dup4\n        /* \"#utility.yul\":876:883   */\n      dup6\n        /* \"#utility.yul\":872:895   */\n      sub\n        /* \"#utility.yul\":868:900   */\n      slt\n        /* \"#utility.yul\":865:917   */\n      iszero\n      tag_179\n      jumpi\n        /* \"#utility.yul\":913:914   */\n      0x00\n        /* \"#utility.yul\":910:911   */\n      dup1\n        /* \"#utility.yul\":903:915   */\n      revert\n        /* \"#utility.yul\":865:917   */\n    tag_179:\n        /* \"#utility.yul\":936:965   */\n      tag_180\n        /* \"#utility.yul\":955:964   */\n      dup4\n        /* \"#utility.yul\":936:965   */\n      tag_170\n      jump\t// in\n    tag_180:\n        /* \"#utility.yul\":926:965   */\n      swap5\n        /* \"#utility.yul\":1012:1014   */\n      0x20\n        /* \"#utility.yul\":997:1015   */\n      swap4\n      swap1\n      swap4\n      add\n        /* \"#utility.yul\":984:1016   */\n      calldataload\n      swap4\n      pop\n      pop\n      pop\n        /* \"#utility.yul\":768:1022   */\n      jump\t// out\n        /* \"#utility.yul\":1401:1729   */\n    tag_36:\n        /* \"#utility.yul\":1478:1484   */\n      0x00\n        /* \"#utility.yul\":1486:1492   */\n      dup1\n        /* \"#utility.yul\":1494:1500   */\n      0x00\n        /* \"#utility.yul\":1547:1549   */\n      0x60\n        /* \"#utility.yul\":1535:1544   */\n      dup5\n        /* \"#utility.yul\":1526:1533   */\n      dup7\n        /* \"#utility.yul\":1522:1545   */\n      sub\n        /* \"#utility.yul\":1518:1550   */\n      slt\n        /* \"#utility.yul\":1515:1567   */\n      iszero\n      tag_184\n      jumpi\n        /* \"#utility.yul\":1563:1564   */\n      0x00\n        /* \"#utility.yul\":1560:1561   */\n      dup1\n        /* \"#utility.yul\":1553:1565   */\n      revert\n        /* \"#utility.yul\":1515:1567   */\n    tag_184:\n        /* \"#utility.yul\":1586:1615   */\n      tag_185\n        /* \"#utility.yul\":1605:1614   */\n      dup5\n        /* \"#utility.yul\":1586:1615   */\n      tag_170\n      jump\t// in\n    tag_185:\n        /* \"#utility.yul\":1576:1615   */\n      swap3\n      pop\n        /* \"#utility.yul\":1634:1672   */\n      tag_186\n        /* \"#utility.yul\":1668:1670   */\n      0x20\n        /* \"#utility.yul\":1657:1666   */\n      dup6\n        /* \"#utility.yul\":1653:1671   */\n      add\n        /* \"#utility.yul\":1634:1672   */\n      tag_170\n      jump\t// in\n    tag_186:\n        /* \"#utility.yul\":1624:1672   */\n      swap2\n      pop\n        /* \"#utility.yul\":1719:1721   */\n      0x40\n        /* \"#utility.yul\":1708:1717   */\n      dup5\n        /* \"#utility.yul\":1704:1722   */\n      add\n        /* \"#utility.yul\":1691:1723   */\n      calldataload\n        /* \"#utility.yul\":1681:1723   */\n      swap1\n      pop\n        /* \"#utility.yul\":1401:1729   */\n      swap3\n      pop\n      swap3\n      pop\n      swap3\n      jump\t// out\n        /* \"#utility.yul\":1923:2109   */\n    tag_52:\n        /* \"#utility.yul\":1982:1988   */\n      0x00\n        /* \"#utility.yul\":2035:2037   */\n      0x20\n        /* \"#utility.yul\":2023:2032   */\n      dup3\n        /* \"#utility.yul\":2014:2021   */\n      dup5\n        /* \"#utility.yul\":2010:2033   */\n      sub\n        /* \"#utility.yul\":2006:2038   */\n      slt\n        /* \"#utility.yul\":2003:2055   */\n      iszero\n      tag_189\n      jumpi\n        /* \"#utility.yul\":2051:2052   */\n      0x00\n        /* \"#utility.yul\":2048:2049   */\n      dup1\n        /* \"#utility.yul\":2041:2053   */\n      revert\n        /* \"#utility.yul\":2003:2055   */\n    tag_189:\n        /* \"#utility.yul\":2074:2103   */\n      tag_190\n        /* \"#utility.yul\":2093:2102   */\n      dup3\n        /* \"#utility.yul\":2074:2103   */\n      tag_170\n      jump\t// in\n    tag_190:\n        /* \"#utility.yul\":2064:2103   */\n      swap4\n        /* \"#utility.yul\":1923:2109   */\n      swap3\n      pop\n      pop\n      pop\n      jump\t// out\n        /* \"#utility.yul\":2345:2525   */\n    tag_64:\n        /* \"#utility.yul\":2404:2410   */\n      0x00\n        /* \"#utility.yul\":2457:2459   */\n      0x20\n        /* \"#utility.yul\":2445:2454   */\n      dup3\n        /* \"#utility.yul\":2436:2443   */\n      dup5\n        /* \"#utility.yul\":2432:2455   */\n      sub\n        /* \"#utility.yul\":2428:2460   */\n      slt\n        /* \"#utility.yul\":2425:2477   */\n      iszero\n      tag_193\n      jumpi\n        /* \"#utility.yul\":2473:2474   */\n      0x00\n        /* \"#utility.yul\":2470:2471   */\n      dup1\n        /* \"#utility.yul\":2463:2475   */\n      revert\n        /* \"#utility.yul\":2425:2477   */\n    tag_193:\n      pop\n        /* \"#utility.yul\":2496:2519   */\n      calldataload\n      swap2\n        /* \"#utility.yul\":2345:2525   */\n      swap1\n      pop\n      jump\t// out\n        /* \"#utility.yul\":2530:2790   */\n    tag_76:\n        /* \"#utility.yul\":2598:2604   */\n      0x00\n        /* \"#utility.yul\":2606:2612   */\n      dup1\n        /* \"#utility.yul\":2659:2661   */\n      0x40\n        /* \"#utility.yul\":2647:2656   */\n      dup4\n        /* \"#utility.yul\":2638:2645   */\n      dup6\n        /* \"#utility.yul\":2634:2657   */\n      sub\n        /* \"#utility.yul\":2630:2662   */\n      slt\n        /* \"#utility.yul\":2627:2679   */\n      iszero\n      tag_195\n      jumpi\n        /* \"#utility.yul\":2675:2676   */\n      0x00\n        /* \"#utility.yul\":2672:2673   */\n      dup1\n        /* \"#utility.yul\":2665:2677   */\n      revert\n        /* \"#utility.yul\":2627:2679   */\n    tag_195:\n        /* \"#utility.yul\":2698:2727   */\n      tag_196\n        /* \"#utility.yul\":2717:2726   */\n      dup4\n        /* \"#utility.yul\":2698:2727   */\n      tag_170\n      jump\t// in\n    tag_196:\n        /* \"#utility.yul\":2688:2727   */\n      swap2\n      pop\n        /* \"#utility.yul\":2746:2784   */\n      tag_197\n        /* \"#utility.yul\":2780:2782   */\n      0x20\n        /* \"#utility.yul\":2769:2778   */\n      dup5\n        /* \"#utility.yul\":2765:2783   */\n      add\n        /* \"#utility.yul\":2746:2784   */\n      tag_170\n      jump\t// in\n    tag_197:\n        /* \"#utility.yul\":2736:2784   */\n      swap1\n      pop\n        /* \"#utility.yul\":2530:2790   */\n      swap3\n      pop\n      swap3\n      swap1\n      pop\n      jump\t// out\n        /* \"#utility.yul\":2795:3175   */\n    tag_81:\n        /* \"#utility.yul\":2874:2875   */\n      0x01\n        /* \"#utility.yul\":2870:2882   */\n      dup2\n      dup2\n      shr\n      swap1\n        /* \"#utility.yul\":2917:2929   */\n      dup3\n      and\n      dup1\n        /* \"#utility.yul\":2938:2999   */\n      tag_199\n      jumpi\n        /* \"#utility.yul\":2992:2996   */\n      0x7f\n        /* \"#utility.yul\":2984:2990   */\n      dup3\n        /* \"#utility.yul\":2980:2997   */\n      and\n        /* \"#utility.yul\":2970:2997   */\n      swap2\n      pop\n        /* \"#utility.yul\":2938:2999   */\n    tag_199:\n        /* \"#utility.yul\":3045:3047   */\n      0x20\n        /* \"#utility.yul\":3037:3043   */\n      dup3\n        /* \"#utility.yul\":3034:3048   */\n      lt\n        /* \"#utility.yul\":3014:3032   */\n      dup2\n        /* \"#utility.yul\":3011:3049   */\n      sub\n        /* \"#utility.yul\":3008:3169   */\n      tag_200\n      jumpi\n        /* \"#utility.yul\":3091:3101   */\n      0x4e487b71\n        /* \"#utility.yul\":3086:3089   */\n      0xe0\n        /* \"#utility.yul\":3082:3102   */\n      shl\n        /* \"#utility.yul\":3079:3080   */\n      0x00\n        /* \"#utility.yul\":3072:3103   */\n      mstore\n        /* \"#utility.yul\":3126:3130   */\n      0x22\n        /* \"#utility.yul\":3123:3124   */\n      0x04\n        /* \"#utility.yul\":3116:3131   */\n      mstore\n        /* \"#utility.yul\":3154:3158   */\n      0x24\n        /* \"#utility.yul\":3151:3152   */\n      0x00\n        /* \"#utility.yul\":3144:3159   */\n      revert\n        /* \"#utility.yul\":3008:3169   */\n    tag_200:\n      pop\n        /* \"#utility.yul\":2795:3175   */\n      swap2\n      swap1\n      pop\n      jump\t// out\n        /* \"#utility.yul\":3180:3402   */\n    tag_104:\n        /* \"#utility.yul\":3245:3254   */\n      dup1\n      dup3\n      add\n        /* \"#utility.yul\":3266:3276   */\n      dup1\n      dup3\n      gt\n        /* \"#utility.yul\":3263:3396   */\n      iszero\n      tag_86\n      jumpi\n        /* \"#utility.yul\":3318:3328   */\n      0x4e487b71\n        /* \"#utility.yul\":3313:3316   */\n      0xe0\n        /* \"#utility.yul\":3309:3329   */\n      shl\n        /* \"#utility.yul\":3306:3307   */\n      0x00\n        /* \"#utility.yul\":3299:3330   */\n      mstore\n        /* \"#utility.yul\":3353:3357   */\n      0x11\n        /* \"#utility.yul\":3350:3351   */\n      0x04\n        /* \"#utility.yul\":3343:3358   */\n      mstore\n        /* \"#utility.yul\":3381:3385   */\n      0x24\n        /* \"#utility.yul\":3378:3379   */\n      0x00\n        /* \"#utility.yul\":3371:3386   */\n      revert\n\n    auxdata: 0xa264697066735822122071d93390bb4dfa780e9b44cd60344254fa43d388417115ead17c59df3f57db6a64736f6c63430008110033\n}\n",
    "bytecode": {
      "linkReferences": {},
      "object": "60806040523480156200001157600080fd5b5060405162000f6a38038062000f6a8339810160408190526200003491620001be565b6040518060400160405280600b81526020016a223ab930b5902a37b5b2b760a91b81525060405180604001604052806005815260200164445552414b60d81b81525081600390816200008791906200027c565b5060046200009682826200027c565b5050600580546001600160a01b0319163317905550620000b4601290565b620000c190600a6200045d565b620000cd908262000475565b6006819055600554620000ec916001600160a01b0390911690620000f3565b50620004a5565b6001600160a01b0382166200014e5760405162461bcd60e51b815260206004820152601f60248201527f45524332303a206d696e7420746f20746865207a65726f206164647265737300604482015260640160405180910390fd5b80600260008282546200016291906200048f565b90915550506001600160a01b038216600081815260208181526040808320805486019055518481527fddf252ad1be2c89b69c2b068fc378daa952ba7f163c4a11628f55a4df523b3ef910160405180910390a35050565b505050565b600060208284031215620001d157600080fd5b5051919050565b634e487b7160e01b600052604160045260246000fd5b600181811c908216806200020357607f821691505b6020821081036200022457634e487b7160e01b600052602260045260246000fd5b50919050565b601f821115620001b957600081815260208120601f850160051c81016020861015620002535750805b601f850160051c820191505b8181101562000274578281556001016200025f565b505050505050565b81516001600160401b03811115620002985762000298620001d8565b620002b081620002a98454620001ee565b846200022a565b602080601f831160018114620002e85760008415620002cf5750858301515b600019600386901b1c1916600185901b17855562000274565b600085815260208120601f198616915b828110156200031957888601518255948401946001909101908401620002f8565b5085821015620003385787850151600019600388901b60f8161c191681555b5050505050600190811b01905550565b634e487b7160e01b600052601160045260246000fd5b600181815b808511156200039f57816000190482111562000383576200038362000348565b808516156200039157918102915b93841c939080029062000363565b509250929050565b600082620003b85750600162000457565b81620003c75750600062000457565b8160018114620003e05760028114620003eb576200040b565b600191505062000457565b60ff841115620003ff57620003ff62000348565b50506001821b62000457565b5060208310610133831016604e8410600b841016171562000430575081810a62000457565b6200043c83836200035e565b806000190482111562000453576200045362000348565b0290505b92915050565b60006200046e60ff841683620003a7565b9392505050565b808202811582820484141762000457576200045762000348565b8082018082111562000457576200045762000348565b610ab580620004b56000396000f3fe608060405234801561001057600080fd5b50600436106100ea5760003560e01c806370a082311161008c57806397304ced1161006657806397304ced146101dc578063a457c2d7146101f1578063a9059cbb14610204578063dd62ed3e1461021757600080fd5b806370a08231146101805780638da5cb5b146101a957806395d89b41146101d457600080fd5b806323b872dd116100c857806323b872dd14610142578063313ce56714610155578063378dc3dc14610164578063395093511461016d57600080fd5b806306fdde03146100ef578063095ea7b31461010d57806318160ddd14610130575b600080fd5b6100f7610250565b60405161010491906108e6565b60405180910390f35b61012061011b366004610950565b6102e2565b6040519015158152602001610104565b6002545b604051908152602001610104565b61012061015036600461097a565b6102fc565b60405160128152602001610104565b61013460065481565b61012061017b366004610950565b610320565b61013461018e3660046109b6565b6001600160a01b031660009081526020819052604090205490565b6005546101bc906001600160a01b031681565b6040516001600160a01b039091168152602001610104565b6100f761035f565b6101ef6101ea3660046109d8565b61036e565b005b6101206101ff366004610950565b6103e6565b610120610212366004610950565b610490565b6101346102253660046109f1565b6001600160a01b03918216600090815260016020908152604080832093909416825291909152205490565b60606003805461025f90610a24565b80601f016020809104026020016040519081016040528092919081815260200182805461028b90610a24565b80156102d85780601f106102ad576101008083540402835291602001916102d8565b820191906000526020600020905b8154815290600101906020018083116102bb57829003601f168201915b5050505050905090565b6000336102f081858561049e565b60019150505b92915050565b60003361030a8582856105c2565b610315858585610654565b506001949350505050565b3360008181526001602090815260408083206001600160a01b03871684529091528120549091906102f0908290869061035a908790610a5e565b61049e565b60606004805461025f90610a24565b6005546001600160a01b031633146103cd5760405162461bcd60e51b815260206004820152601e60248201527f4f6e6c7920746865206f776e65722063616e206d696e7420746f6b656e73000060448201526064015b60405180910390fd5b6005546103e3906001600160a01b031682610827565b50565b3360008181526001602090815260408083206001600160a01b0387168452909152812054909190838110156104835760405162461bcd60e51b815260206004820152602560248201527f45524332303a2064656372656173656420616c6c6f77616e63652062656c6f7760448201527f207a65726f00000000000000000000000000000000000000000000000000000060648201526084016103c4565b610315828686840361049e565b6000336102f0818585610654565b6001600160a01b0383166105005760405162461bcd60e51b8152602060048201526024808201527f45524332303a20617070726f76652066726f6d20746865207a65726f206164646044820152637265737360e01b60648201526084016103c4565b6001600160a01b0382166105615760405162461bcd60e51b815260206004820152602260248201527f45524332303a20617070726f766520746f20746865207a65726f206164647265604482015261737360f01b60648201526084016103c4565b6001600160a01b0383811660008181526001602090815260408083209487168084529482529182902085905590518481527f8c5be1e5ebec7d5bd14f71427d1e84f3dd0314c0f7b2291e5b200ac8c7c3b925910160405180910390a3505050565b6001600160a01b03838116600090815260016020908152604080832093861683529290522054600019811461064e57818110156106415760405162461bcd60e51b815260206004820152601d60248201527f45524332303a20696e73756666696369656e7420616c6c6f77616e636500000060448201526064016103c4565b61064e848484840361049e565b50505050565b6001600160a01b0383166106d05760405162461bcd60e51b815260206004820152602560248201527f45524332303a207472616e736665722066726f6d20746865207a65726f20616460448201527f647265737300000000000000000000000000000000000000000000000000000060648201526084016103c4565b6001600160a01b0382166107325760405162461bcd60e51b815260206004820152602360248201527f45524332303a207472616e7366657220746f20746865207a65726f206164647260448201526265737360e81b60648201526084016103c4565b6001600160a01b038316600090815260208190526040902054818110156107c15760405162461bcd60e51b815260206004820152602660248201527f45524332303a207472616e7366657220616d6f756e742065786365656473206260448201527f616c616e6365000000000000000000000000000000000000000000000000000060648201526084016103c4565b6001600160a01b03848116600081815260208181526040808320878703905593871680835291849020805487019055925185815290927fddf252ad1be2c89b69c2b068fc378daa952ba7f163c4a11628f55a4df523b3ef910160405180910390a361064e565b6001600160a01b03821661087d5760405162461bcd60e51b815260206004820152601f60248201527f45524332303a206d696e7420746f20746865207a65726f20616464726573730060448201526064016103c4565b806002600082825461088f9190610a5e565b90915550506001600160a01b038216600081815260208181526040808320805486019055518481527fddf252ad1be2c89b69c2b068fc378daa952ba7f163c4a11628f55a4df523b3ef910160405180910390a35050565b600060208083528351808285015260005b81811015610913578581018301518582016040015282016108f7565b506000604082860101526040601f19601f8301168501019250505092915050565b80356001600160a01b038116811461094b57600080fd5b919050565b6000806040838503121561096357600080fd5b61096c83610934565b946020939093013593505050565b60008060006060848603121561098f57600080fd5b61099884610934565b92506109a660208501610934565b9150604084013590509250925092565b6000602082840312156109c857600080fd5b6109d182610934565b9392505050565b6000602082840312156109ea57600080fd5b5035919050565b60008060408385031215610a0457600080fd5b610a0d83610934565b9150610a1b60208401610934565b90509250929050565b600181811c90821680610a3857607f821691505b602082108103610a5857634e487b7160e01b600052602260045260246000fd5b50919050565b808201808211156102f657634e487b7160e01b600052601160045260246000fdfea264697066735822122071d93390bb4dfa780e9b44cd60344254fa43d388417115ead17c59df3f57db6a64736f6c63430008110033",
      "opcodes": "PUSH1 0x80 PUSH1 0x40 MSTORE CALLVALUE DUP1 ISZERO PUSH3 0x11 JUMPI PUSH1 0x0 DUP1 REVERT JUMPDEST POP PUSH1 0x40 MLOAD PUSH3 0xF6A CODESIZE SUB DUP1 PUSH3 0xF6A DUP4 CODECOPY DUP2 ADD PUSH1 0x40 DUP2 SWAP1 MSTORE PUSH3 0x34 SWAP2 PUSH3 0x1BE JUMP JUMPDEST PUSH1 0x40 MLOAD DUP1 PUSH1 0x40 ADD PUSH1 0x40 MSTORE DUP1 PUSH1 0xB DUP2 MSTORE PUSH1 0x20 ADD PUSH11 0x223AB930B5902A37B5B2B7 PUSH1 0xA9 SHL DUP2 MSTORE POP PUSH1 0x40 MLOAD DUP1 PUSH1 0x40 ADD PUSH1 0x40 MSTORE DUP1 PUSH1 0x5 DUP2 MSTORE PUSH1 0x20 ADD PUSH5 0x445552414B PUSH1 0xD8 SHL DUP2 MSTORE POP DUP2 PUSH1 0x3 SWAP1 DUP2 PUSH3 0x87 SWAP2 SWAP1 PUSH3 0x27C JUMP JUMPDEST POP PUSH1 0x4 PUSH3 0x96 DUP3 DUP3 PUSH3 0x27C JUMP JUMPDEST POP POP PUSH1 0x5 DUP1 SLOAD PUSH1 0x1 PUSH1 0x1 PUSH1 0xA0 SHL SUB NOT AND CALLER OR SWAP1 SSTORE POP PUSH3 0xB4 PUSH1 0x12 SWAP1 JUMP JUMPDEST PUSH3 0xC1 SWAP1 PUSH1 0xA PUSH3 0x45D JUMP JUMPDEST PUSH3 0xCD SWAP1 DUP3 PUSH3 0x475 JUMP JUMPDEST PUSH1 0x6 DUP2 SWAP1 SSTORE PUSH1 0x5 SLOAD PUSH3 0xEC SWAP2 PUSH1 0x1 PUSH1 0x1 PUSH1 0xA0 SHL SUB SWAP1 SWAP2 AND SWAP1 PUSH3 0xF3 JUMP JUMPDEST POP PUSH3 0x4A5 JUMP JUMPDEST PUSH1 0x1 PUSH1 0x1 PUSH1 0xA0 SHL SUB DUP3 AND PUSH3 0x14E JUMPI PUSH1 0x40 MLOAD PUSH3 0x461BCD PUSH1 0xE5 SHL DUP2 MSTORE PUSH1 0x20 PUSH1 0x4 DUP3 ADD MSTORE PUSH1 0x1F PUSH1 0x24 DUP3 ADD MSTORE PUSH32 0x45524332303A206D696E7420746F20746865207A65726F206164647265737300 PUSH1 0x44 DUP3 ADD MSTORE PUSH1 0x64 ADD PUSH1 0x40 MLOAD DUP1 SWAP2 SUB SWAP1 REVERT JUMPDEST DUP1 PUSH1 0x2 PUSH1 0x0 DUP3 DUP3 SLOAD PUSH3 0x162 SWAP2 SWAP1 PUSH3 0x48F JUMP JUMPDEST SWAP1 SWAP2 SSTORE POP POP PUSH1 0x1 PUSH1 0x1 PUSH1 0xA0 SHL SUB DUP3 AND PUSH1 0x0 DUP2 DUP2 MSTORE PUSH1 0x20 DUP2 DUP2 MSTORE PUSH1 0x40 DUP1 DUP4 KECCAK256 DUP1 SLOAD DUP7 ADD SWAP1 SSTORE MLOAD DUP5 DUP2 MSTORE PUSH32 0xDDF252AD1BE2C89B69C2B068FC378DAA952BA7F163C4A11628F55A4DF523B3EF SWAP2 ADD PUSH1 0x40 MLOAD DUP1 SWAP2 SUB SWAP1 LOG3 POP POP JUMP JUMPDEST POP POP POP JUMP JUMPDEST PUSH1 0x0 PUSH1 0x20 DUP3 DUP5 SUB SLT ISZERO PUSH3 0x1D1 JUMPI PUSH1 0x0 DUP1 REVERT JUMPDEST POP MLOAD SWAP2 SWAP1 POP JUMP JUMPDEST PUSH4 0x4E487B71 PUSH1 0xE0 SHL PUSH1 0x0 MSTORE PUSH1 0x41 PUSH1 0x4 MSTORE PUSH1 0x24 PUSH1 0x0 REVERT JUMPDEST PUSH1 0x1 DUP2 DUP2 SHR SWAP1 DUP3 AND DUP1 PUSH3 0x203 JUMPI PUSH1 0x7F DUP3 AND SWAP2 POP JUMPDEST PUSH1 0x20 DUP3 LT DUP2 SUB PUSH3 0x224 JUMPI PUSH4 0x4E487B71 PUSH1 0xE0 SHL PUSH1 0x0 MSTORE PUSH1 0x22 PUSH1 0x4 MSTORE PUSH1 0x24 PUSH1 0x0 REVERT JUMPDEST POP SWAP2 SWAP1 POP JUMP JUMPDEST PUSH1 0x1F DUP3 GT ISZERO PUSH3 0x1B9 JUMPI PUSH1 0x0 DUP2 DUP2 MSTORE PUSH1 0x20 DUP2 KECCAK256 PUSH1 0x1F DUP6 ADD PUSH1 0x5 SHR DUP2 ADD PUSH1 0x20 DUP7 LT ISZERO PUSH3 0x253 JUMPI POP DUP1 JUMPDEST PUSH1 0x1F DUP6 ADD PUSH1 0x5 SHR DUP3 ADD SWAP2 POP JUMPDEST DUP2 DUP2 LT ISZERO PUSH3 0x274 JUMPI DUP3 DUP2 SSTORE PUSH1 0x1 ADD PUSH3 0x25F JUMP JUMPDEST POP POP POP POP POP POP JUMP JUMPDEST DUP2 MLOAD PUSH1 0x1 PUSH1 0x1 PUSH1 0x40 SHL SUB DUP2 GT ISZERO PUSH3 0x298 JUMPI PUSH3 0x298 PUSH3 0x1D8 JUMP JUMPDEST PUSH3 0x2B0 DUP2 PUSH3 0x2A9 DUP5 SLOAD PUSH3 0x1EE JUMP JUMPDEST DUP5 PUSH3 0x22A JUMP JUMPDEST PUSH1 0x20 DUP1 PUSH1 0x1F DUP4 GT PUSH1 0x1 DUP2 EQ PUSH3 0x2E8 JUMPI PUSH1 0x0 DUP5 ISZERO PUSH3 0x2CF JUMPI POP DUP6 DUP4 ADD MLOAD JUMPDEST PUSH1 0x0 NOT PUSH1 0x3 DUP7 SWAP1 SHL SHR NOT AND PUSH1 0x1 DUP6 SWAP1 SHL OR DUP6 SSTORE PUSH3 0x274 JUMP JUMPDEST PUSH1 0x0 DUP6 DUP2 MSTORE PUSH1 0x20 DUP2 KECCAK256 PUSH1 0x1F NOT DUP7 AND SWAP2 JUMPDEST DUP3 DUP2 LT ISZERO PUSH3 0x319 JUMPI DUP9 DUP7 ADD MLOAD DUP3 SSTORE SWAP5 DUP5 ADD SWAP5 PUSH1 0x1 SWAP1 SWAP2 ADD SWAP1 DUP5 ADD PUSH3 0x2F8 JUMP JUMPDEST POP DUP6 DUP3 LT ISZERO PUSH3 0x338 JUMPI DUP8 DUP6 ADD MLOAD PUSH1 0x0 NOT PUSH1 0x3 DUP9 SWAP1 SHL PUSH1 0xF8 AND SHR NOT AND DUP2 SSTORE JUMPDEST POP POP POP POP POP PUSH1 0x1 SWAP1 DUP2 SHL ADD SWAP1 SSTORE POP JUMP JUMPDEST PUSH4 0x4E487B71 PUSH1 0xE0 SHL PUSH1 0x0 MSTORE PUSH1 0x11 PUSH1 0x4 MSTORE PUSH1 0x24 PUSH1 0x0 REVERT JUMPDEST PUSH1 0x1 DUP2 DUP2 JUMPDEST DUP1 DUP6 GT ISZERO PUSH3 0x39F JUMPI DUP2 PUSH1 0x0 NOT DIV DUP3 GT ISZERO PUSH3 0x383 JUMPI PUSH3 0x383 PUSH3 0x348 JUMP JUMPDEST DUP1 DUP6 AND ISZERO PUSH3 0x391 JUMPI SWAP2 DUP2 MUL SWAP2 JUMPDEST SWAP4 DUP5 SHR SWAP4 SWAP1 DUP1 MUL SWAP1 PUSH3 0x363 JUMP JUMPDEST POP SWAP3 POP SWAP3 SWAP1 POP JUMP JUMPDEST PUSH1 0x0 DUP3 PUSH3 0x3B8 JUMPI POP PUSH1 0x1 PUSH3 0x457 JUMP JUMPDEST DUP2 PUSH3 0x3C7 JUMPI POP PUSH1 0x0 PUSH3 0x457 JUMP JUMPDEST DUP2 PUSH1 0x1 DUP2 EQ PUSH3 0x3E0 JUMPI PUSH1 0x2 DUP2 EQ PUSH3 0x3EB JUMPI PUSH3 0x40B JUMP JUMPDEST PUSH1 0x1 SWAP2 POP POP PUSH3 0x457 JUMP JUMPDEST PUSH1 0xFF DUP5 GT ISZERO PUSH3 0x3FF JUMPI PUSH3 0x3FF PUSH3 0x348 JUMP JUMPDEST POP POP PUSH1 0x1 DUP3 SHL PUSH3 0x457 JUMP JUMPDEST POP PUSH1 0x20 DUP4 LT PUSH2 0x133 DUP4 LT AND PUSH1 0x4E DUP5 LT PUSH1 0xB DUP5 LT AND OR ISZERO PUSH3 0x430 JUMPI POP DUP2 DUP2 EXP PUSH3 0x457 JUMP JUMPDEST PUSH3 0x43C DUP4 DUP4 PUSH3 0x35E JUMP JUMPDEST DUP1 PUSH1 0x0 NOT DIV DUP3 GT ISZERO PUSH3 0x453 JUMPI PUSH3 0x453 PUSH3 0x348 JUMP JUMPDEST MUL SWAP1 POP JUMPDEST SWAP3 SWAP2 POP POP JUMP JUMPDEST PUSH1 0x0 PUSH3 0x46E PUSH1 0xFF DUP5 AND DUP4 PUSH3 0x3A7 JUMP JUMPDEST SWAP4 SWAP3 POP POP POP JUMP JUMPDEST DUP1 DUP3 MUL DUP2 ISZERO DUP3 DUP3 DIV DUP5 EQ OR PUSH3 0x457 JUMPI PUSH3 0x457 PUSH3 0x348 JUMP JUMPDEST DUP1 DUP3 ADD DUP1 DUP3 GT ISZERO PUSH3 0x457 JUMPI PUSH3 0x457 PUSH3 0x348 JUMP JUMPDEST PUSH2 0xAB5 DUP1 PUSH3 0x4B5 PUSH1 0x0 CODECOPY PUSH1 0x0 RETURN INVALID PUSH1 0x80 PUSH1 0x40 MSTORE CALLVALUE DUP1 ISZERO PUSH2 0x10 JUMPI PUSH1 0x0 DUP1 REVERT JUMPDEST POP PUSH1 0x4 CALLDATASIZE LT PUSH2 0xEA JUMPI PUSH1 0x0 CALLDATALOAD PUSH1 0xE0 SHR DUP1 PUSH4 0x70A08231 GT PUSH2 0x8C JUMPI DUP1 PUSH4 0x97304CED GT PUSH2 0x66 JUMPI DUP1 PUSH4 0x97304CED EQ PUSH2 0x1DC JUMPI DUP1 PUSH4 0xA457C2D7 EQ PUSH2 0x1F1 JUMPI DUP1 PUSH4 0xA9059CBB EQ PUSH2 0x204 JUMPI DUP1 PUSH4 0xDD62ED3E EQ PUSH2 0x217 JUMPI PUSH1 0x0 DUP1 REVERT JUMPDEST DUP1 PUSH4 0x70A08231 EQ PUSH2 0x180 JUMPI DUP1 PUSH4 0x8DA5CB5B EQ PUSH2 0x1A9 JUMPI DUP1 PUSH4 0x95D89B41 EQ PUSH2 0x1D4 JUMPI PUSH1 0x0 DUP1 REVERT JUMPDEST DUP1 PUSH4 0x23B872DD GT PUSH2 0xC8 JUMPI DUP1 PUSH4 0x23B872DD EQ PUSH2 0x142 JUMPI DUP1 PUSH4 0x313CE567 EQ PUSH2 0x155 JUMPI DUP1 PUSH4 0x378DC3DC EQ PUSH2 0x164 JUMPI DUP1 PUSH4 0x39509351 EQ PUSH2 0x16D JUMPI PUSH1 0x0 DUP1 REVERT JUMPDEST DUP1 PUSH4 0x6FDDE03 EQ PUSH2 0xEF JUMPI DUP1 PUSH4 0x95EA7B3 EQ PUSH2 0x10D JUMPI DUP1 PUSH4 0x18160DDD EQ PUSH2 0x130 JUMPI JUMPDEST PUSH1 0x0 DUP1 REVERT JUMPDEST PUSH2 0xF7 PUSH2 0x250 JUMP JUMPDEST PUSH1 0x40 MLOAD PUSH2 0x104 SWAP2 SWAP1 PUSH2 0x8E6 JUMP JUMPDEST PUSH1 0x40 MLOAD DUP1 SWAP2 SUB SWAP1 RETURN JUMPDEST PUSH2 0x120 PUSH2 0x11B CALLDATASIZE PUSH1 0x4 PUSH2 0x950 JUMP JUMPDEST PUSH2 0x2E2 JUMP JUMPDEST PUSH1 0x40 MLOAD SWAP1 ISZERO ISZERO DUP2 MSTORE PUSH1 0x20 ADD PUSH2 0x104 JUMP JUMPDEST PUSH1 0x2 SLOAD JUMPDEST PUSH1 0x40 MLOAD SWAP1 DUP2 MSTORE PUSH1 0x20 ADD PUSH2 0x104 JUMP JUMPDEST PUSH2 0x120 PUSH2 0x150 CALLDATASIZE PUSH1 0x4 PUSH2 0x97A JUMP JUMPDEST PUSH2 0x2FC JUMP JUMPDEST PUSH1 0x40 MLOAD PUSH1 0x12 DUP2 MSTORE PUSH1 0x20 ADD PUSH2 0x104 JUMP JUMPDEST PUSH2 0x134 PUSH1 0x6 SLOAD DUP2 JUMP JUMPDEST PUSH2 0x120 PUSH2 0x17B CALLDATASIZE PUSH1 0x4 PUSH2 0x950 JUMP JUMPDEST PUSH2 0x320 JUMP JUMPDEST PUSH2 0x134 PUSH2 0x18E CALLDATASIZE PUSH1 0x4 PUSH2 0x9B6 JUMP JUMPDEST PUSH1 0x1 PUSH1 0x1 PUSH1 0xA0 SHL SUB AND PUSH1 0x0 SWAP1 DUP2 MSTORE PUSH1 0x20 DUP2 SWAP1 MSTORE PUSH1 0x40 SWAP1 KECCAK256 SLOAD SWAP1 JUMP JUMPDEST PUSH1 0x5 SLOAD PUSH2 0x1BC SWAP1 PUSH1 0x1 PUSH1 0x1 PUSH1 0xA0 SHL SUB AND DUP2 JUMP JUMPDEST PUSH1 0x40 MLOAD PUSH1 0x1 PUSH1 0x1 PUSH1 0xA0 SHL SUB SWAP1 SWAP2 AND DUP2 MSTORE PUSH1 0x20 ADD PUSH2 0x104 JUMP JUMPDEST PUSH2 0xF7 PUSH2 0x35F JUMP JUMPDEST PUSH2 0x1EF PUSH2 0x1EA CALLDATASIZE PUSH1 0x4 PUSH2 0x9D8 JUMP JUMPDEST PUSH2 0x36E JUMP JUMPDEST STOP JUMPDEST PUSH2 0x120 PUSH2 0x1FF CALLDATASIZE PUSH1 0x4 PUSH2 0x950 JUMP JUMPDEST PUSH2 0x3E6 JUMP JUMPDEST PUSH2 0x120 PUSH2 0x212 CALLDATASIZE PUSH1 0x4 PUSH2 0x950 JUMP JUMPDEST PUSH2 0x490 JUMP JUMPDEST PUSH2 0x134 PUSH2 0x225 CALLDATASIZE PUSH1 0x4 PUSH2 0x9F1 JUMP JUMPDEST PUSH1 0x1 PUSH1 0x1 PUSH1 0xA0 SHL SUB SWAP2 DUP3 AND PUSH1 0x0 SWAP1 DUP2 MSTORE PUSH1 0x1 PUSH1 0x20 SWAP1 DUP2 MSTORE PUSH1 0x40 DUP1 DUP4 KECCAK256 SWAP4 SWAP1 SWAP5 AND DUP3 MSTORE SWAP2 SWAP1 SWAP2 MSTORE KECCAK256 SLOAD SWAP1 JUMP JUMPDEST PUSH1 0x60 PUSH1 0x3 DUP1 SLOAD PUSH2 0x25F SWAP1 PUSH2 0xA24 JUMP JUMPDEST DUP1 PUSH1 0x1F ADD PUSH1 0x20 DUP1 SWAP2 DIV MUL PUSH1 0x20 ADD PUSH1 0x40 MLOAD SWAP1 DUP2 ADD PUSH1 0x40 MSTORE DUP1 SWAP3 SWAP2 SWAP1 DUP2 DUP2 MSTORE PUSH1 0x20 ADD DUP3 DUP1 SLOAD PUSH2 0x28B SWAP1 PUSH2 0xA24 JUMP JUMPDEST DUP1 ISZERO PUSH2 0x2D8 JUMPI DUP1 PUSH1 0x1F LT PUSH2 0x2AD JUMPI PUSH2 0x100 DUP1 DUP4 SLOAD DIV MUL DUP4 MSTORE SWAP2 PUSH1 0x20 ADD SWAP2 PUSH2 0x2D8 JUMP JUMPDEST DUP3 ADD SWAP2 SWAP1 PUSH1 0x0 MSTORE PUSH1 0x20 PUSH1 0x0 KECCAK256 SWAP1 JUMPDEST DUP2 SLOAD DUP2 MSTORE SWAP1 PUSH1 0x1 ADD SWAP1 PUSH1 0x20 ADD DUP1 DUP4 GT PUSH2 0x2BB JUMPI DUP3 SWAP1 SUB PUSH1 0x1F AND DUP3 ADD SWAP2 JUMPDEST POP POP POP POP POP SWAP1 POP SWAP1 JUMP JUMPDEST PUSH1 0x0 CALLER PUSH2 0x2F0 DUP2 DUP6 DUP6 PUSH2 0x49E JUMP JUMPDEST PUSH1 0x1 SWAP2 POP POP JUMPDEST SWAP3 SWAP2 POP POP JUMP JUMPDEST PUSH1 0x0 CALLER PUSH2 0x30A DUP6 DUP3 DUP6 PUSH2 0x5C2 JUMP JUMPDEST PUSH2 0x315 DUP6 DUP6 DUP6 PUSH2 0x654 JUMP JUMPDEST POP PUSH1 0x1 SWAP5 SWAP4 POP POP POP POP JUMP JUMPDEST CALLER PUSH1 0x0 DUP2 DUP2 MSTORE PUSH1 0x1 PUSH1 0x20 SWAP1 DUP2 MSTORE PUSH1 0x40 DUP1 DUP4 KECCAK256 PUSH1 0x1 PUSH1 0x1 PUSH1 0xA0 SHL SUB DUP8 AND DUP5 MSTORE SWAP1 SWAP2 MSTORE DUP2 KECCAK256 SLOAD SWAP1 SWAP2 SWAP1 PUSH2 0x2F0 SWAP1 DUP3 SWAP1 DUP7 SWAP1 PUSH2 0x35A SWAP1 DUP8 SWAP1 PUSH2 0xA5E JUMP JUMPDEST PUSH2 0x49E JUMP JUMPDEST PUSH1 0x60 PUSH1 0x4 DUP1 SLOAD PUSH2 0x25F SWAP1 PUSH2 0xA24 JUMP JUMPDEST PUSH1 0x5 SLOAD PUSH1 0x1 PUSH1 0x1 PUSH1 0xA0 SHL SUB AND CALLER EQ PUSH2 0x3CD JUMPI PUSH1 0x40 MLOAD PUSH3 0x461BCD PUSH1 0xE5 SHL DUP2 MSTORE PUSH1 0x20 PUSH1 0x4 DUP3 ADD MSTORE PUSH1 0x1E PUSH1 0x24 DUP3 ADD MSTORE PUSH32 0x4F6E6C7920746865206F776E65722063616E206D696E7420746F6B656E730000 PUSH1 0x44 DUP3 ADD MSTORE PUSH1 0x64 ADD JUMPDEST PUSH1 0x40 MLOAD DUP1 SWAP2 SUB SWAP1 REVERT JUMPDEST PUSH1 0x5 SLOAD PUSH2 0x3E3 SWAP1 PUSH1 0x1 PUSH1 0x1 PUSH1 0xA0 SHL SUB AND DUP3 PUSH2 0x827 JUMP JUMPDEST POP JUMP JUMPDEST CALLER PUSH1 0x0 DUP2 DUP2 MSTORE PUSH1 0x1 PUSH1 0x20 SWAP1 DUP2 MSTORE PUSH1 0x40 DUP1 DUP4 KECCAK256 PUSH1 0x1 PUSH1 0x1 PUSH1 0xA0 SHL SUB DUP8 AND DUP5 MSTORE SWAP1 SWAP2 MSTORE DUP2 KECCAK256 SLOAD SWAP1 SWAP2 SWAP1 DUP4 DUP2 LT ISZERO PUSH2 0x483 JUMPI PUSH1 0x40 MLOAD PUSH3 0x461BCD PUSH1 0xE5 SHL DUP2 MSTORE PUSH1 0x20 PUSH1 0x4 DUP3 ADD MSTORE PUSH1 0x25 PUSH1 0x24 DUP3 ADD MSTORE PUSH32 0x45524332303A2064656372656173656420616C6C6F77616E63652062656C6F77 PUSH1 0x44 DUP3 ADD MSTORE PUSH32 0x207A65726F000000000000000000000000000000000000000000000000000000 PUSH1 0x64 DUP3 ADD MSTORE PUSH1 0x84 ADD PUSH2 0x3C4 JUMP JUMPDEST PUSH2 0x315 DUP3 DUP7 DUP7 DUP5 SUB PUSH2 0x49E JUMP JUMPDEST PUSH1 0x0 CALLER PUSH2 0x2F0 DUP2 DUP6 DUP6 PUSH2 0x654 JUMP JUMPDEST PUSH1 0x1 PUSH1 0x1 PUSH1 0xA0 SHL SUB DUP4 AND PUSH2 0x500 JUMPI PUSH1 0x40 MLOAD PUSH3 0x461BCD PUSH1 0xE5 SHL DUP2 MSTORE PUSH1 0x20 PUSH1 0x4 DUP3 ADD MSTORE PUSH1 0x24 DUP1 DUP3 ADD MSTORE PUSH32 0x45524332303A20617070726F76652066726F6D20746865207A65726F20616464 PUSH1 0x44 DUP3 ADD MSTORE PUSH4 0x72657373 PUSH1 0xE0 SHL PUSH1 0x64 DUP3 ADD MSTORE PUSH1 0x84 ADD PUSH2 0x3C4 JUMP JUMPDEST PUSH1 0x1 PUSH1 0x1 PUSH1 0xA0 SHL SUB DUP3 AND PUSH2 0x561 JUMPI PUSH1 0x40 MLOAD PUSH3 0x461BCD PUSH1 0xE5 SHL DUP2 MSTORE PUSH1 0x20 PUSH1 0x4 DUP3 ADD MSTORE PUSH1 0x22 PUSH1 0x24 DUP3 ADD MSTORE PUSH32 0x45524332303A20617070726F766520746F20746865207A65726F206164647265 PUSH1 0x44 DUP3 ADD MSTORE PUSH2 0x7373 PUSH1 0xF0 SHL PUSH1 0x64 DUP3 ADD MSTORE PUSH1 0x84 ADD PUSH2 0x3C4 JUMP JUMPDEST PUSH1 0x1 PUSH1 0x1 PUSH1 0xA0 SHL SUB DUP4 DUP2 AND PUSH1 0x0 DUP2 DUP2 MSTORE PUSH1 0x1 PUSH1 0x20 SWAP1 DUP2 MSTORE PUSH1 0x40 DUP1 DUP4 KECCAK256 SWAP5 DUP8 AND DUP1 DUP5 MSTORE SWAP5 DUP3 MSTORE SWAP2 DUP3 SWAP1 KECCAK256 DUP6 SWAP1 SSTORE SWAP1 MLOAD DUP5 DUP2 MSTORE PUSH32 0x8C5BE1E5EBEC7D5BD14F71427D1E84F3DD0314C0F7B2291E5B200AC8C7C3B925 SWAP2 ADD PUSH1 0x40 MLOAD DUP1 SWAP2 SUB SWAP1 LOG3 POP POP POP JUMP JUMPDEST PUSH1 0x1 PUSH1 0x1 PUSH1 0xA0 SHL SUB DUP4 DUP2 AND PUSH1 0x0 SWAP1 DUP2 MSTORE PUSH1 0x1 PUSH1 0x20 SWAP1 DUP2 MSTORE PUSH1 0x40 DUP1 DUP4 KECCAK256 SWAP4 DUP7 AND DUP4 MSTORE SWAP3 SWAP1 MSTORE KECCAK256 SLOAD PUSH1 0x0 NOT DUP2 EQ PUSH2 0x64E JUMPI DUP2 DUP2 LT ISZERO PUSH2 0x641 JUMPI PUSH1 0x40 MLOAD PUSH3 0x461BCD PUSH1 0xE5 SHL DUP2 MSTORE PUSH1 0x20 PUSH1 0x4 DUP3 ADD MSTORE PUSH1 0x1D PUSH1 0x24 DUP3 ADD MSTORE PUSH32 0x45524332303A20696E73756666696369656E7420616C6C6F77616E6365000000 PUSH1 0x44 DUP3 ADD MSTORE PUSH1 0x64 ADD PUSH2 0x3C4 JUMP JUMPDEST PUSH2 0x64E DUP5 DUP5 DUP5 DUP5 SUB PUSH2 0x49E JUMP JUMPDEST POP POP POP POP JUMP JUMPDEST PUSH1 0x1 PUSH1 0x1 PUSH1 0xA0 SHL SUB DUP4 AND PUSH2 0x6D0 JUMPI PUSH1 0x40 MLOAD PUSH3 0x461BCD PUSH1 0xE5 SHL DUP2 MSTORE PUSH1 0x20 PUSH1 0x4 DUP3 ADD MSTORE PUSH1 0x25 PUSH1 0x24 DUP3 ADD MSTORE PUSH32 0x45524332303A207472616E736665722066726F6D20746865207A65726F206164 PUSH1 0x44 DUP3 ADD MSTORE PUSH32 0x6472657373000000000000000000000000000000000000000000000000000000 PUSH1 0x64 DUP3 ADD MSTORE PUSH1 0x84 ADD PUSH2 0x3C4 JUMP JUMPDEST PUSH1 0x1 PUSH1 0x1 PUSH1 0xA0 SHL SUB DUP3 AND PUSH2 0x732 JUMPI PUSH1 0x40 MLOAD PUSH3 0x461BCD PUSH1 0xE5 SHL DUP2 MSTORE PUSH1 0x20 PUSH1 0x4 DUP3 ADD MSTORE PUSH1 0x23 PUSH1 0x24 DUP3 ADD MSTORE PUSH32 0x45524332303A207472616E7366657220746F20746865207A65726F2061646472 PUSH1 0x44 DUP3 ADD MSTORE PUSH3 0x657373 PUSH1 0xE8 SHL PUSH1 0x64 DUP3 ADD MSTORE PUSH1 0x84 ADD PUSH2 0x3C4 JUMP JUMPDEST PUSH1 0x1 PUSH1 0x1 PUSH1 0xA0 SHL SUB DUP4 AND PUSH1 0x0 SWAP1 DUP2 MSTORE PUSH1 0x20 DUP2 SWAP1 MSTORE PUSH1 0x40 SWAP1 KECCAK256 SLOAD DUP2 DUP2 LT ISZERO PUSH2 0x7C1 JUMPI PUSH1 0x40 MLOAD PUSH3 0x461BCD PUSH1 0xE5 SHL DUP2 MSTORE PUSH1 0x20 PUSH1 0x4 DUP3 ADD MSTORE PUSH1 0x26 PUSH1 0x24 DUP3 ADD MSTORE PUSH32 0x45524332303A207472616E7366657220616D6F756E7420657863656564732062 PUSH1 0x44 DUP3 ADD MSTORE PUSH32 0x616C616E63650000000000000000000000000000000000000000000000000000 PUSH1 0x64 DUP3 ADD MSTORE PUSH1 0x84 ADD PUSH2 0x3C4 JUMP JUMPDEST PUSH1 0x1 PUSH1 0x1 PUSH1 0xA0 SHL SUB DUP5 DUP2 AND PUSH1 0x0 DUP2 DUP2 MSTORE PUSH1 0x20 DUP2 DUP2 MSTORE PUSH1 0x40 DUP1 DUP4 KECCAK256 DUP8 DUP8 SUB SWAP1 SSTORE SWAP4 DUP8 AND DUP1 DUP4 MSTORE SWAP2 DUP5 SWAP1 KECCAK256 DUP1 SLOAD DUP8 ADD SWAP1 SSTORE SWAP3 MLOAD DUP6 DUP2 MSTORE SWAP1 SWAP3 PUSH32 0xDDF252AD1BE2C89B69C2B068FC378DAA952BA7F163C4A11628F55A4DF523B3EF SWAP2 ADD PUSH1 0x40 MLOAD DUP1 SWAP2 SUB SWAP1 LOG3 PUSH2 0x64E JUMP JUMPDEST PUSH1 0x1 PUSH1 0x1 PUSH1 0xA0 SHL SUB DUP3 AND PUSH2 0x87D JUMPI PUSH1 0x40 MLOAD PUSH3 0x461BCD PUSH1 0xE5 SHL DUP2 MSTORE PUSH1 0x20 PUSH1 0x4 DUP3 ADD MSTORE PUSH1 0x1F PUSH1 0x24 DUP3 ADD MSTORE PUSH32 0x45524332303A206D696E7420746F20746865207A65726F206164647265737300 PUSH1 0x44 DUP3 ADD MSTORE PUSH1 0x64 ADD PUSH2 0x3C4 JUMP JUMPDEST DUP1 PUSH1 0x2 PUSH1 0x0 DUP3 DUP3 SLOAD PUSH2 0x88F SWAP2 SWAP1 PUSH2 0xA5E JUMP JUMPDEST SWAP1 SWAP2 SSTORE POP POP PUSH1 0x1 PUSH1 0x1 PUSH1 0xA0 SHL SUB DUP3 AND PUSH1 0x0 DUP2 DUP2 MSTORE PUSH1 0x20 DUP2 DUP2 MSTORE PUSH1 0x40 DUP1 DUP4 KECCAK256 DUP1 SLOAD DUP7 ADD SWAP1 SSTORE MLOAD DUP5 DUP2 MSTORE PUSH32 0xDDF252AD1BE2C89B69C2B068FC378DAA952BA7F163C4A11628F55A4DF523B3EF SWAP2 ADD PUSH1 0x40 MLOAD DUP1 SWAP2 SUB SWAP1 LOG3 POP POP JUMP JUMPDEST PUSH1 0x0 PUSH1 0x20 DUP1 DUP4 MSTORE DUP4 MLOAD DUP1 DUP3 DUP6 ADD MSTORE PUSH1 0x0 JUMPDEST DUP2 DUP2 LT ISZERO PUSH2 0x913 JUMPI DUP6 DUP2 ADD DUP4 ADD MLOAD DUP6 DUP3 ADD PUSH1 0x40 ADD MSTORE DUP3 ADD PUSH2 0x8F7 JUMP JUMPDEST POP PUSH1 0x0 PUSH1 0x40 DUP3 DUP7 ADD ADD MSTORE PUSH1 0x40 PUSH1 0x1F NOT PUSH1 0x1F DUP4 ADD AND DUP6 ADD ADD SWAP3 POP POP POP SWAP3 SWAP2 POP POP JUMP JUMPDEST DUP1 CALLDATALOAD PUSH1 0x1 PUSH1 0x1 PUSH1 0xA0 SHL SUB DUP2 AND DUP2 EQ PUSH2 0x94B JUMPI PUSH1 0x0 DUP1 REVERT JUMPDEST SWAP2 SWAP1 POP JUMP JUMPDEST PUSH1 0x0 DUP1 PUSH1 0x40 DUP4 DUP6 SUB SLT ISZERO PUSH2 0x963 JUMPI PUSH1 0x0 DUP1 REVERT JUMPDEST PUSH2 0x96C DUP4 PUSH2 0x934 JUMP JUMPDEST SWAP5 PUSH1 0x20 SWAP4 SWAP1 SWAP4 ADD CALLDATALOAD SWAP4 POP POP POP JUMP JUMPDEST PUSH1 0x0 DUP1 PUSH1 0x0 PUSH1 0x60 DUP5 DUP7 SUB SLT ISZERO PUSH2 0x98F JUMPI PUSH1 0x0 DUP1 REVERT JUMPDEST PUSH2 0x998 DUP5 PUSH2 0x934 JUMP JUMPDEST SWAP3 POP PUSH2 0x9A6 PUSH1 0x20 DUP6 ADD PUSH2 0x934 JUMP JUMPDEST SWAP2 POP PUSH1 0x40 DUP5 ADD CALLDATALOAD SWAP1 POP SWAP3 POP SWAP3 POP SWAP3 JUMP JUMPDEST PUSH1 0x0 PUSH1 0x20 DUP3 DUP5 SUB SLT ISZERO PUSH2 0x9C8 JUMPI PUSH1 0x0 DUP1 REVERT JUMPDEST PUSH2 0x9D1 DUP3 PUSH2 0x934 JUMP JUMPDEST SWAP4 SWAP3 POP POP POP JUMP JUMPDEST PUSH1 0x0 PUSH1 0x20 DUP3 DUP5 SUB SLT ISZERO PUSH2 0x9EA JUMPI PUSH1 0x0 DUP1 REVERT JUMPDEST POP CALLDATALOAD SWAP2 SWAP1 POP JUMP JUMPDEST PUSH1 0x0 DUP1 PUSH1 0x40 DUP4 DUP6 SUB SLT ISZERO PUSH2 0xA04 JUMPI PUSH1 0x0 DUP1 REVERT JUMPDEST PUSH2 0xA0D DUP4 PUSH2 0x934 JUMP JUMPDEST SWAP2 POP PUSH2 0xA1B PUSH1 0x20 DUP5 ADD PUSH2 0x934 JUMP JUMPDEST SWAP1 POP SWAP3 POP SWAP3 SWAP1 POP JUMP JUMPDEST PUSH1 0x1 DUP2 DUP2 SHR SWAP1 DUP3 AND DUP1 PUSH2 0xA38 JUMPI PUSH1 0x7F DUP3 AND SWAP2 POP JUMPDEST PUSH1 0x20 DUP3 LT DUP2 SUB PUSH2 0xA58 JUMPI PUSH4 0x4E487B71 PUSH1 0xE0 SHL PUSH1 0x0 MSTORE PUSH1 0x22 PUSH1 0x4 MSTORE PUSH1 0x24 PUSH1 0x0 REVERT JUMPDEST POP SWAP2 SWAP1 POP JUMP JUMPDEST DUP1 DUP3 ADD DUP1 DUP3 GT ISZERO PUSH2 0x2F6 JUMPI PUSH4 0x4E487B71 PUSH1 0xE0 SHL PUSH1 0x0 MSTORE PUSH1 0x11 PUSH1 0x4 MSTORE PUSH1 0x24 PUSH1 0x0 REVERT INVALID LOG2 PUSH5 0x6970667358 0x22 SLT KECCAK256 PUSH18 0xD93390BB4DFA780E9B44CD60344254FA43D3 DUP9 COINBASE PUSH18 0x15EAD17C59DF3F57DB6A64736F6C63430008 GT STOP CALLER "
    },
    "gasEstimates": {
      "creation": {
        "codeDepositCost": "548200",
        "executionCost": "infinite",
        "totalCost": "infinite"
      },
      "external": {
        "allowance(address,address)": "infinite",
        "approve(address,uint256)": "24651",
        "balanceOf(address)": "2563",
        "decimals()": "222",
        "decreaseAllowance(address,uint256)": "26944",
        "increaseAllowance(address,uint256)": "infinite",
        "initialSupply()": "2362",
        "mintTokens(uint256)": "54984",
        "name()": "infinite",
        "owner()": "2382",
        "symbol()": "infinite",
        "totalSupply()": "2349",
        "transfer(address,uint256)": "51116",
        "transferFrom(address,address,uint256)": "infinite"
      }
    },
    "methodIdentifiers": {
      "allowance(address,address)": "dd62ed3e",
      "approve(address,uint256)": "095ea7b3",
      "balanceOf(address)": "70a08231",
      "decimals()": "313ce567",
      "decreaseAllowance(address,uint256)": "a457c2d7",
      "increaseAllowance(address,uint256)": "39509351",
      "initialSupply()": "378dc3dc",
      "mintTokens(uint256)": "97304ced",
      "name()": "06fdde03",
      "owner()": "8da5cb5b",
      "symbol()": "95d89b41",
      "totalSupply()": "18160ddd",
      "transfer(address,uint256)": "a9059cbb",
      "transferFrom(address,address,uint256)": "23b872dd"
    }
  },
  "storageLayout": {
    "storage": [
      {
        "astId": 74,
        "contract": "durakToken.sol:durakToken",
        "label": "_balances",
        "offset": 0,
        "slot": "0",
        "type": "t_mapping(t_address,t_uint256)"
      },
      {
        "astId": 80,
        "contract": "durakToken.sol:durakToken",
        "label": "_allowances",
        "offset": 0,
        "slot": "1",
        "type": "t_mapping(t_address,t_mapping(t_address,t_uint256))"
      },
      {
        "astId": 82,
        "contract": "durakToken.sol:durakToken",
        "label": "_totalSupply",
        "offset": 0,
        "slot": "2",
        "type": "t_uint256"
      },
      {
        "astId": 84,
        "contract": "durakToken.sol:durakToken",
        "label": "_name",
        "offset": 0,
        "slot": "3",
        "type": "t_string_storage"
      },
      {
        "astId": 86,
        "contract": "durakToken.sol:durakToken",
        "label": "_symbol",
        "offset": 0,
        "slot": "4",
        "type": "t_string_storage"
      },
      {
        "astId": 6,
        "contract": "durakToken.sol:durakToken",
        "label": "owner",
        "offset": 0,
        "slot": "5",
        "type": "t_address"
      },
      {
        "astId": 8,
        "contract": "durakToken.sol:durakToken",
        "label": "initialSupply",
        "offset": 0,
        "slot": "6",
        "type": "t_uint256"
      }
    ],
    "types": {
      "t_address": {
        "encoding": "inplace",
        "label": "address",
        "numberOfBytes": "20"
      },
      "t_mapping(t_address,t_mapping(t_address,t_uint256))": {
        "encoding": "mapping",
        "key": "t_address",
        "label": "mapping(address => mapping(address => uint256))",
        "numberOfBytes": "32",
        "value": "t_mapping(t_address,t_uint256)"
      },
      "t_mapping(t_address,t_uint256)": {
        "encoding": "mapping",
        "key": "t_address",
        "label": "mapping(address => uint256)",
        "numberOfBytes": "32",
        "value": "t_uint256"
      },
      "t_string_storage": {
        "encoding": "bytes",
        "label": "string",
        "numberOfBytes": "32"
      },
      "t_uint256": {
        "encoding": "inplace",
        "label": "uint256",
        "numberOfBytes": "32"
      }
    }
  },
  "userdoc": {
    "kind": "user",
    "methods": {},
    "version": 1
  }
}