{
  "abi": [
    {
      "inputs": [
        {
          "internalType": "address",
          "name": "_tokenContractAddress",
          "type": "address"
        }
      ],
      "stateMutability": "nonpayable",
      "type": "constructor"
    },
    {
      "inputs": [
        {
          "internalType": "address",
          "name": "",
          "type": "address"
        }
      ],
      "name": "currentGame",
      "outputs": [
        {
          "internalType": "bool",
          "name": "",
          "type": "bool"
        }
      ],
      "stateMutability": "view",
      "type": "function"
    },
    {
      "inputs": [
        {
          "internalType": "bool",
          "name": "won",
          "type": "bool"
        }
      ],
      "name": "endGame",
      "outputs": [],
      "stateMutability": "nonpayable",
      "type": "function"
    },
    {
      "inputs": [
        {
          "internalType": "address",
          "name": "",
          "type": "address"
        }
      ],
      "name": "lastGameResult",
      "outputs": [
        {
          "internalType": "uint256",
          "name": "",
          "type": "uint256"
        }
      ],
      "stateMutability": "view",
      "type": "function"
    },
    {
      "inputs": [],
      "name": "simulateGame",
      "outputs": [],
      "stateMutability": "nonpayable",
      "type": "function"
    },
    {
      "inputs": [],
      "name": "startGame",
      "outputs": [],
      "stateMutability": "nonpayable",
      "type": "function"
    },
    {
      "inputs": [],
      "name": "tokenContract",
      "outputs": [
        {
          "internalType": "contract durakToken",
          "name": "",
          "type": "address"
        }
      ],
      "stateMutability": "view",
      "type": "function"
    }
  ],
  "devdoc": {
    "kind": "dev",
    "methods": {},
    "version": 1
  },
  "evm": {
    "assembly": "    /* \"durakGame.sol\":85:1711  contract durakGame {... */\n  mstore(0x40, 0x80)\n    /* \"durakGame.sol\":252:361  constructor(address _tokenContractAddress) {... */\n  callvalue\n  dup1\n  iszero\n  tag_1\n  jumpi\n  0x00\n  dup1\n  revert\ntag_1:\n  pop\n  mload(0x40)\n  sub(codesize, bytecodeSize)\n  dup1\n  bytecodeSize\n  dup4\n  codecopy\n  dup2\n  add\n  0x40\n  dup2\n  swap1\n  mstore\n  tag_2\n  swap2\n  tag_3\n  jump\t// in\ntag_2:\n    /* \"durakGame.sol\":305:318  tokenContract */\n  0x00\n    /* \"durakGame.sol\":305:354  tokenContract = durakToken(_tokenContractAddress) */\n  dup1\n  sload\n  not(sub(shl(0xa0, 0x01), 0x01))\n  and\n  sub(shl(0xa0, 0x01), 0x01)\n  swap3\n  swap1\n  swap3\n  and\n  swap2\n  swap1\n  swap2\n  or\n  swap1\n  sstore\n    /* \"durakGame.sol\":85:1711  contract durakGame {... */\n  jump(tag_7)\n    /* \"#utility.yul\":14:304   */\ntag_3:\n    /* \"#utility.yul\":84:90   */\n  0x00\n    /* \"#utility.yul\":137:139   */\n  0x20\n    /* \"#utility.yul\":125:134   */\n  dup3\n    /* \"#utility.yul\":116:123   */\n  dup5\n    /* \"#utility.yul\":112:135   */\n  sub\n    /* \"#utility.yul\":108:140   */\n  slt\n    /* \"#utility.yul\":105:157   */\n  iszero\n  tag_9\n  jumpi\n    /* \"#utility.yul\":153:154   */\n  0x00\n    /* \"#utility.yul\":150:151   */\n  dup1\n    /* \"#utility.yul\":143:155   */\n  revert\n    /* \"#utility.yul\":105:157   */\ntag_9:\n    /* \"#utility.yul\":179:195   */\n  dup2\n  mload\n  sub(shl(0xa0, 0x01), 0x01)\n    /* \"#utility.yul\":224:255   */\n  dup2\n  and\n    /* \"#utility.yul\":214:256   */\n  dup2\n  eq\n    /* \"#utility.yul\":204:274   */\n  tag_10\n  jumpi\n    /* \"#utility.yul\":270:271   */\n  0x00\n    /* \"#utility.yul\":267:268   */\n  dup1\n    /* \"#utility.yul\":260:272   */\n  revert\n    /* \"#utility.yul\":204:274   */\ntag_10:\n    /* \"#utility.yul\":293:298   */\n  swap4\n    /* \"#utility.yul\":14:304   */\n  swap3\n  pop\n  pop\n  pop\n  jump\t// out\ntag_7:\n    /* \"durakGame.sol\":85:1711  contract durakGame {... */\n  dataSize(sub_0)\n  dup1\n  dataOffset(sub_0)\n  0x00\n  codecopy\n  0x00\n  return\nstop\n\nsub_0: assembly {\n        /* \"durakGame.sol\":85:1711  contract durakGame {... */\n      mstore(0x40, 0x80)\n      callvalue\n      dup1\n      iszero\n      tag_1\n      jumpi\n      0x00\n      dup1\n      revert\n    tag_1:\n      pop\n      jumpi(tag_2, lt(calldatasize, 0x04))\n      shr(0xe0, calldataload(0x00))\n      dup1\n      0x65704506\n      gt\n      tag_9\n      jumpi\n      dup1\n      0x65704506\n      eq\n      tag_6\n      jumpi\n      dup1\n      0xa115cd52\n      eq\n      tag_7\n      jumpi\n      dup1\n      0xd65ab5f2\n      eq\n      tag_8\n      jumpi\n      0x00\n      dup1\n      revert\n    tag_9:\n      dup1\n      0x44a242d9\n      eq\n      tag_3\n      jumpi\n      dup1\n      0x536d5c70\n      eq\n      tag_4\n      jumpi\n      dup1\n      0x55a373d6\n      eq\n      tag_5\n      jumpi\n    tag_2:\n      0x00\n      dup1\n      revert\n        /* \"durakGame.sol\":790:1418  function endGame(bool won) public {... */\n    tag_3:\n      tag_10\n      tag_11\n      calldatasize\n      0x04\n      tag_12\n      jump\t// in\n    tag_11:\n      tag_13\n      jump\t// in\n    tag_10:\n      stop\n        /* \"durakGame.sol\":1600:1709  function simulateGame() public {... */\n    tag_4:\n      tag_10\n      tag_15\n      jump\t// in\n        /* \"durakGame.sol\":110:141  durakToken public tokenContract */\n    tag_5:\n      sload(0x00)\n      tag_16\n      swap1\n      sub(shl(0xa0, 0x01), 0x01)\n      and\n      dup2\n      jump\n    tag_16:\n      mload(0x40)\n      sub(shl(0xa0, 0x01), 0x01)\n        /* \"#utility.yul\":565:620   */\n      swap1\n      swap2\n      and\n        /* \"#utility.yul\":547:621   */\n      dup2\n      mstore\n        /* \"#utility.yul\":535:537   */\n      0x20\n        /* \"#utility.yul\":520:538   */\n      add\n        /* \"durakGame.sol\":110:141  durakToken public tokenContract */\n    tag_18:\n      mload(0x40)\n      dup1\n      swap2\n      sub\n      swap1\n      return\n        /* \"durakGame.sol\":147:190  mapping(address => bool) public currentGame */\n    tag_6:\n      tag_20\n      tag_21\n      calldatasize\n      0x04\n      tag_22\n      jump\t// in\n    tag_21:\n      mstore(0x20, 0x01)\n      0x00\n      swap1\n      dup2\n      mstore\n      0x40\n      swap1\n      keccak256\n      sload\n      0xff\n      and\n      dup2\n      jump\n    tag_20:\n      mload(0x40)\n        /* \"#utility.yul\":1111:1125   */\n      swap1\n      iszero\n        /* \"#utility.yul\":1104:1126   */\n      iszero\n        /* \"#utility.yul\":1086:1127   */\n      dup2\n      mstore\n        /* \"#utility.yul\":1074:1076   */\n      0x20\n        /* \"#utility.yul\":1059:1077   */\n      add\n        /* \"durakGame.sol\":147:190  mapping(address => bool) public currentGame */\n      tag_18\n        /* \"#utility.yul\":946:1133   */\n      jump\n        /* \"durakGame.sol\":196:245  mapping(address => uint256) public lastGameResult */\n    tag_7:\n      tag_26\n      tag_27\n      calldatasize\n      0x04\n      tag_22\n      jump\t// in\n    tag_27:\n      mstore(0x20, 0x02)\n      0x00\n      swap1\n      dup2\n      mstore\n      0x40\n      swap1\n      keccak256\n      sload\n      dup2\n      jump\n    tag_26:\n      mload(0x40)\n        /* \"#utility.yul\":1284:1309   */\n      swap1\n      dup2\n      mstore\n        /* \"#utility.yul\":1272:1274   */\n      0x20\n        /* \"#utility.yul\":1257:1275   */\n      add\n        /* \"durakGame.sol\":196:245  mapping(address => uint256) public lastGameResult */\n      tag_18\n        /* \"#utility.yul\":1138:1315   */\n      jump\n        /* \"durakGame.sol\":367:697  function startGame() public {... */\n    tag_8:\n      tag_10\n      tag_32\n      jump\t// in\n        /* \"durakGame.sol\":790:1418  function endGame(bool won) public {... */\n    tag_13:\n        /* \"durakGame.sol\":854:864  msg.sender */\n      caller\n        /* \"durakGame.sol\":842:865  currentGame[msg.sender] */\n      0x00\n      swap1\n      dup2\n      mstore\n        /* \"durakGame.sol\":842:853  currentGame */\n      0x01\n        /* \"durakGame.sol\":842:865  currentGame[msg.sender] */\n      0x20\n      dup2\n      swap1\n      mstore\n      0x40\n      swap1\n      swap2\n      keccak256\n      sload\n      0xff\n      and\n        /* \"durakGame.sol\":842:873  currentGame[msg.sender] == true */\n      iszero\n      iszero\n      eq\n        /* \"durakGame.sol\":834:908  require(currentGame[msg.sender] == true, \"You need to start a game first\") */\n      tag_34\n      jumpi\n      mload(0x40)\n      shl(0xe5, 0x461bcd)\n      dup2\n      mstore\n        /* \"#utility.yul\":1522:1524   */\n      0x20\n        /* \"durakGame.sol\":834:908  require(currentGame[msg.sender] == true, \"You need to start a game first\") */\n      0x04\n      dup3\n      add\n        /* \"#utility.yul\":1504:1525   */\n      mstore\n        /* \"#utility.yul\":1561:1563   */\n      0x1e\n        /* \"#utility.yul\":1541:1559   */\n      0x24\n      dup3\n      add\n        /* \"#utility.yul\":1534:1564   */\n      mstore\n        /* \"#utility.yul\":1600:1632   */\n      0x596f75206e65656420746f20737461727420612067616d652066697273740000\n        /* \"#utility.yul\":1580:1598   */\n      0x44\n      dup3\n      add\n        /* \"#utility.yul\":1573:1633   */\n      mstore\n        /* \"#utility.yul\":1650:1668   */\n      0x64\n      add\n        /* \"durakGame.sol\":834:908  require(currentGame[msg.sender] == true, \"You need to start a game first\") */\n      mload(0x40)\n      dup1\n      swap2\n      sub\n      swap1\n      revert\n    tag_34:\n        /* \"durakGame.sol\":930:940  msg.sender */\n      caller\n        /* \"durakGame.sol\":944:949  false */\n      0x00\n        /* \"durakGame.sol\":918:941  currentGame[msg.sender] */\n      swap1\n      dup2\n      mstore\n        /* \"durakGame.sol\":918:929  currentGame */\n      0x01\n        /* \"durakGame.sol\":918:941  currentGame[msg.sender] */\n      0x20\n      mstore\n      0x40\n      swap1\n      keccak256\n        /* \"durakGame.sol\":918:949  currentGame[msg.sender] = false */\n      dup1\n      sload\n      not(0xff)\n      and\n      swap1\n      sstore\n        /* \"durakGame.sol\":997:1412  if (won) {... */\n      dup1\n      iszero\n      tag_37\n      jumpi\n        /* \"durakGame.sol\":1020:1034  uint256 reward */\n      0x00\n        /* \"durakGame.sol\":1049:1062  tokenContract */\n      dup1\n      0x00\n      swap1\n      sload\n      swap1\n      0x0100\n      exp\n      swap1\n      div\n      sub(shl(0xa0, 0x01), 0x01)\n      and\n      sub(shl(0xa0, 0x01), 0x01)\n        /* \"durakGame.sol\":1049:1071  tokenContract.decimals */\n      and\n      0x313ce567\n        /* \"durakGame.sol\":1049:1073  tokenContract.decimals() */\n      mload(0x40)\n      dup2\n      0xffffffff\n      and\n      0xe0\n      shl\n      dup2\n      mstore\n      0x04\n      add\n      0x20\n      mload(0x40)\n      dup1\n      dup4\n      sub\n      dup2\n      dup7\n      gas\n      staticcall\n      iszero\n      dup1\n      iszero\n      tag_39\n      jumpi\n      returndatasize\n      0x00\n      dup1\n      returndatacopy\n      revert(0x00, returndatasize)\n    tag_39:\n      pop\n      pop\n      pop\n      pop\n      mload(0x40)\n      returndatasize\n      not(0x1f)\n      0x1f\n      dup3\n      add\n      and\n      dup3\n      add\n      dup1\n      0x40\n      mstore\n      pop\n      dup2\n      add\n      swap1\n      tag_40\n      swap2\n      swap1\n      tag_41\n      jump\t// in\n    tag_40:\n        /* \"durakGame.sol\":1043:1073  10 ** tokenContract.decimals() */\n      tag_42\n      swap1\n        /* \"durakGame.sol\":1043:1045  10 */\n      0x0a\n        /* \"durakGame.sol\":1043:1073  10 ** tokenContract.decimals() */\n      tag_43\n      jump\t// in\n    tag_42:\n        /* \"durakGame.sol\":1037:1074  12 * (10 ** tokenContract.decimals()) */\n      tag_44\n      swap1\n        /* \"durakGame.sol\":1037:1039  12 */\n      0x0c\n        /* \"durakGame.sol\":1037:1074  12 * (10 ** tokenContract.decimals()) */\n      tag_45\n      jump\t// in\n    tag_44:\n        /* \"durakGame.sol\":1136:1149  tokenContract */\n      sload(0x00)\n        /* \"durakGame.sol\":1136:1178  tokenContract.transfer(msg.sender, reward) */\n      mload(0x40)\n      shl(0xe0, 0xa9059cbb)\n      dup2\n      mstore\n        /* \"durakGame.sol\":1159:1169  msg.sender */\n      caller\n        /* \"durakGame.sol\":1136:1178  tokenContract.transfer(msg.sender, reward) */\n      0x04\n      dup3\n      add\n        /* \"#utility.yul\":3819:3893   */\n      mstore\n        /* \"#utility.yul\":3909:3927   */\n      0x24\n      dup2\n      add\n        /* \"#utility.yul\":3902:3936   */\n      dup4\n      swap1\n      mstore\n        /* \"durakGame.sol\":1020:1074  uint256 reward = 12 * (10 ** tokenContract.decimals()) */\n      swap2\n      swap3\n      pop\n      sub(shl(0xa0, 0x01), 0x01)\n        /* \"durakGame.sol\":1136:1149  tokenContract */\n      and\n      swap1\n        /* \"durakGame.sol\":1136:1158  tokenContract.transfer */\n      0xa9059cbb\n      swap1\n        /* \"#utility.yul\":3792:3810   */\n      0x44\n      add\n        /* \"durakGame.sol\":1136:1178  tokenContract.transfer(msg.sender, reward) */\n      0x20\n      mload(0x40)\n      dup1\n      dup4\n      sub\n      dup2\n      0x00\n      dup8\n      gas\n      call\n      iszero\n      dup1\n      iszero\n      tag_49\n      jumpi\n      returndatasize\n      0x00\n      dup1\n      returndatacopy\n      revert(0x00, returndatasize)\n    tag_49:\n      pop\n      pop\n      pop\n      pop\n      mload(0x40)\n      returndatasize\n      not(0x1f)\n      0x1f\n      dup3\n      add\n      and\n      dup3\n      add\n      dup1\n      0x40\n      mstore\n      pop\n      dup2\n      add\n      swap1\n      tag_50\n      swap2\n      swap1\n      tag_51\n      jump\t// in\n    tag_50:\n      pop\n        /* \"durakGame.sol\":1262:1272  msg.sender */\n      caller\n        /* \"durakGame.sol\":1247:1273  lastGameResult[msg.sender] */\n      0x00\n      swap1\n      dup2\n      mstore\n        /* \"durakGame.sol\":1247:1261  lastGameResult */\n      0x02\n        /* \"durakGame.sol\":1247:1273  lastGameResult[msg.sender] */\n      0x20\n      mstore\n      0x40\n      swap1\n      keccak256\n        /* \"durakGame.sol\":1247:1282  lastGameResult[msg.sender] = reward */\n      sstore\n        /* \"durakGame.sol\":790:1418  function endGame(bool won) public {... */\n      pop\n      jump\t// out\n        /* \"durakGame.sol\":997:1412  if (won) {... */\n    tag_37:\n        /* \"durakGame.sol\":1357:1367  msg.sender */\n      caller\n        /* \"durakGame.sol\":1371:1372  0 */\n      0x00\n        /* \"durakGame.sol\":1342:1368  lastGameResult[msg.sender] */\n      swap1\n      dup2\n      mstore\n        /* \"durakGame.sol\":1342:1356  lastGameResult */\n      0x02\n        /* \"durakGame.sol\":1342:1368  lastGameResult[msg.sender] */\n      0x20\n      mstore\n      0x40\n      dup2\n      keccak256\n        /* \"durakGame.sol\":1342:1372  lastGameResult[msg.sender] = 0 */\n      sstore\n        /* \"durakGame.sol\":997:1412  if (won) {... */\n    tag_52:\n        /* \"durakGame.sol\":790:1418  function endGame(bool won) public {... */\n      pop\n      jump\t// out\n        /* \"durakGame.sol\":1600:1709  function simulateGame() public {... */\n    tag_15:\n        /* \"durakGame.sol\":1641:1676  endGame((block.timestamp % 2) == 0) */\n      tag_54\n        /* \"durakGame.sol\":1650:1669  block.timestamp % 2 */\n      tag_55\n        /* \"durakGame.sol\":1668:1669  2 */\n      0x02\n        /* \"durakGame.sol\":1650:1665  block.timestamp */\n      timestamp\n        /* \"durakGame.sol\":1650:1669  block.timestamp % 2 */\n      tag_56\n      jump\t// in\n    tag_55:\n        /* \"durakGame.sol\":1649:1675  (block.timestamp % 2) == 0 */\n      iszero\n        /* \"durakGame.sol\":1641:1648  endGame */\n      tag_13\n        /* \"durakGame.sol\":1641:1676  endGame((block.timestamp % 2) == 0) */\n      jump\t// in\n    tag_54:\n        /* \"durakGame.sol\":1600:1709  function simulateGame() public {... */\n      jump\t// out\n        /* \"durakGame.sol\":367:697  function startGame() public {... */\n    tag_32:\n        /* \"durakGame.sol\":405:417  uint256 cost */\n      0x00\n        /* \"durakGame.sol\":432:445  tokenContract */\n      dup1\n      0x00\n      swap1\n      sload\n      swap1\n      0x0100\n      exp\n      swap1\n      div\n      sub(shl(0xa0, 0x01), 0x01)\n      and\n      sub(shl(0xa0, 0x01), 0x01)\n        /* \"durakGame.sol\":432:454  tokenContract.decimals */\n      and\n      0x313ce567\n        /* \"durakGame.sol\":432:456  tokenContract.decimals() */\n      mload(0x40)\n      dup2\n      0xffffffff\n      and\n      0xe0\n      shl\n      dup2\n      mstore\n      0x04\n      add\n      0x20\n      mload(0x40)\n      dup1\n      dup4\n      sub\n      dup2\n      dup7\n      gas\n      staticcall\n      iszero\n      dup1\n      iszero\n      tag_59\n      jumpi\n      returndatasize\n      0x00\n      dup1\n      returndatacopy\n      revert(0x00, returndatasize)\n    tag_59:\n      pop\n      pop\n      pop\n      pop\n      mload(0x40)\n      returndatasize\n      not(0x1f)\n      0x1f\n      dup3\n      add\n      and\n      dup3\n      add\n      dup1\n      0x40\n      mstore\n      pop\n      dup2\n      add\n      swap1\n      tag_60\n      swap2\n      swap1\n      tag_41\n      jump\t// in\n    tag_60:\n        /* \"durakGame.sol\":426:456  10 ** tokenContract.decimals() */\n      tag_61\n      swap1\n        /* \"durakGame.sol\":426:428  10 */\n      0x0a\n        /* \"durakGame.sol\":426:456  10 ** tokenContract.decimals() */\n      tag_43\n      jump\t// in\n    tag_61:\n        /* \"durakGame.sol\":420:457  10 * (10 ** tokenContract.decimals()) */\n      tag_62\n      swap1\n        /* \"durakGame.sol\":420:422  10 */\n      0x0a\n        /* \"durakGame.sol\":420:457  10 * (10 ** tokenContract.decimals()) */\n      tag_45\n      jump\t// in\n    tag_62:\n        /* \"durakGame.sol\":498:511  tokenContract */\n      sload(0x00)\n        /* \"durakGame.sol\":498:557  tokenContract.transferFrom(msg.sender, address(this), cost) */\n      mload(0x40)\n      shl(0xe0, 0x23b872dd)\n      dup2\n      mstore\n        /* \"durakGame.sol\":525:535  msg.sender */\n      caller\n        /* \"durakGame.sol\":498:557  tokenContract.transferFrom(msg.sender, address(this), cost) */\n      0x04\n      dup3\n      add\n        /* \"#utility.yul\":4674:4708   */\n      mstore\n        /* \"durakGame.sol\":545:549  this */\n      address\n        /* \"#utility.yul\":4724:4742   */\n      0x24\n      dup3\n      add\n        /* \"#utility.yul\":4717:4760   */\n      mstore\n        /* \"#utility.yul\":4776:4794   */\n      0x44\n      dup2\n      add\n        /* \"#utility.yul\":4769:4803   */\n      dup4\n      swap1\n      mstore\n        /* \"durakGame.sol\":405:457  uint256 cost = 10 * (10 ** tokenContract.decimals()) */\n      swap2\n      swap3\n      pop\n      sub(shl(0xa0, 0x01), 0x01)\n        /* \"durakGame.sol\":498:511  tokenContract */\n      and\n      swap1\n        /* \"durakGame.sol\":498:524  tokenContract.transferFrom */\n      0x23b872dd\n      swap1\n        /* \"#utility.yul\":4586:4604   */\n      0x64\n      add\n        /* \"durakGame.sol\":498:557  tokenContract.transferFrom(msg.sender, address(this), cost) */\n      0x20\n      mload(0x40)\n      dup1\n      dup4\n      sub\n      dup2\n      0x00\n      dup8\n      gas\n      call\n      iszero\n      dup1\n      iszero\n      tag_66\n      jumpi\n      returndatasize\n      0x00\n      dup1\n      returndatacopy\n      revert(0x00, returndatasize)\n    tag_66:\n      pop\n      pop\n      pop\n      pop\n      mload(0x40)\n      returndatasize\n      not(0x1f)\n      0x1f\n      dup3\n      add\n      and\n      dup3\n      add\n      dup1\n      0x40\n      mstore\n      pop\n      dup2\n      add\n      swap1\n      tag_67\n      swap2\n      swap1\n      tag_51\n      jump\t// in\n    tag_67:\n      pop\n      pop\n        /* \"durakGame.sol\":632:642  msg.sender */\n      caller\n        /* \"durakGame.sol\":620:643  currentGame[msg.sender] */\n      0x00\n      swap1\n      dup2\n      mstore\n        /* \"durakGame.sol\":646:650  true */\n      0x01\n        /* \"durakGame.sol\":620:643  currentGame[msg.sender] */\n      0x20\n      dup2\n      swap1\n      mstore\n      0x40\n      swap1\n      swap2\n      keccak256\n        /* \"durakGame.sol\":620:650  currentGame[msg.sender] = true */\n      dup1\n      sload\n      not(0xff)\n      and\n      swap1\n      swap2\n      or\n      swap1\n      sstore\n        /* \"durakGame.sol\":367:697  function startGame() public {... */\n      jump\t// out\n        /* \"#utility.yul\":14:132   */\n    tag_68:\n        /* \"#utility.yul\":100:105   */\n      dup1\n        /* \"#utility.yul\":93:106   */\n      iszero\n        /* \"#utility.yul\":86:107   */\n      iszero\n        /* \"#utility.yul\":79:84   */\n      dup2\n        /* \"#utility.yul\":76:108   */\n      eq\n        /* \"#utility.yul\":66:126   */\n      tag_52\n      jumpi\n        /* \"#utility.yul\":122:123   */\n      0x00\n        /* \"#utility.yul\":119:120   */\n      dup1\n        /* \"#utility.yul\":112:124   */\n      revert\n        /* \"#utility.yul\":137:378   */\n    tag_12:\n        /* \"#utility.yul\":193:199   */\n      0x00\n        /* \"#utility.yul\":246:248   */\n      0x20\n        /* \"#utility.yul\":234:243   */\n      dup3\n        /* \"#utility.yul\":225:232   */\n      dup5\n        /* \"#utility.yul\":221:244   */\n      sub\n        /* \"#utility.yul\":217:249   */\n      slt\n        /* \"#utility.yul\":214:266   */\n      iszero\n      tag_76\n      jumpi\n        /* \"#utility.yul\":262:263   */\n      0x00\n        /* \"#utility.yul\":259:260   */\n      dup1\n        /* \"#utility.yul\":252:264   */\n      revert\n        /* \"#utility.yul\":214:266   */\n    tag_76:\n        /* \"#utility.yul\":301:310   */\n      dup2\n        /* \"#utility.yul\":288:311   */\n      calldataload\n        /* \"#utility.yul\":320:348   */\n      tag_77\n        /* \"#utility.yul\":342:347   */\n      dup2\n        /* \"#utility.yul\":320:348   */\n      tag_68\n      jump\t// in\n    tag_77:\n        /* \"#utility.yul\":367:372   */\n      swap4\n        /* \"#utility.yul\":137:378   */\n      swap3\n      pop\n      pop\n      pop\n      jump\t// out\n        /* \"#utility.yul\":632:941   */\n    tag_22:\n        /* \"#utility.yul\":691:697   */\n      0x00\n        /* \"#utility.yul\":744:746   */\n      0x20\n        /* \"#utility.yul\":732:741   */\n      dup3\n        /* \"#utility.yul\":723:730   */\n      dup5\n        /* \"#utility.yul\":719:742   */\n      sub\n        /* \"#utility.yul\":715:747   */\n      slt\n        /* \"#utility.yul\":712:764   */\n      iszero\n      tag_80\n      jumpi\n        /* \"#utility.yul\":760:761   */\n      0x00\n        /* \"#utility.yul\":757:758   */\n      dup1\n        /* \"#utility.yul\":750:762   */\n      revert\n        /* \"#utility.yul\":712:764   */\n    tag_80:\n        /* \"#utility.yul\":799:808   */\n      dup2\n        /* \"#utility.yul\":786:809   */\n      calldataload\n      sub(shl(0xa0, 0x01), 0x01)\n        /* \"#utility.yul\":842:847   */\n      dup2\n        /* \"#utility.yul\":838:892   */\n      and\n        /* \"#utility.yul\":831:836   */\n      dup2\n        /* \"#utility.yul\":828:893   */\n      eq\n        /* \"#utility.yul\":818:911   */\n      tag_77\n      jumpi\n        /* \"#utility.yul\":907:908   */\n      0x00\n        /* \"#utility.yul\":904:905   */\n      dup1\n        /* \"#utility.yul\":897:909   */\n      revert\n        /* \"#utility.yul\":1679:1952   */\n    tag_41:\n        /* \"#utility.yul\":1747:1753   */\n      0x00\n        /* \"#utility.yul\":1800:1802   */\n      0x20\n        /* \"#utility.yul\":1788:1797   */\n      dup3\n        /* \"#utility.yul\":1779:1786   */\n      dup5\n        /* \"#utility.yul\":1775:1798   */\n      sub\n        /* \"#utility.yul\":1771:1803   */\n      slt\n        /* \"#utility.yul\":1768:1820   */\n      iszero\n      tag_86\n      jumpi\n        /* \"#utility.yul\":1816:1817   */\n      0x00\n        /* \"#utility.yul\":1813:1814   */\n      dup1\n        /* \"#utility.yul\":1806:1818   */\n      revert\n        /* \"#utility.yul\":1768:1820   */\n    tag_86:\n        /* \"#utility.yul\":1848:1857   */\n      dup2\n        /* \"#utility.yul\":1842:1858   */\n      mload\n        /* \"#utility.yul\":1898:1902   */\n      0xff\n        /* \"#utility.yul\":1891:1896   */\n      dup2\n        /* \"#utility.yul\":1887:1903   */\n      and\n        /* \"#utility.yul\":1880:1885   */\n      dup2\n        /* \"#utility.yul\":1877:1904   */\n      eq\n        /* \"#utility.yul\":1867:1922   */\n      tag_77\n      jumpi\n        /* \"#utility.yul\":1918:1919   */\n      0x00\n        /* \"#utility.yul\":1915:1916   */\n      dup1\n        /* \"#utility.yul\":1908:1920   */\n      revert\n        /* \"#utility.yul\":1957:2084   */\n    tag_69:\n        /* \"#utility.yul\":2018:2028   */\n      0x4e487b71\n        /* \"#utility.yul\":2013:2016   */\n      0xe0\n        /* \"#utility.yul\":2009:2029   */\n      shl\n        /* \"#utility.yul\":2006:2007   */\n      0x00\n        /* \"#utility.yul\":1999:2030   */\n      mstore\n        /* \"#utility.yul\":2049:2053   */\n      0x11\n        /* \"#utility.yul\":2046:2047   */\n      0x04\n        /* \"#utility.yul\":2039:2054   */\n      mstore\n        /* \"#utility.yul\":2073:2077   */\n      0x24\n        /* \"#utility.yul\":2070:2071   */\n      0x00\n        /* \"#utility.yul\":2063:2078   */\n      revert\n        /* \"#utility.yul\":2089:2511   */\n    tag_70:\n        /* \"#utility.yul\":2178:2179   */\n      0x01\n        /* \"#utility.yul\":2221:2226   */\n      dup2\n        /* \"#utility.yul\":2178:2179   */\n      dup2\n        /* \"#utility.yul\":2235:2505   */\n    tag_90:\n        /* \"#utility.yul\":2256:2263   */\n      dup1\n        /* \"#utility.yul\":2246:2254   */\n      dup6\n        /* \"#utility.yul\":2243:2264   */\n      gt\n        /* \"#utility.yul\":2235:2505   */\n      iszero\n      tag_92\n      jumpi\n        /* \"#utility.yul\":2315:2319   */\n      dup2\n        /* \"#utility.yul\":2311:2312   */\n      0x00\n        /* \"#utility.yul\":2307:2313   */\n      not\n        /* \"#utility.yul\":2303:2320   */\n      div\n        /* \"#utility.yul\":2297:2301   */\n      dup3\n        /* \"#utility.yul\":2294:2321   */\n      gt\n        /* \"#utility.yul\":2291:2344   */\n      iszero\n      tag_94\n      jumpi\n        /* \"#utility.yul\":2324:2342   */\n      tag_94\n      tag_69\n      jump\t// in\n    tag_94:\n        /* \"#utility.yul\":2374:2381   */\n      dup1\n        /* \"#utility.yul\":2364:2372   */\n      dup6\n        /* \"#utility.yul\":2360:2382   */\n      and\n        /* \"#utility.yul\":2357:2412   */\n      iszero\n      tag_95\n      jumpi\n        /* \"#utility.yul\":2394:2410   */\n      swap2\n      dup2\n      mul\n      swap2\n        /* \"#utility.yul\":2357:2412   */\n    tag_95:\n        /* \"#utility.yul\":2473:2495   */\n      swap4\n      dup5\n      shr\n      swap4\n        /* \"#utility.yul\":2433:2448   */\n      swap1\n      dup1\n      mul\n      swap1\n        /* \"#utility.yul\":2235:2505   */\n      jump(tag_90)\n    tag_92:\n        /* \"#utility.yul\":2239:2242   */\n      pop\n        /* \"#utility.yul\":2089:2511   */\n      swap3\n      pop\n      swap3\n      swap1\n      pop\n      jump\t// out\n        /* \"#utility.yul\":2516:3322   */\n    tag_71:\n        /* \"#utility.yul\":2565:2570   */\n      0x00\n        /* \"#utility.yul\":2595:2603   */\n      dup3\n        /* \"#utility.yul\":2585:2665   */\n      tag_97\n      jumpi\n      pop\n        /* \"#utility.yul\":2636:2637   */\n      0x01\n        /* \"#utility.yul\":2650:2655   */\n      jump(tag_96)\n        /* \"#utility.yul\":2585:2665   */\n    tag_97:\n        /* \"#utility.yul\":2684:2688   */\n      dup2\n        /* \"#utility.yul\":2674:2750   */\n      tag_98\n      jumpi\n      pop\n        /* \"#utility.yul\":2721:2722   */\n      0x00\n        /* \"#utility.yul\":2735:2740   */\n      jump(tag_96)\n        /* \"#utility.yul\":2674:2750   */\n    tag_98:\n        /* \"#utility.yul\":2766:2770   */\n      dup2\n        /* \"#utility.yul\":2784:2785   */\n      0x01\n        /* \"#utility.yul\":2779:2838   */\n      dup2\n      eq\n      tag_100\n      jumpi\n        /* \"#utility.yul\":2852:2853   */\n      0x02\n        /* \"#utility.yul\":2847:2977   */\n      dup2\n      eq\n      tag_101\n      jumpi\n        /* \"#utility.yul\":2759:2977   */\n      jump(tag_99)\n        /* \"#utility.yul\":2779:2838   */\n    tag_100:\n        /* \"#utility.yul\":2809:2810   */\n      0x01\n        /* \"#utility.yul\":2800:2810   */\n      swap2\n      pop\n        /* \"#utility.yul\":2823:2828   */\n      pop\n      jump(tag_96)\n        /* \"#utility.yul\":2847:2977   */\n    tag_101:\n        /* \"#utility.yul\":2884:2887   */\n      0xff\n        /* \"#utility.yul\":2874:2882   */\n      dup5\n        /* \"#utility.yul\":2871:2888   */\n      gt\n        /* \"#utility.yul\":2868:2911   */\n      iszero\n      tag_103\n      jumpi\n        /* \"#utility.yul\":2891:2909   */\n      tag_103\n      tag_69\n      jump\t// in\n    tag_103:\n      pop\n      pop\n        /* \"#utility.yul\":2947:2948   */\n      0x01\n        /* \"#utility.yul\":2933:2949   */\n      dup3\n      shl\n        /* \"#utility.yul\":2962:2967   */\n      jump(tag_96)\n        /* \"#utility.yul\":2759:2977   */\n    tag_99:\n      pop\n        /* \"#utility.yul\":3061:3063   */\n      0x20\n        /* \"#utility.yul\":3051:3059   */\n      dup4\n        /* \"#utility.yul\":3048:3064   */\n      lt\n        /* \"#utility.yul\":3042:3045   */\n      0x0133\n        /* \"#utility.yul\":3036:3040   */\n      dup4\n        /* \"#utility.yul\":3033:3046   */\n      lt\n        /* \"#utility.yul\":3029:3065   */\n      and\n        /* \"#utility.yul\":3023:3025   */\n      0x4e\n        /* \"#utility.yul\":3013:3021   */\n      dup5\n        /* \"#utility.yul\":3010:3026   */\n      lt\n        /* \"#utility.yul\":3005:3007   */\n      0x0b\n        /* \"#utility.yul\":2999:3003   */\n      dup5\n        /* \"#utility.yul\":2996:3008   */\n      lt\n        /* \"#utility.yul\":2992:3027   */\n      and\n        /* \"#utility.yul\":2989:3066   */\n      or\n        /* \"#utility.yul\":2986:3145   */\n      iszero\n      tag_104\n      jumpi\n      pop\n        /* \"#utility.yul\":3098:3117   */\n      dup2\n      dup2\n      exp\n        /* \"#utility.yul\":3130:3135   */\n      jump(tag_96)\n        /* \"#utility.yul\":2986:3145   */\n    tag_104:\n        /* \"#utility.yul\":3177:3211   */\n      tag_105\n        /* \"#utility.yul\":3202:3210   */\n      dup4\n        /* \"#utility.yul\":3196:3200   */\n      dup4\n        /* \"#utility.yul\":3177:3211   */\n      tag_70\n      jump\t// in\n    tag_105:\n        /* \"#utility.yul\":3247:3253   */\n      dup1\n        /* \"#utility.yul\":3243:3244   */\n      0x00\n        /* \"#utility.yul\":3239:3245   */\n      not\n        /* \"#utility.yul\":3235:3254   */\n      div\n        /* \"#utility.yul\":3226:3233   */\n      dup3\n        /* \"#utility.yul\":3223:3255   */\n      gt\n        /* \"#utility.yul\":3220:3278   */\n      iszero\n      tag_107\n      jumpi\n        /* \"#utility.yul\":3258:3276   */\n      tag_107\n      tag_69\n      jump\t// in\n    tag_107:\n        /* \"#utility.yul\":3296:3316   */\n      mul\n      swap1\n      pop\n        /* \"#utility.yul\":2516:3322   */\n    tag_96:\n      swap3\n      swap2\n      pop\n      pop\n      jump\t// out\n        /* \"#utility.yul\":3327:3467   */\n    tag_43:\n        /* \"#utility.yul\":3385:3390   */\n      0x00\n        /* \"#utility.yul\":3414:3461   */\n      tag_77\n        /* \"#utility.yul\":3455:3459   */\n      0xff\n        /* \"#utility.yul\":3445:3453   */\n      dup5\n        /* \"#utility.yul\":3441:3460   */\n      and\n        /* \"#utility.yul\":3435:3439   */\n      dup4\n        /* \"#utility.yul\":3414:3461   */\n      tag_71\n      jump\t// in\n        /* \"#utility.yul\":3472:3640   */\n    tag_45:\n        /* \"#utility.yul\":3545:3554   */\n      dup1\n      dup3\n      mul\n        /* \"#utility.yul\":3576:3585   */\n      dup2\n      iszero\n        /* \"#utility.yul\":3593:3608   */\n      dup3\n      dup3\n      div\n        /* \"#utility.yul\":3587:3609   */\n      dup5\n      eq\n        /* \"#utility.yul\":3573:3610   */\n      or\n        /* \"#utility.yul\":3563:3634   */\n      tag_96\n      jumpi\n        /* \"#utility.yul\":3614:3632   */\n      tag_96\n      tag_69\n      jump\t// in\n        /* \"#utility.yul\":3947:4192   */\n    tag_51:\n        /* \"#utility.yul\":4014:4020   */\n      0x00\n        /* \"#utility.yul\":4067:4069   */\n      0x20\n        /* \"#utility.yul\":4055:4064   */\n      dup3\n        /* \"#utility.yul\":4046:4053   */\n      dup5\n        /* \"#utility.yul\":4042:4065   */\n      sub\n        /* \"#utility.yul\":4038:4070   */\n      slt\n        /* \"#utility.yul\":4035:4087   */\n      iszero\n      tag_115\n      jumpi\n        /* \"#utility.yul\":4083:4084   */\n      0x00\n        /* \"#utility.yul\":4080:4081   */\n      dup1\n        /* \"#utility.yul\":4073:4085   */\n      revert\n        /* \"#utility.yul\":4035:4087   */\n    tag_115:\n        /* \"#utility.yul\":4115:4124   */\n      dup2\n        /* \"#utility.yul\":4109:4125   */\n      mload\n        /* \"#utility.yul\":4134:4162   */\n      tag_77\n        /* \"#utility.yul\":4156:4161   */\n      dup2\n        /* \"#utility.yul\":4134:4162   */\n      tag_68\n      jump\t// in\n        /* \"#utility.yul\":4197:4406   */\n    tag_56:\n        /* \"#utility.yul\":4229:4230   */\n      0x00\n        /* \"#utility.yul\":4255:4256   */\n      dup3\n        /* \"#utility.yul\":4245:4377   */\n      tag_118\n      jumpi\n        /* \"#utility.yul\":4299:4309   */\n      0x4e487b71\n        /* \"#utility.yul\":4294:4297   */\n      0xe0\n        /* \"#utility.yul\":4290:4310   */\n      shl\n        /* \"#utility.yul\":4287:4288   */\n      0x00\n        /* \"#utility.yul\":4280:4311   */\n      mstore\n        /* \"#utility.yul\":4334:4338   */\n      0x12\n        /* \"#utility.yul\":4331:4332   */\n      0x04\n        /* \"#utility.yul\":4324:4339   */\n      mstore\n        /* \"#utility.yul\":4362:4366   */\n      0x24\n        /* \"#utility.yul\":4359:4360   */\n      0x00\n        /* \"#utility.yul\":4352:4367   */\n      revert\n        /* \"#utility.yul\":4245:4377   */\n    tag_118:\n      pop\n        /* \"#utility.yul\":4391:4400   */\n      mod\n      swap1\n        /* \"#utility.yul\":4197:4406   */\n      jump\t// out\n\n    auxdata: 0xa2646970667358221220c28c0f4cc4e3de9194c22c36ed24ec6ed231c792d341ec837bae04f890ae11e964736f6c63430008110033\n}\n",
    "bytecode": {
      "linkReferences": {},
      "object": "608060405234801561001057600080fd5b506040516106c83803806106c883398101604081905261002f91610054565b600080546001600160a01b0319166001600160a01b0392909216919091179055610084565b60006020828403121561006657600080fd5b81516001600160a01b038116811461007d57600080fd5b9392505050565b610635806100936000396000f3fe608060405234801561001057600080fd5b50600436106100725760003560e01c8063657045061161005057806365704506146100c4578063a115cd52146100f7578063d65ab5f21461012557600080fd5b806344a242d914610077578063536d5c701461008c57806355a373d614610094575b600080fd5b61008a61008536600461042e565b61012d565b005b61008a6102df565b6000546100a7906001600160a01b031681565b6040516001600160a01b0390911681526020015b60405180910390f35b6100e76100d2366004610452565b60016020526000908152604090205460ff1681565b60405190151581526020016100bb565b610117610105366004610452565b60026020526000908152604090205481565b6040519081526020016100bb565b61008a6102f5565b3360009081526001602081905260409091205460ff161515146101965760405162461bcd60e51b815260206004820152601e60248201527f596f75206e65656420746f20737461727420612067616d652066697273740000604482015260640160405180910390fd5b336000908152600160205260409020805460ff1916905580156102cb5760008060009054906101000a90046001600160a01b03166001600160a01b031663313ce5676040518163ffffffff1660e01b8152600401602060405180830381865afa158015610207573d6000803e3d6000fd5b505050506040513d601f19601f8201168201806040525081019061022b919061047b565b61023690600a61059a565b61024190600c6105a9565b60005460405163a9059cbb60e01b8152336004820152602481018390529192506001600160a01b03169063a9059cbb906044016020604051808303816000875af1158015610293573d6000803e3d6000fd5b505050506040513d601f19601f820116820180604052508101906102b791906105c0565b503360009081526002602052604090205550565b336000908152600260205260408120555b50565b6102f36102ed6002426105dd565b1561012d565b565b60008060009054906101000a90046001600160a01b03166001600160a01b031663313ce5676040518163ffffffff1660e01b8152600401602060405180830381865afa158015610349573d6000803e3d6000fd5b505050506040513d601f19601f8201168201806040525081019061036d919061047b565b61037890600a61059a565b61038390600a6105a9565b6000546040516323b872dd60e01b8152336004820152306024820152604481018390529192506001600160a01b0316906323b872dd906064016020604051808303816000875af11580156103db573d6000803e3d6000fd5b505050506040513d601f19601f820116820180604052508101906103ff91906105c0565b5050336000908152600160208190526040909120805460ff19169091179055565b80151581146102dc57600080fd5b60006020828403121561044057600080fd5b813561044b81610420565b9392505050565b60006020828403121561046457600080fd5b81356001600160a01b038116811461044b57600080fd5b60006020828403121561048d57600080fd5b815160ff8116811461044b57600080fd5b634e487b7160e01b600052601160045260246000fd5b600181815b808511156104ef5781600019048211156104d5576104d561049e565b808516156104e257918102915b93841c93908002906104b9565b509250929050565b60008261050657506001610594565b8161051357506000610594565b816001811461052957600281146105335761054f565b6001915050610594565b60ff8411156105445761054461049e565b50506001821b610594565b5060208310610133831016604e8410600b8410161715610572575081810a610594565b61057c83836104b4565b80600019048211156105905761059061049e565b0290505b92915050565b600061044b60ff8416836104f7565b80820281158282048414176105945761059461049e565b6000602082840312156105d257600080fd5b815161044b81610420565b6000826105fa57634e487b7160e01b600052601260045260246000fd5b50069056fea2646970667358221220c28c0f4cc4e3de9194c22c36ed24ec6ed231c792d341ec837bae04f890ae11e964736f6c63430008110033",
      "opcodes": "PUSH1 0x80 PUSH1 0x40 MSTORE CALLVALUE DUP1 ISZERO PUSH2 0x10 JUMPI PUSH1 0x0 DUP1 REVERT JUMPDEST POP PUSH1 0x40 MLOAD PUSH2 0x6C8 CODESIZE SUB DUP1 PUSH2 0x6C8 DUP4 CODECOPY DUP2 ADD PUSH1 0x40 DUP2 SWAP1 MSTORE PUSH2 0x2F SWAP2 PUSH2 0x54 JUMP JUMPDEST PUSH1 0x0 DUP1 SLOAD PUSH1 0x1 PUSH1 0x1 PUSH1 0xA0 SHL SUB NOT AND PUSH1 0x1 PUSH1 0x1 PUSH1 0xA0 SHL SUB SWAP3 SWAP1 SWAP3 AND SWAP2 SWAP1 SWAP2 OR SWAP1 SSTORE PUSH2 0x84 JUMP JUMPDEST PUSH1 0x0 PUSH1 0x20 DUP3 DUP5 SUB SLT ISZERO PUSH2 0x66 JUMPI PUSH1 0x0 DUP1 REVERT JUMPDEST DUP2 MLOAD PUSH1 0x1 PUSH1 0x1 PUSH1 0xA0 SHL SUB DUP2 AND DUP2 EQ PUSH2 0x7D JUMPI PUSH1 0x0 DUP1 REVERT JUMPDEST SWAP4 SWAP3 POP POP POP JUMP JUMPDEST PUSH2 0x635 DUP1 PUSH2 0x93 PUSH1 0x0 CODECOPY PUSH1 0x0 RETURN INVALID PUSH1 0x80 PUSH1 0x40 MSTORE CALLVALUE DUP1 ISZERO PUSH2 0x10 JUMPI PUSH1 0x0 DUP1 REVERT JUMPDEST POP PUSH1 0x4 CALLDATASIZE LT PUSH2 0x72 JUMPI PUSH1 0x0 CALLDATALOAD PUSH1 0xE0 SHR DUP1 PUSH4 0x65704506 GT PUSH2 0x50 JUMPI DUP1 PUSH4 0x65704506 EQ PUSH2 0xC4 JUMPI DUP1 PUSH4 0xA115CD52 EQ PUSH2 0xF7 JUMPI DUP1 PUSH4 0xD65AB5F2 EQ PUSH2 0x125 JUMPI PUSH1 0x0 DUP1 REVERT JUMPDEST DUP1 PUSH4 0x44A242D9 EQ PUSH2 0x77 JUMPI DUP1 PUSH4 0x536D5C70 EQ PUSH2 0x8C JUMPI DUP1 PUSH4 0x55A373D6 EQ PUSH2 0x94 JUMPI JUMPDEST PUSH1 0x0 DUP1 REVERT JUMPDEST PUSH2 0x8A PUSH2 0x85 CALLDATASIZE PUSH1 0x4 PUSH2 0x42E JUMP JUMPDEST PUSH2 0x12D JUMP JUMPDEST STOP JUMPDEST PUSH2 0x8A PUSH2 0x2DF JUMP JUMPDEST PUSH1 0x0 SLOAD PUSH2 0xA7 SWAP1 PUSH1 0x1 PUSH1 0x1 PUSH1 0xA0 SHL SUB AND DUP2 JUMP JUMPDEST PUSH1 0x40 MLOAD PUSH1 0x1 PUSH1 0x1 PUSH1 0xA0 SHL SUB SWAP1 SWAP2 AND DUP2 MSTORE PUSH1 0x20 ADD JUMPDEST PUSH1 0x40 MLOAD DUP1 SWAP2 SUB SWAP1 RETURN JUMPDEST PUSH2 0xE7 PUSH2 0xD2 CALLDATASIZE PUSH1 0x4 PUSH2 0x452 JUMP JUMPDEST PUSH1 0x1 PUSH1 0x20 MSTORE PUSH1 0x0 SWAP1 DUP2 MSTORE PUSH1 0x40 SWAP1 KECCAK256 SLOAD PUSH1 0xFF AND DUP2 JUMP JUMPDEST PUSH1 0x40 MLOAD SWAP1 ISZERO ISZERO DUP2 MSTORE PUSH1 0x20 ADD PUSH2 0xBB JUMP JUMPDEST PUSH2 0x117 PUSH2 0x105 CALLDATASIZE PUSH1 0x4 PUSH2 0x452 JUMP JUMPDEST PUSH1 0x2 PUSH1 0x20 MSTORE PUSH1 0x0 SWAP1 DUP2 MSTORE PUSH1 0x40 SWAP1 KECCAK256 SLOAD DUP2 JUMP JUMPDEST PUSH1 0x40 MLOAD SWAP1 DUP2 MSTORE PUSH1 0x20 ADD PUSH2 0xBB JUMP JUMPDEST PUSH2 0x8A PUSH2 0x2F5 JUMP JUMPDEST CALLER PUSH1 0x0 SWAP1 DUP2 MSTORE PUSH1 0x1 PUSH1 0x20 DUP2 SWAP1 MSTORE PUSH1 0x40 SWAP1 SWAP2 KECCAK256 SLOAD PUSH1 0xFF AND ISZERO ISZERO EQ PUSH2 0x196 JUMPI PUSH1 0x40 MLOAD PUSH3 0x461BCD PUSH1 0xE5 SHL DUP2 MSTORE PUSH1 0x20 PUSH1 0x4 DUP3 ADD MSTORE PUSH1 0x1E PUSH1 0x24 DUP3 ADD MSTORE PUSH32 0x596F75206E65656420746F20737461727420612067616D652066697273740000 PUSH1 0x44 DUP3 ADD MSTORE PUSH1 0x64 ADD PUSH1 0x40 MLOAD DUP1 SWAP2 SUB SWAP1 REVERT JUMPDEST CALLER PUSH1 0x0 SWAP1 DUP2 MSTORE PUSH1 0x1 PUSH1 0x20 MSTORE PUSH1 0x40 SWAP1 KECCAK256 DUP1 SLOAD PUSH1 0xFF NOT AND SWAP1 SSTORE DUP1 ISZERO PUSH2 0x2CB JUMPI PUSH1 0x0 DUP1 PUSH1 0x0 SWAP1 SLOAD SWAP1 PUSH2 0x100 EXP SWAP1 DIV PUSH1 0x1 PUSH1 0x1 PUSH1 0xA0 SHL SUB AND PUSH1 0x1 PUSH1 0x1 PUSH1 0xA0 SHL SUB AND PUSH4 0x313CE567 PUSH1 0x40 MLOAD DUP2 PUSH4 0xFFFFFFFF AND PUSH1 0xE0 SHL DUP2 MSTORE PUSH1 0x4 ADD PUSH1 0x20 PUSH1 0x40 MLOAD DUP1 DUP4 SUB DUP2 DUP7 GAS STATICCALL ISZERO DUP1 ISZERO PUSH2 0x207 JUMPI RETURNDATASIZE PUSH1 0x0 DUP1 RETURNDATACOPY RETURNDATASIZE PUSH1 0x0 REVERT JUMPDEST POP POP POP POP PUSH1 0x40 MLOAD RETURNDATASIZE PUSH1 0x1F NOT PUSH1 0x1F DUP3 ADD AND DUP3 ADD DUP1 PUSH1 0x40 MSTORE POP DUP2 ADD SWAP1 PUSH2 0x22B SWAP2 SWAP1 PUSH2 0x47B JUMP JUMPDEST PUSH2 0x236 SWAP1 PUSH1 0xA PUSH2 0x59A JUMP JUMPDEST PUSH2 0x241 SWAP1 PUSH1 0xC PUSH2 0x5A9 JUMP JUMPDEST PUSH1 0x0 SLOAD PUSH1 0x40 MLOAD PUSH4 0xA9059CBB PUSH1 0xE0 SHL DUP2 MSTORE CALLER PUSH1 0x4 DUP3 ADD MSTORE PUSH1 0x24 DUP2 ADD DUP4 SWAP1 MSTORE SWAP2 SWAP3 POP PUSH1 0x1 PUSH1 0x1 PUSH1 0xA0 SHL SUB AND SWAP1 PUSH4 0xA9059CBB SWAP1 PUSH1 0x44 ADD PUSH1 0x20 PUSH1 0x40 MLOAD DUP1 DUP4 SUB DUP2 PUSH1 0x0 DUP8 GAS CALL ISZERO DUP1 ISZERO PUSH2 0x293 JUMPI RETURNDATASIZE PUSH1 0x0 DUP1 RETURNDATACOPY RETURNDATASIZE PUSH1 0x0 REVERT JUMPDEST POP POP POP POP PUSH1 0x40 MLOAD RETURNDATASIZE PUSH1 0x1F NOT PUSH1 0x1F DUP3 ADD AND DUP3 ADD DUP1 PUSH1 0x40 MSTORE POP DUP2 ADD SWAP1 PUSH2 0x2B7 SWAP2 SWAP1 PUSH2 0x5C0 JUMP JUMPDEST POP CALLER PUSH1 0x0 SWAP1 DUP2 MSTORE PUSH1 0x2 PUSH1 0x20 MSTORE PUSH1 0x40 SWAP1 KECCAK256 SSTORE POP JUMP JUMPDEST CALLER PUSH1 0x0 SWAP1 DUP2 MSTORE PUSH1 0x2 PUSH1 0x20 MSTORE PUSH1 0x40 DUP2 KECCAK256 SSTORE JUMPDEST POP JUMP JUMPDEST PUSH2 0x2F3 PUSH2 0x2ED PUSH1 0x2 TIMESTAMP PUSH2 0x5DD JUMP JUMPDEST ISZERO PUSH2 0x12D JUMP JUMPDEST JUMP JUMPDEST PUSH1 0x0 DUP1 PUSH1 0x0 SWAP1 SLOAD SWAP1 PUSH2 0x100 EXP SWAP1 DIV PUSH1 0x1 PUSH1 0x1 PUSH1 0xA0 SHL SUB AND PUSH1 0x1 PUSH1 0x1 PUSH1 0xA0 SHL SUB AND PUSH4 0x313CE567 PUSH1 0x40 MLOAD DUP2 PUSH4 0xFFFFFFFF AND PUSH1 0xE0 SHL DUP2 MSTORE PUSH1 0x4 ADD PUSH1 0x20 PUSH1 0x40 MLOAD DUP1 DUP4 SUB DUP2 DUP7 GAS STATICCALL ISZERO DUP1 ISZERO PUSH2 0x349 JUMPI RETURNDATASIZE PUSH1 0x0 DUP1 RETURNDATACOPY RETURNDATASIZE PUSH1 0x0 REVERT JUMPDEST POP POP POP POP PUSH1 0x40 MLOAD RETURNDATASIZE PUSH1 0x1F NOT PUSH1 0x1F DUP3 ADD AND DUP3 ADD DUP1 PUSH1 0x40 MSTORE POP DUP2 ADD SWAP1 PUSH2 0x36D SWAP2 SWAP1 PUSH2 0x47B JUMP JUMPDEST PUSH2 0x378 SWAP1 PUSH1 0xA PUSH2 0x59A JUMP JUMPDEST PUSH2 0x383 SWAP1 PUSH1 0xA PUSH2 0x5A9 JUMP JUMPDEST PUSH1 0x0 SLOAD PUSH1 0x40 MLOAD PUSH4 0x23B872DD PUSH1 0xE0 SHL DUP2 MSTORE CALLER PUSH1 0x4 DUP3 ADD MSTORE ADDRESS PUSH1 0x24 DUP3 ADD MSTORE PUSH1 0x44 DUP2 ADD DUP4 SWAP1 MSTORE SWAP2 SWAP3 POP PUSH1 0x1 PUSH1 0x1 PUSH1 0xA0 SHL SUB AND SWAP1 PUSH4 0x23B872DD SWAP1 PUSH1 0x64 ADD PUSH1 0x20 PUSH1 0x40 MLOAD DUP1 DUP4 SUB DUP2 PUSH1 0x0 DUP8 GAS CALL ISZERO DUP1 ISZERO PUSH2 0x3DB JUMPI RETURNDATASIZE PUSH1 0x0 DUP1 RETURNDATACOPY RETURNDATASIZE PUSH1 0x0 REVERT JUMPDEST POP POP POP POP PUSH1 0x40 MLOAD RETURNDATASIZE PUSH1 0x1F NOT PUSH1 0x1F DUP3 ADD AND DUP3 ADD DUP1 PUSH1 0x40 MSTORE POP DUP2 ADD SWAP1 PUSH2 0x3FF SWAP2 SWAP1 PUSH2 0x5C0 JUMP JUMPDEST POP POP CALLER PUSH1 0x0 SWAP1 DUP2 MSTORE PUSH1 0x1 PUSH1 0x20 DUP2 SWAP1 MSTORE PUSH1 0x40 SWAP1 SWAP2 KECCAK256 DUP1 SLOAD PUSH1 0xFF NOT AND SWAP1 SWAP2 OR SWAP1 SSTORE JUMP JUMPDEST DUP1 ISZERO ISZERO DUP2 EQ PUSH2 0x2DC JUMPI PUSH1 0x0 DUP1 REVERT JUMPDEST PUSH1 0x0 PUSH1 0x20 DUP3 DUP5 SUB SLT ISZERO PUSH2 0x440 JUMPI PUSH1 0x0 DUP1 REVERT JUMPDEST DUP2 CALLDATALOAD PUSH2 0x44B DUP2 PUSH2 0x420 JUMP JUMPDEST SWAP4 SWAP3 POP POP POP JUMP JUMPDEST PUSH1 0x0 PUSH1 0x20 DUP3 DUP5 SUB SLT ISZERO PUSH2 0x464 JUMPI PUSH1 0x0 DUP1 REVERT JUMPDEST DUP2 CALLDATALOAD PUSH1 0x1 PUSH1 0x1 PUSH1 0xA0 SHL SUB DUP2 AND DUP2 EQ PUSH2 0x44B JUMPI PUSH1 0x0 DUP1 REVERT JUMPDEST PUSH1 0x0 PUSH1 0x20 DUP3 DUP5 SUB SLT ISZERO PUSH2 0x48D JUMPI PUSH1 0x0 DUP1 REVERT JUMPDEST DUP2 MLOAD PUSH1 0xFF DUP2 AND DUP2 EQ PUSH2 0x44B JUMPI PUSH1 0x0 DUP1 REVERT JUMPDEST PUSH4 0x4E487B71 PUSH1 0xE0 SHL PUSH1 0x0 MSTORE PUSH1 0x11 PUSH1 0x4 MSTORE PUSH1 0x24 PUSH1 0x0 REVERT JUMPDEST PUSH1 0x1 DUP2 DUP2 JUMPDEST DUP1 DUP6 GT ISZERO PUSH2 0x4EF JUMPI DUP2 PUSH1 0x0 NOT DIV DUP3 GT ISZERO PUSH2 0x4D5 JUMPI PUSH2 0x4D5 PUSH2 0x49E JUMP JUMPDEST DUP1 DUP6 AND ISZERO PUSH2 0x4E2 JUMPI SWAP2 DUP2 MUL SWAP2 JUMPDEST SWAP4 DUP5 SHR SWAP4 SWAP1 DUP1 MUL SWAP1 PUSH2 0x4B9 JUMP JUMPDEST POP SWAP3 POP SWAP3 SWAP1 POP JUMP JUMPDEST PUSH1 0x0 DUP3 PUSH2 0x506 JUMPI POP PUSH1 0x1 PUSH2 0x594 JUMP JUMPDEST DUP2 PUSH2 0x513 JUMPI POP PUSH1 0x0 PUSH2 0x594 JUMP JUMPDEST DUP2 PUSH1 0x1 DUP2 EQ PUSH2 0x529 JUMPI PUSH1 0x2 DUP2 EQ PUSH2 0x533 JUMPI PUSH2 0x54F JUMP JUMPDEST PUSH1 0x1 SWAP2 POP POP PUSH2 0x594 JUMP JUMPDEST PUSH1 0xFF DUP5 GT ISZERO PUSH2 0x544 JUMPI PUSH2 0x544 PUSH2 0x49E JUMP JUMPDEST POP POP PUSH1 0x1 DUP3 SHL PUSH2 0x594 JUMP JUMPDEST POP PUSH1 0x20 DUP4 LT PUSH2 0x133 DUP4 LT AND PUSH1 0x4E DUP5 LT PUSH1 0xB DUP5 LT AND OR ISZERO PUSH2 0x572 JUMPI POP DUP2 DUP2 EXP PUSH2 0x594 JUMP JUMPDEST PUSH2 0x57C DUP4 DUP4 PUSH2 0x4B4 JUMP JUMPDEST DUP1 PUSH1 0x0 NOT DIV DUP3 GT ISZERO PUSH2 0x590 JUMPI PUSH2 0x590 PUSH2 0x49E JUMP JUMPDEST MUL SWAP1 POP JUMPDEST SWAP3 SWAP2 POP POP JUMP JUMPDEST PUSH1 0x0 PUSH2 0x44B PUSH1 0xFF DUP5 AND DUP4 PUSH2 0x4F7 JUMP JUMPDEST DUP1 DUP3 MUL DUP2 ISZERO DUP3 DUP3 DIV DUP5 EQ OR PUSH2 0x594 JUMPI PUSH2 0x594 PUSH2 0x49E JUMP JUMPDEST PUSH1 0x0 PUSH1 0x20 DUP3 DUP5 SUB SLT ISZERO PUSH2 0x5D2 JUMPI PUSH1 0x0 DUP1 REVERT JUMPDEST DUP2 MLOAD PUSH2 0x44B DUP2 PUSH2 0x420 JUMP JUMPDEST PUSH1 0x0 DUP3 PUSH2 0x5FA JUMPI PUSH4 0x4E487B71 PUSH1 0xE0 SHL PUSH1 0x0 MSTORE PUSH1 0x12 PUSH1 0x4 MSTORE PUSH1 0x24 PUSH1 0x0 REVERT JUMPDEST POP MOD SWAP1 JUMP INVALID LOG2 PUSH5 0x6970667358 0x22 SLT KECCAK256 0xC2 DUP13 0xF 0x4C 0xC4 0xE3 0xDE SWAP2 SWAP5 0xC2 0x2C CALLDATASIZE 0xED 0x24 0xEC PUSH15 0xD231C792D341EC837BAE04F890AE11 0xE9 PUSH5 0x736F6C6343 STOP ADDMOD GT STOP CALLER "
    },
    "gasEstimates": {
      "creation": {
        "codeDepositCost": "317800",
        "executionCost": "infinite",
        "totalCost": "infinite"
      },
      "external": {
        "currentGame(address)": "2496",
        "endGame(bool)": "infinite",
        "lastGameResult(address)": "2506",
        "simulateGame()": "infinite",
        "startGame()": "infinite",
        "tokenContract()": "2371"
      }
    },
    "methodIdentifiers": {
      "currentGame(address)": "65704506",
      "endGame(bool)": "44a242d9",
      "lastGameResult(address)": "a115cd52",
      "simulateGame()": "536d5c70",
      "startGame()": "d65ab5f2",
      "tokenContract()": "55a373d6"
    }
  },
  "storageLayout": {
    "storage": [
      {
        "astId": 5,
        "contract": "durakGame.sol:durakGame",
        "label": "tokenContract",
        "offset": 0,
        "slot": "0",
        "type": "t_contract(durakToken)218"
      },
      {
        "astId": 9,
        "contract": "durakGame.sol:durakGame",
        "label": "currentGame",
        "offset": 0,
        "slot": "1",
        "type": "t_mapping(t_address,t_bool)"
      },
      {
        "astId": 13,
        "contract": "durakGame.sol:durakGame",
        "label": "lastGameResult",
        "offset": 0,
        "slot": "2",
        "type": "t_mapping(t_address,t_uint256)"
      }
    ],
    "types": {
      "t_address": {
        "encoding": "inplace",
        "label": "address",
        "numberOfBytes": "20"
      },
      "t_bool": {
        "encoding": "inplace",
        "label": "bool",
        "numberOfBytes": "1"
      },
      "t_contract(durakToken)218": {
        "encoding": "inplace",
        "label": "contract durakToken",
        "numberOfBytes": "20"
      },
      "t_mapping(t_address,t_bool)": {
        "encoding": "mapping",
        "key": "t_address",
        "label": "mapping(address => bool)",
        "numberOfBytes": "32",
        "value": "t_bool"
      },
      "t_mapping(t_address,t_uint256)": {
        "encoding": "mapping",
        "key": "t_address",
        "label": "mapping(address => uint256)",
        "numberOfBytes": "32",
        "value": "t_uint256"
      },
      "t_uint256": {
        "encoding": "inplace",
        "label": "uint256",
        "numberOfBytes": "32"
      }
    }
  },
  "userdoc": {
    "kind": "user",
    "methods": {},
    "version": 1
  }
}